{
  "_format": "hh-sol-artifact-1",
  "contractName": "TokenSale",
  "sourceName": "contracts/sale.sol",
  "abi": [
    {
      "inputs": [
        {
          "internalType": "address",
          "name": "_purchaseToken",
          "type": "address"
        },
        {
          "internalType": "address",
          "name": "_token",
          "type": "address"
        }
      ],
      "stateMutability": "nonpayable",
      "type": "constructor"
    },
    {
      "inputs": [
        {
          "internalType": "address",
          "name": "owner",
          "type": "address"
        }
      ],
      "name": "OwnableInvalidOwner",
      "type": "error"
    },
    {
      "inputs": [
        {
          "internalType": "address",
          "name": "account",
          "type": "address"
        }
      ],
      "name": "OwnableUnauthorizedAccount",
      "type": "error"
    },
    {
      "inputs": [],
      "name": "ReentrancyGuardReentrantCall",
      "type": "error"
    },
    {
      "anonymous": false,
      "inputs": [
        {
          "indexed": true,
          "internalType": "address",
          "name": "previousOwner",
          "type": "address"
        },
        {
          "indexed": true,
          "internalType": "address",
          "name": "newOwner",
          "type": "address"
        }
      ],
      "name": "OwnershipTransferred",
      "type": "event"
    },
    {
      "anonymous": false,
      "inputs": [
        {
          "indexed": true,
          "internalType": "address",
          "name": "account",
          "type": "address"
        },
        {
          "indexed": false,
          "internalType": "uint256",
          "name": "amount",
          "type": "uint256"
        },
        {
          "indexed": false,
          "internalType": "uint256",
          "name": "saleType",
          "type": "uint256"
        }
      ],
      "name": "TokenBought",
      "type": "event"
    },
    {
      "inputs": [
        {
          "internalType": "uint256",
          "name": "saleNumber",
          "type": "uint256"
        },
        {
          "internalType": "uint256",
          "name": "amount",
          "type": "uint256"
        }
      ],
      "name": "buyTokens",
      "outputs": [],
      "stateMutability": "nonpayable",
      "type": "function"
    },
    {
      "inputs": [
        {
          "internalType": "uint256",
          "name": "saleNumber",
          "type": "uint256"
        },
        {
          "internalType": "uint256",
          "name": "startDate",
          "type": "uint256"
        },
        {
          "internalType": "uint256",
          "name": "endDate",
          "type": "uint256"
        },
        {
          "internalType": "uint256",
          "name": "tokenPrice",
          "type": "uint256"
        },
        {
          "internalType": "uint256",
          "name": "pool",
          "type": "uint256"
        },
        {
          "internalType": "uint256",
          "name": "max",
          "type": "uint256"
        },
        {
          "internalType": "uint256",
          "name": "min",
          "type": "uint256"
        }
      ],
      "name": "createSale",
      "outputs": [],
      "stateMutability": "nonpayable",
      "type": "function"
    },
    {
      "inputs": [
        {
          "internalType": "uint256",
          "name": "saleNumber",
          "type": "uint256"
        }
      ],
      "name": "getAllUsersToken",
      "outputs": [
        {
          "internalType": "address[]",
          "name": "",
          "type": "address[]"
        },
        {
          "internalType": "uint256[]",
          "name": "",
          "type": "uint256[]"
        }
      ],
      "stateMutability": "view",
      "type": "function"
    },
    {
      "inputs": [
        {
          "internalType": "uint256",
          "name": "saleNumber",
          "type": "uint256"
        },
        {
          "internalType": "uint256",
          "name": "amount",
          "type": "uint256"
        }
      ],
      "name": "getTokenAmountForUsdt",
      "outputs": [
        {
          "internalType": "uint256",
          "name": "",
          "type": "uint256"
        }
      ],
      "stateMutability": "view",
      "type": "function"
    },
    {
      "inputs": [
        {
          "internalType": "uint256",
          "name": "saleNumber",
          "type": "uint256"
        },
        {
          "internalType": "address",
          "name": "account",
          "type": "address"
        }
      ],
      "name": "getUserTokens",
      "outputs": [
        {
          "internalType": "uint256",
          "name": "",
          "type": "uint256"
        }
      ],
      "stateMutability": "view",
      "type": "function"
    },
    {
      "inputs": [],
      "name": "owner",
      "outputs": [
        {
          "internalType": "address",
          "name": "",
          "type": "address"
        }
      ],
      "stateMutability": "view",
      "type": "function"
    },
    {
      "inputs": [],
      "name": "purchaseToken",
      "outputs": [
        {
          "internalType": "contract IERC20",
          "name": "",
          "type": "address"
        }
      ],
      "stateMutability": "view",
      "type": "function"
    },
    {
      "inputs": [],
      "name": "renounceOwnership",
      "outputs": [],
      "stateMutability": "nonpayable",
      "type": "function"
    },
    {
      "inputs": [
        {
          "internalType": "uint256",
          "name": "",
          "type": "uint256"
        }
      ],
      "name": "sales",
      "outputs": [
        {
          "internalType": "uint256",
          "name": "startDate",
          "type": "uint256"
        },
        {
          "internalType": "uint256",
          "name": "endDate",
          "type": "uint256"
        },
        {
          "internalType": "uint256",
          "name": "tokenPrice",
          "type": "uint256"
        },
        {
          "internalType": "uint256",
          "name": "soldAmount",
          "type": "uint256"
        },
        {
          "internalType": "uint256",
          "name": "pool",
          "type": "uint256"
        },
        {
          "internalType": "uint256",
          "name": "minUsdt",
          "type": "uint256"
        },
        {
          "internalType": "uint256",
          "name": "maxUsdt",
          "type": "uint256"
        }
      ],
      "stateMutability": "view",
      "type": "function"
    },
    {
      "inputs": [
        {
          "internalType": "uint256",
          "name": "saleNumber",
          "type": "uint256"
        },
        {
          "internalType": "uint256",
          "name": "newTime",
          "type": "uint256"
        }
      ],
      "name": "setEndTime",
      "outputs": [],
      "stateMutability": "nonpayable",
      "type": "function"
    },
    {
      "inputs": [
        {
          "internalType": "uint256",
          "name": "saleNumber",
          "type": "uint256"
        },
        {
          "internalType": "uint256",
          "name": "newPrice",
          "type": "uint256"
        }
      ],
      "name": "setPrice",
      "outputs": [],
      "stateMutability": "nonpayable",
      "type": "function"
    },
    {
      "inputs": [
        {
          "internalType": "address",
          "name": "_purchaseToken",
          "type": "address"
        }
      ],
      "name": "setPurchaseToken",
      "outputs": [],
      "stateMutability": "nonpayable",
      "type": "function"
    },
    {
      "inputs": [
        {
          "internalType": "uint256",
          "name": "saleNumber",
          "type": "uint256"
        },
        {
          "internalType": "uint256",
          "name": "newTime",
          "type": "uint256"
        }
      ],
      "name": "setStartTime",
      "outputs": [],
      "stateMutability": "nonpayable",
      "type": "function"
    },
    {
      "inputs": [
        {
          "internalType": "address",
          "name": "_token",
          "type": "address"
        }
      ],
      "name": "setToken",
      "outputs": [],
      "stateMutability": "nonpayable",
      "type": "function"
    },
    {
      "inputs": [],
      "name": "token",
      "outputs": [
        {
          "internalType": "contract IERC20",
          "name": "",
          "type": "address"
        }
      ],
      "stateMutability": "view",
      "type": "function"
    },
    {
      "inputs": [
        {
          "internalType": "address",
          "name": "newOwner",
          "type": "address"
        }
      ],
      "name": "transferOwnership",
      "outputs": [],
      "stateMutability": "nonpayable",
      "type": "function"
    },
    {
      "inputs": [
        {
          "internalType": "address",
          "name": "account",
          "type": "address"
        },
        {
          "internalType": "uint256",
          "name": "amount",
          "type": "uint256"
        }
      ],
      "name": "transferPurchaseTokens",
      "outputs": [],
      "stateMutability": "nonpayable",
      "type": "function"
    },
    {
      "inputs": [
        {
          "internalType": "address",
          "name": "account",
          "type": "address"
        },
        {
          "internalType": "uint256",
          "name": "amount",
          "type": "uint256"
        }
      ],
      "name": "transferTokens",
      "outputs": [],
      "stateMutability": "nonpayable",
      "type": "function"
    }
  ],
  "bytecode": "0x60806040523480156200001157600080fd5b5060405162002238380380620022388339818101604052810190620000379190620002f0565b33600073ffffffffffffffffffffffffffffffffffffffff168173ffffffffffffffffffffffffffffffffffffffff1603620000ad5760006040517f1e4fbdf7000000000000000000000000000000000000000000000000000000008152600401620000a4919062000348565b60405180910390fd5b620000be81620001c260201b60201c565b5060018081905550600073ffffffffffffffffffffffffffffffffffffffff168173ffffffffffffffffffffffffffffffffffffffff160362000138576040517f08c379a00000000000000000000000000000000000000000000000000000000081526004016200012f90620003c6565b60405180910390fd5b81600260006101000a81548173ffffffffffffffffffffffffffffffffffffffff021916908373ffffffffffffffffffffffffffffffffffffffff16021790555080600360006101000a81548173ffffffffffffffffffffffffffffffffffffffff021916908373ffffffffffffffffffffffffffffffffffffffff1602179055505050620003e8565b60008060009054906101000a900473ffffffffffffffffffffffffffffffffffffffff169050816000806101000a81548173ffffffffffffffffffffffffffffffffffffffff021916908373ffffffffffffffffffffffffffffffffffffffff1602179055508173ffffffffffffffffffffffffffffffffffffffff168173ffffffffffffffffffffffffffffffffffffffff167f8be0079c531659141344cd1fd0a4f28419497f9722a3daafe3b4186f6b6457e060405160405180910390a35050565b600080fd5b600073ffffffffffffffffffffffffffffffffffffffff82169050919050565b6000620002b8826200028b565b9050919050565b620002ca81620002ab565b8114620002d657600080fd5b50565b600081519050620002ea81620002bf565b92915050565b600080604083850312156200030a576200030962000286565b5b60006200031a85828601620002d9565b92505060206200032d85828601620002d9565b9150509250929050565b6200034281620002ab565b82525050565b60006020820190506200035f600083018462000337565b92915050565b600082825260208201905092915050565b7f5a65726f20616464726573730000000000000000000000000000000000000000600082015250565b6000620003ae600c8362000365565b9150620003bb8262000376565b602082019050919050565b60006020820190508181036000830152620003e1816200039f565b9050919050565b611e4080620003f86000396000f3fe608060405234801561001057600080fd5b50600436106101165760003560e01c8063b5f522f7116100a2578063d82f718411610071578063d82f7184146102a7578063f2fde38b146102d8578063f7d97577146102f4578063fc0c546a14610310578063fdd5880a1461032e57610116565b8063b5f522f71461021d578063ba278e0814610253578063bec3fa171461026f578063c6e52e7e1461028b57610116565b80637975ce28116100e95780637975ce281461018d5780638456bd2e146101a95780638da5cb5b146101c5578063a95c4d62146101e3578063abfbac4b1461020157610116565b8063144fa6d71461011b5780635ac240d914610137578063715018a61461015357806375f721f91461015d575b600080fd5b610135600480360381019061013091906112ea565b61035e565b005b610151600480360381019061014c919061134d565b610419565b005b61015b610504565b005b6101776004803603810190610172919061138d565b610518565b60405161018491906113dc565b60405180910390f35b6101a760048036038101906101a2919061138d565b610562565b005b6101c360048036038101906101be91906112ea565b6109de565b005b6101cd610a99565b6040516101da9190611406565b60405180910390f35b6101eb610ac2565b6040516101f89190611480565b60405180910390f35b61021b6004803603810190610216919061138d565b610ae8565b005b6102376004803603810190610232919061149b565b610b15565b60405161024a97969594939291906114c8565b60405180910390f35b61026d6004803603810190610268919061138d565b610b57565b005b6102896004803603810190610284919061134d565b610b84565b005b6102a560048036038101906102a09190611537565b610c6f565b005b6102c160048036038101906102bc919061149b565b610ddc565b6040516102cf929190611755565b60405180910390f35b6102f260048036038101906102ed91906112ea565b610fa9565b005b61030e6004803603810190610309919061138d565b61102f565b005b61031861105c565b6040516103259190611480565b60405180910390f35b6103486004803603810190610343919061178c565b611082565b60405161035591906113dc565b60405180910390f35b6103666110e5565b600073ffffffffffffffffffffffffffffffffffffffff168173ffffffffffffffffffffffffffffffffffffffff16036103d5576040517f08c379a00000000000000000000000000000000000000000000000000000000081526004016103cc90611829565b60405180910390fd5b80600360006101000a81548173ffffffffffffffffffffffffffffffffffffffff021916908373ffffffffffffffffffffffffffffffffffffffff16021790555050565b6104216110e5565b600260009054906101000a900473ffffffffffffffffffffffffffffffffffffffff1673ffffffffffffffffffffffffffffffffffffffff1663a9059cbb83836040518363ffffffff1660e01b815260040161047e929190611849565b6020604051808303816000875af115801561049d573d6000803e3d6000fd5b505050506040513d601f19601f820116820180604052508101906104c191906118aa565b610500576040517f08c379a00000000000000000000000000000000000000000000000000000000081526004016104f790611923565b60405180910390fd5b5050565b61050c6110e5565b610516600061116c565b565b60008060046000858152602001908152602001600020905060008160020154670de0b6b3a76400008561054b9190611972565b61055591906119e3565b9050809250505092915050565b61056a611230565b6000600460008481526020019081526020016000209050806000015442116105c7576040517f08c379a00000000000000000000000000000000000000000000000000000000081526004016105be90611a60565b60405180910390fd5b8060010154421061060d576040517f08c379a000000000000000000000000000000000000000000000000000000000815260040161060490611acc565b60405180910390fd5b8060050154821015610654576040517f08c379a000000000000000000000000000000000000000000000000000000000815260040161064b90611b38565b60405180910390fd5b806006015482111561069b576040517f08c379a000000000000000000000000000000000000000000000000000000000815260040161069290611ba4565b60405180910390fd5b6000816003015482600401546106b19190611bc4565b905060008260020154670de0b6b3a7640000856106ce9190611972565b6106d891906119e3565b90508082101561071d576040517f08c379a000000000000000000000000000000000000000000000000000000000815260040161071490611c44565b60405180910390fd5b600260009054906101000a900473ffffffffffffffffffffffffffffffffffffffff1673ffffffffffffffffffffffffffffffffffffffff166323b872dd3330876040518463ffffffff1660e01b815260040161077c93929190611c64565b6020604051808303816000875af115801561079b573d6000803e3d6000fd5b505050506040513d601f19601f820116820180604052508101906107bf91906118aa565b6107fe576040517f08c379a00000000000000000000000000000000000000000000000000000000081526004016107f590611923565b60405180910390fd5b600360009054906101000a900473ffffffffffffffffffffffffffffffffffffffff1673ffffffffffffffffffffffffffffffffffffffff1663a9059cbb33836040518363ffffffff1660e01b815260040161085b929190611849565b6020604051808303816000875af115801561087a573d6000803e3d6000fd5b505050506040513d601f19601f8201168201806040525081019061089e91906118aa565b6108a757600080fd5b808360070160003373ffffffffffffffffffffffffffffffffffffffff1673ffffffffffffffffffffffffffffffffffffffff16815260200190815260200160002060008282546108f89190611c9b565b92505081905550808360030160008282546109139190611c9b565b9250508190555082600801339080600181540180825580915050600190039060005260206000200160009091909190916101000a81548173ffffffffffffffffffffffffffffffffffffffff021916908373ffffffffffffffffffffffffffffffffffffffff1602179055503373ffffffffffffffffffffffffffffffffffffffff167f28cab0d660ed8aedd61a8c9db00b97f6a2d67e07d87795994f440b18bc5f1aa382876040516109c7929190611ccf565b60405180910390a25050506109da611276565b5050565b6109e66110e5565b600073ffffffffffffffffffffffffffffffffffffffff168173ffffffffffffffffffffffffffffffffffffffff1603610a55576040517f08c379a0000000000000000000000000000000000000000000000000000000008152600401610a4c90611829565b60405180910390fd5b80600260006101000a81548173ffffffffffffffffffffffffffffffffffffffff021916908373ffffffffffffffffffffffffffffffffffffffff16021790555050565b60008060009054906101000a900473ffffffffffffffffffffffffffffffffffffffff16905090565b600260009054906101000a900473ffffffffffffffffffffffffffffffffffffffff1681565b610af06110e5565b6000600460008481526020019081526020016000209050818160010181905550505050565b60046020528060005260406000206000915090508060000154908060010154908060020154908060030154908060040154908060050154908060060154905087565b610b5f6110e5565b6000600460008481526020019081526020016000209050818160000181905550505050565b610b8c6110e5565b600360009054906101000a900473ffffffffffffffffffffffffffffffffffffffff1673ffffffffffffffffffffffffffffffffffffffff1663a9059cbb83836040518363ffffffff1660e01b8152600401610be9929190611849565b6020604051808303816000875af1158015610c08573d6000803e3d6000fd5b505050506040513d601f19601f82011682018060405250810190610c2c91906118aa565b610c6b576040517f08c379a0000000000000000000000000000000000000000000000000000000008152600401610c6290611923565b60405180910390fd5b5050565b610c776110e5565b6000600460008981526020019081526020016000206004015414610cd0576040517f08c379a0000000000000000000000000000000000000000000000000000000008152600401610cc790611d44565b60405180910390fd5b6000600460008981526020019081526020016000209050600360009054906101000a900473ffffffffffffffffffffffffffffffffffffffff1673ffffffffffffffffffffffffffffffffffffffff166323b872dd3330876040518463ffffffff1660e01b8152600401610d4693929190611c64565b6020604051808303816000875af1158015610d65573d6000803e3d6000fd5b505050506040513d601f19601f82011682018060405250810190610d8991906118aa565b610d9257600080fd5b868160000181905550858160010181905550848160020181905550600081600301819055508381600401819055508181600501819055508281600601819055505050505050505050565b60608060006004600085815260200190815260200160002090506000816008018054905067ffffffffffffffff811115610e1957610e18611d64565b5b604051908082528060200260200182016040528015610e475781602001602082028036833780820191505090505b50905060005b8260080180549050811015610f1057826007016000846008018381548110610e7857610e77611d93565b5b9060005260206000200160009054906101000a900473ffffffffffffffffffffffffffffffffffffffff1673ffffffffffffffffffffffffffffffffffffffff1673ffffffffffffffffffffffffffffffffffffffff16815260200190815260200160002054828281518110610ef157610ef0611d93565b5b6020026020010181815250508080610f0890611dc2565b915050610e4d565b50816008018181805480602002602001604051908101604052809291908181526020018280548015610f9757602002820191906000526020600020905b8160009054906101000a900473ffffffffffffffffffffffffffffffffffffffff1673ffffffffffffffffffffffffffffffffffffffff1681526020019060010190808311610f4d575b50505050509150935093505050915091565b610fb16110e5565b600073ffffffffffffffffffffffffffffffffffffffff168173ffffffffffffffffffffffffffffffffffffffff16036110235760006040517f1e4fbdf700000000000000000000000000000000000000000000000000000000815260040161101a9190611406565b60405180910390fd5b61102c8161116c565b50565b6110376110e5565b6000600460008481526020019081526020016000209050818160020181905550505050565b600360009054906101000a900473ffffffffffffffffffffffffffffffffffffffff1681565b6000806004600085815260200190815260200160002060070160008473ffffffffffffffffffffffffffffffffffffffff1673ffffffffffffffffffffffffffffffffffffffff1681526020019081526020016000205490508091505092915050565b6110ed61127f565b73ffffffffffffffffffffffffffffffffffffffff1661110b610a99565b73ffffffffffffffffffffffffffffffffffffffff161461116a5761112e61127f565b6040517f118cdaa70000000000000000000000000000000000000000000000000000000081526004016111619190611406565b60405180910390fd5b565b60008060009054906101000a900473ffffffffffffffffffffffffffffffffffffffff169050816000806101000a81548173ffffffffffffffffffffffffffffffffffffffff021916908373ffffffffffffffffffffffffffffffffffffffff1602179055508173ffffffffffffffffffffffffffffffffffffffff168173ffffffffffffffffffffffffffffffffffffffff167f8be0079c531659141344cd1fd0a4f28419497f9722a3daafe3b4186f6b6457e060405160405180910390a35050565b60026001540361126c576040517f3ee5aeb500000000000000000000000000000000000000000000000000000000815260040160405180910390fd5b6002600181905550565b60018081905550565b600033905090565b600080fd5b600073ffffffffffffffffffffffffffffffffffffffff82169050919050565b60006112b78261128c565b9050919050565b6112c7816112ac565b81146112d257600080fd5b50565b6000813590506112e4816112be565b92915050565b600060208284031215611300576112ff611287565b5b600061130e848285016112d5565b91505092915050565b6000819050919050565b61132a81611317565b811461133557600080fd5b50565b60008135905061134781611321565b92915050565b6000806040838503121561136457611363611287565b5b6000611372858286016112d5565b925050602061138385828601611338565b9150509250929050565b600080604083850312156113a4576113a3611287565b5b60006113b285828601611338565b92505060206113c385828601611338565b9150509250929050565b6113d681611317565b82525050565b60006020820190506113f160008301846113cd565b92915050565b611400816112ac565b82525050565b600060208201905061141b60008301846113f7565b92915050565b6000819050919050565b600061144661144161143c8461128c565b611421565b61128c565b9050919050565b60006114588261142b565b9050919050565b600061146a8261144d565b9050919050565b61147a8161145f565b82525050565b60006020820190506114956000830184611471565b92915050565b6000602082840312156114b1576114b0611287565b5b60006114bf84828501611338565b91505092915050565b600060e0820190506114dd600083018a6113cd565b6114ea60208301896113cd565b6114f760408301886113cd565b61150460608301876113cd565b61151160808301866113cd565b61151e60a08301856113cd565b61152b60c08301846113cd565b98975050505050505050565b600080600080600080600060e0888a03121561155657611555611287565b5b60006115648a828b01611338565b97505060206115758a828b01611338565b96505060406115868a828b01611338565b95505060606115978a828b01611338565b94505060806115a88a828b01611338565b93505060a06115b98a828b01611338565b92505060c06115ca8a828b01611338565b91505092959891949750929550565b600081519050919050565b600082825260208201905092915050565b6000819050602082019050919050565b61160e816112ac565b82525050565b60006116208383611605565b60208301905092915050565b6000602082019050919050565b6000611644826115d9565b61164e81856115e4565b9350611659836115f5565b8060005b8381101561168a5781516116718882611614565b975061167c8361162c565b92505060018101905061165d565b5085935050505092915050565b600081519050919050565b600082825260208201905092915050565b6000819050602082019050919050565b6116cc81611317565b82525050565b60006116de83836116c3565b60208301905092915050565b6000602082019050919050565b600061170282611697565b61170c81856116a2565b9350611717836116b3565b8060005b8381101561174857815161172f88826116d2565b975061173a836116ea565b92505060018101905061171b565b5085935050505092915050565b6000604082019050818103600083015261176f8185611639565b9050818103602083015261178381846116f7565b90509392505050565b600080604083850312156117a3576117a2611287565b5b60006117b185828601611338565b92505060206117c2858286016112d5565b9150509250929050565b600082825260208201905092915050565b7f5a65726f20616464726573730000000000000000000000000000000000000000600082015250565b6000611813600c836117cc565b915061181e826117dd565b602082019050919050565b6000602082019050818103600083015261184281611806565b9050919050565b600060408201905061185e60008301856113f7565b61186b60208301846113cd565b9392505050565b60008115159050919050565b61188781611872565b811461189257600080fd5b50565b6000815190506118a48161187e565b92915050565b6000602082840312156118c0576118bf611287565b5b60006118ce84828501611895565b91505092915050565b7f5472616e73666572206661696c65640000000000000000000000000000000000600082015250565b600061190d600f836117cc565b9150611918826118d7565b602082019050919050565b6000602082019050818103600083015261193c81611900565b9050919050565b7f4e487b7100000000000000000000000000000000000000000000000000000000600052601160045260246000fd5b600061197d82611317565b915061198883611317565b925082820261199681611317565b915082820484148315176119ad576119ac611943565b5b5092915050565b7f4e487b7100000000000000000000000000000000000000000000000000000000600052601260045260246000fd5b60006119ee82611317565b91506119f983611317565b925082611a0957611a086119b4565b5b828204905092915050565b7f53616c65206861736e2774207374617274656420796574000000000000000000600082015250565b6000611a4a6017836117cc565b9150611a5582611a14565b602082019050919050565b60006020820190508181036000830152611a7981611a3d565b9050919050565b7f53616c6520686173206265656e20636f6d706c65746564000000000000000000600082015250565b6000611ab66017836117cc565b9150611ac182611a80565b602082019050919050565b60006020820190508181036000830152611ae581611aa9565b9050919050565b7f6c657373207468616e20746865206d696e696d756d0000000000000000000000600082015250565b6000611b226015836117cc565b9150611b2d82611aec565b602082019050919050565b60006020820190508181036000830152611b5181611b15565b9050919050565b7f6d6f7265207468616e20746865206d6178696d756d0000000000000000000000600082015250565b6000611b8e6015836117cc565b9150611b9982611b58565b602082019050919050565b60006020820190508181036000830152611bbd81611b81565b9050919050565b6000611bcf82611317565b9150611bda83611317565b9250828203905081811115611bf257611bf1611943565b5b92915050565b7f4e6f7420656e6f75676820746f6b656e7320696e20706f6f6c00000000000000600082015250565b6000611c2e6019836117cc565b9150611c3982611bf8565b602082019050919050565b60006020820190508181036000830152611c5d81611c21565b9050919050565b6000606082019050611c7960008301866113f7565b611c8660208301856113f7565b611c9360408301846113cd565b949350505050565b6000611ca682611317565b9150611cb183611317565b9250828201905080821115611cc957611cc8611943565b5b92915050565b6000604082019050611ce460008301856113cd565b611cf160208301846113cd565b9392505050565b7f53616c6520616c72656164792065786973740000000000000000000000000000600082015250565b6000611d2e6012836117cc565b9150611d3982611cf8565b602082019050919050565b60006020820190508181036000830152611d5d81611d21565b9050919050565b7f4e487b7100000000000000000000000000000000000000000000000000000000600052604160045260246000fd5b7f4e487b7100000000000000000000000000000000000000000000000000000000600052603260045260246000fd5b6000611dcd82611317565b91507fffffffffffffffffffffffffffffffffffffffffffffffffffffffffffffffff8203611dff57611dfe611943565b5b60018201905091905056fea26469706673582212209851e21d7a247855b8a87567b74a5e0f3fabe979cd7deab9866d543f117845cd64736f6c63430008140033",
  "linkReferences": {},
  "deployedLinkReferences": {}
}