{
  "_format": "hh-sol-artifact-1",
  "contractName": "Premint721",
  "sourceName": "contracts/Premint.sol",
  "abi": [
    {
      "inputs": [
        {
          "internalType": "address",
          "name": "initialOwner",
          "type": "address"
        },
        {
          "internalType": "string",
          "name": "_name",
          "type": "string"
        },
        {
          "internalType": "string",
          "name": "_symbol",
          "type": "string"
        },
        {
          "internalType": "address",
          "name": "to",
          "type": "address"
        },
        {
          "internalType": "string",
          "name": "_tokenURI",
          "type": "string"
        }
      ],
      "stateMutability": "nonpayable",
      "type": "constructor"
    },
    {
      "inputs": [
        {
          "internalType": "address",
          "name": "sender",
          "type": "address"
        },
        {
          "internalType": "uint256",
          "name": "tokenId",
          "type": "uint256"
        },
        {
          "internalType": "address",
          "name": "owner",
          "type": "address"
        }
      ],
      "name": "ERC721IncorrectOwner",
      "type": "error"
    },
    {
      "inputs": [
        {
          "internalType": "address",
          "name": "operator",
          "type": "address"
        },
        {
          "internalType": "uint256",
          "name": "tokenId",
          "type": "uint256"
        }
      ],
      "name": "ERC721InsufficientApproval",
      "type": "error"
    },
    {
      "inputs": [
        {
          "internalType": "address",
          "name": "approver",
          "type": "address"
        }
      ],
      "name": "ERC721InvalidApprover",
      "type": "error"
    },
    {
      "inputs": [
        {
          "internalType": "address",
          "name": "operator",
          "type": "address"
        }
      ],
      "name": "ERC721InvalidOperator",
      "type": "error"
    },
    {
      "inputs": [
        {
          "internalType": "address",
          "name": "owner",
          "type": "address"
        }
      ],
      "name": "ERC721InvalidOwner",
      "type": "error"
    },
    {
      "inputs": [
        {
          "internalType": "address",
          "name": "receiver",
          "type": "address"
        }
      ],
      "name": "ERC721InvalidReceiver",
      "type": "error"
    },
    {
      "inputs": [
        {
          "internalType": "address",
          "name": "sender",
          "type": "address"
        }
      ],
      "name": "ERC721InvalidSender",
      "type": "error"
    },
    {
      "inputs": [
        {
          "internalType": "uint256",
          "name": "tokenId",
          "type": "uint256"
        }
      ],
      "name": "ERC721NonexistentToken",
      "type": "error"
    },
    {
      "inputs": [
        {
          "internalType": "address",
          "name": "owner",
          "type": "address"
        }
      ],
      "name": "OwnableInvalidOwner",
      "type": "error"
    },
    {
      "inputs": [
        {
          "internalType": "address",
          "name": "account",
          "type": "address"
        }
      ],
      "name": "OwnableUnauthorizedAccount",
      "type": "error"
    },
    {
      "anonymous": false,
      "inputs": [
        {
          "indexed": true,
          "internalType": "address",
          "name": "owner",
          "type": "address"
        },
        {
          "indexed": true,
          "internalType": "address",
          "name": "approved",
          "type": "address"
        },
        {
          "indexed": true,
          "internalType": "uint256",
          "name": "tokenId",
          "type": "uint256"
        }
      ],
      "name": "Approval",
      "type": "event"
    },
    {
      "anonymous": false,
      "inputs": [
        {
          "indexed": true,
          "internalType": "address",
          "name": "owner",
          "type": "address"
        },
        {
          "indexed": true,
          "internalType": "address",
          "name": "operator",
          "type": "address"
        },
        {
          "indexed": false,
          "internalType": "bool",
          "name": "approved",
          "type": "bool"
        }
      ],
      "name": "ApprovalForAll",
      "type": "event"
    },
    {
      "anonymous": false,
      "inputs": [
        {
          "indexed": false,
          "internalType": "uint256",
          "name": "_fromTokenId",
          "type": "uint256"
        },
        {
          "indexed": false,
          "internalType": "uint256",
          "name": "_toTokenId",
          "type": "uint256"
        }
      ],
      "name": "BatchMetadataUpdate",
      "type": "event"
    },
    {
      "anonymous": false,
      "inputs": [
        {
          "indexed": false,
          "internalType": "uint256",
          "name": "_tokenId",
          "type": "uint256"
        }
      ],
      "name": "MetadataUpdate",
      "type": "event"
    },
    {
      "anonymous": false,
      "inputs": [
        {
          "indexed": true,
          "internalType": "address",
          "name": "previousOwner",
          "type": "address"
        },
        {
          "indexed": true,
          "internalType": "address",
          "name": "newOwner",
          "type": "address"
        }
      ],
      "name": "OwnershipTransferred",
      "type": "event"
    },
    {
      "anonymous": false,
      "inputs": [
        {
          "indexed": true,
          "internalType": "address",
          "name": "from",
          "type": "address"
        },
        {
          "indexed": true,
          "internalType": "address",
          "name": "to",
          "type": "address"
        },
        {
          "indexed": true,
          "internalType": "uint256",
          "name": "tokenId",
          "type": "uint256"
        }
      ],
      "name": "Transfer",
      "type": "event"
    },
    {
      "inputs": [],
      "name": "_nextTokenId",
      "outputs": [
        {
          "internalType": "uint256",
          "name": "",
          "type": "uint256"
        }
      ],
      "stateMutability": "view",
      "type": "function"
    },
    {
      "inputs": [
        {
          "internalType": "address",
          "name": "to",
          "type": "address"
        },
        {
          "internalType": "uint256",
          "name": "tokenId",
          "type": "uint256"
        }
      ],
      "name": "approve",
      "outputs": [],
      "stateMutability": "nonpayable",
      "type": "function"
    },
    {
      "inputs": [
        {
          "internalType": "address",
          "name": "owner",
          "type": "address"
        }
      ],
      "name": "balanceOf",
      "outputs": [
        {
          "internalType": "uint256",
          "name": "",
          "type": "uint256"
        }
      ],
      "stateMutability": "view",
      "type": "function"
    },
    {
      "inputs": [
        {
          "internalType": "uint256",
          "name": "tokenId",
          "type": "uint256"
        }
      ],
      "name": "burn",
      "outputs": [],
      "stateMutability": "nonpayable",
      "type": "function"
    },
    {
      "inputs": [
        {
          "internalType": "uint256",
          "name": "tokenId",
          "type": "uint256"
        }
      ],
      "name": "getApproved",
      "outputs": [
        {
          "internalType": "address",
          "name": "",
          "type": "address"
        }
      ],
      "stateMutability": "view",
      "type": "function"
    },
    {
      "inputs": [
        {
          "internalType": "address",
          "name": "owner",
          "type": "address"
        },
        {
          "internalType": "address",
          "name": "operator",
          "type": "address"
        }
      ],
      "name": "isApprovedForAll",
      "outputs": [
        {
          "internalType": "bool",
          "name": "",
          "type": "bool"
        }
      ],
      "stateMutability": "view",
      "type": "function"
    },
    {
      "inputs": [
        {
          "internalType": "address",
          "name": "to",
          "type": "address"
        },
        {
          "internalType": "string",
          "name": "_tokenURI",
          "type": "string"
        }
      ],
      "name": "mint",
      "outputs": [],
      "stateMutability": "nonpayable",
      "type": "function"
    },
    {
      "inputs": [],
      "name": "name",
      "outputs": [
        {
          "internalType": "string",
          "name": "",
          "type": "string"
        }
      ],
      "stateMutability": "view",
      "type": "function"
    },
    {
      "inputs": [],
      "name": "owner",
      "outputs": [
        {
          "internalType": "address",
          "name": "",
          "type": "address"
        }
      ],
      "stateMutability": "view",
      "type": "function"
    },
    {
      "inputs": [
        {
          "internalType": "uint256",
          "name": "tokenId",
          "type": "uint256"
        }
      ],
      "name": "ownerOf",
      "outputs": [
        {
          "internalType": "address",
          "name": "",
          "type": "address"
        }
      ],
      "stateMutability": "view",
      "type": "function"
    },
    {
      "inputs": [],
      "name": "renounceOwnership",
      "outputs": [],
      "stateMutability": "nonpayable",
      "type": "function"
    },
    {
      "inputs": [
        {
          "internalType": "address",
          "name": "from",
          "type": "address"
        },
        {
          "internalType": "address",
          "name": "to",
          "type": "address"
        },
        {
          "internalType": "uint256",
          "name": "tokenId",
          "type": "uint256"
        }
      ],
      "name": "safeTransferFrom",
      "outputs": [],
      "stateMutability": "nonpayable",
      "type": "function"
    },
    {
      "inputs": [
        {
          "internalType": "address",
          "name": "from",
          "type": "address"
        },
        {
          "internalType": "address",
          "name": "to",
          "type": "address"
        },
        {
          "internalType": "uint256",
          "name": "tokenId",
          "type": "uint256"
        },
        {
          "internalType": "bytes",
          "name": "data",
          "type": "bytes"
        }
      ],
      "name": "safeTransferFrom",
      "outputs": [],
      "stateMutability": "nonpayable",
      "type": "function"
    },
    {
      "inputs": [
        {
          "internalType": "address",
          "name": "operator",
          "type": "address"
        },
        {
          "internalType": "bool",
          "name": "approved",
          "type": "bool"
        }
      ],
      "name": "setApprovalForAll",
      "outputs": [],
      "stateMutability": "nonpayable",
      "type": "function"
    },
    {
      "inputs": [
        {
          "internalType": "bytes4",
          "name": "interfaceId",
          "type": "bytes4"
        }
      ],
      "name": "supportsInterface",
      "outputs": [
        {
          "internalType": "bool",
          "name": "",
          "type": "bool"
        }
      ],
      "stateMutability": "view",
      "type": "function"
    },
    {
      "inputs": [],
      "name": "symbol",
      "outputs": [
        {
          "internalType": "string",
          "name": "",
          "type": "string"
        }
      ],
      "stateMutability": "view",
      "type": "function"
    },
    {
      "inputs": [
        {
          "internalType": "uint256",
          "name": "tokenId",
          "type": "uint256"
        }
      ],
      "name": "tokenURI",
      "outputs": [
        {
          "internalType": "string",
          "name": "",
          "type": "string"
        }
      ],
      "stateMutability": "view",
      "type": "function"
    },
    {
      "inputs": [
        {
          "internalType": "address",
          "name": "from",
          "type": "address"
        },
        {
          "internalType": "address",
          "name": "to",
          "type": "address"
        },
        {
          "internalType": "uint256",
          "name": "tokenId",
          "type": "uint256"
        }
      ],
      "name": "transferFrom",
      "outputs": [],
      "stateMutability": "nonpayable",
      "type": "function"
    },
    {
      "inputs": [
        {
          "internalType": "address",
          "name": "newOwner",
          "type": "address"
        }
      ],
      "name": "transferOwnership",
      "outputs": [],
      "stateMutability": "nonpayable",
      "type": "function"
    }
  ],
  "bytecode": "0x60806040523480156200001157600080fd5b50604051620038ee380380620038ee833981810160405281019062000037919062000cb2565b84848481600090816200004b919062000fe2565b5080600190816200005d919062000fe2565b505050600073ffffffffffffffffffffffffffffffffffffffff168173ffffffffffffffffffffffffffffffffffffffff1603620000d55760006040517f1e4fbdf7000000000000000000000000000000000000000000000000000000008152600401620000cc9190620010da565b60405180910390fd5b620000e6816200013460201b60201c565b50600060086000815480929190620000fe9062001126565b919050559050620001168382620001fa60201b60201c565b6200012881836200030160201b60201c565b505050505050620011ce565b6000600760009054906101000a900473ffffffffffffffffffffffffffffffffffffffff16905081600760006101000a81548173ffffffffffffffffffffffffffffffffffffffff021916908373ffffffffffffffffffffffffffffffffffffffff1602179055508173ffffffffffffffffffffffffffffffffffffffff168173ffffffffffffffffffffffffffffffffffffffff167f8be0079c531659141344cd1fd0a4f28419497f9722a3daafe3b4186f6b6457e060405160405180910390a35050565b600073ffffffffffffffffffffffffffffffffffffffff168273ffffffffffffffffffffffffffffffffffffffff16036200026f5760006040517f64a0ae92000000000000000000000000000000000000000000000000000000008152600401620002669190620010da565b60405180910390fd5b600062000285838360006200036160201b60201c565b9050600073ffffffffffffffffffffffffffffffffffffffff168173ffffffffffffffffffffffffffffffffffffffff1614620002fc5760006040517f73c6ac6e000000000000000000000000000000000000000000000000000000008152600401620002f39190620010da565b60405180910390fd5b505050565b8060066000848152602001908152602001600020908162000323919062000fe2565b507ff8e1a15aba9398e019f0b49df1a4fde98ee17ae345cb5f6b5e2c27f5033e8ce78260405162000355919062001184565b60405180910390a15050565b60008062000375846200059660201b60201c565b9050600073ffffffffffffffffffffffffffffffffffffffff168373ffffffffffffffffffffffffffffffffffffffff1614620003c057620003bf818486620005d360201b60201c565b5b600073ffffffffffffffffffffffffffffffffffffffff168173ffffffffffffffffffffffffffffffffffffffff16146200045a576200040b600085600080620006a560201b60201c565b6001600360008373ffffffffffffffffffffffffffffffffffffffff1673ffffffffffffffffffffffffffffffffffffffff168152602001908152602001600020600082825403925050819055505b600073ffffffffffffffffffffffffffffffffffffffff168573ffffffffffffffffffffffffffffffffffffffff1614620004de576001600360008773ffffffffffffffffffffffffffffffffffffffff1673ffffffffffffffffffffffffffffffffffffffff168152602001908152602001600020600082825401925050819055505b846002600086815260200190815260200160002060006101000a81548173ffffffffffffffffffffffffffffffffffffffff021916908373ffffffffffffffffffffffffffffffffffffffff160217905550838573ffffffffffffffffffffffffffffffffffffffff168273ffffffffffffffffffffffffffffffffffffffff167fddf252ad1be2c89b69c2b068fc378daa952ba7f163c4a11628f55a4df523b3ef60405160405180910390a4809150509392505050565b60006002600083815260200190815260200160002060009054906101000a900473ffffffffffffffffffffffffffffffffffffffff169050919050565b620005e68383836200088260201b60201c565b620006a057600073ffffffffffffffffffffffffffffffffffffffff168373ffffffffffffffffffffffffffffffffffffffff16036200065f57806040517f7e27328900000000000000000000000000000000000000000000000000000000815260040162000656919062001184565b60405180910390fd5b81816040517f177e802f00000000000000000000000000000000000000000000000000000000815260040162000697929190620011a1565b60405180910390fd5b505050565b8080620006df5750600073ffffffffffffffffffffffffffffffffffffffff168273ffffffffffffffffffffffffffffffffffffffff1614155b156200082a576000620006f8846200095660201b60201c565b9050600073ffffffffffffffffffffffffffffffffffffffff168373ffffffffffffffffffffffffffffffffffffffff16141580156200076457508273ffffffffffffffffffffffffffffffffffffffff168173ffffffffffffffffffffffffffffffffffffffff1614155b80156200078057506200077e8184620009e960201b60201c565b155b15620007c557826040517fa9fbf51f000000000000000000000000000000000000000000000000000000008152600401620007bc9190620010da565b60405180910390fd5b81156200082857838573ffffffffffffffffffffffffffffffffffffffff168273ffffffffffffffffffffffffffffffffffffffff167f8c5be1e5ebec7d5bd14f71427d1e84f3dd0314c0f7b2291e5b200ac8c7c3b92560405160405180910390a45b505b836004600085815260200190815260200160002060006101000a81548173ffffffffffffffffffffffffffffffffffffffff021916908373ffffffffffffffffffffffffffffffffffffffff16021790555050505050565b60008073ffffffffffffffffffffffffffffffffffffffff168373ffffffffffffffffffffffffffffffffffffffff16141580156200094d57508273ffffffffffffffffffffffffffffffffffffffff168473ffffffffffffffffffffffffffffffffffffffff161480620009055750620009048484620009e960201b60201c565b5b806200094c57508273ffffffffffffffffffffffffffffffffffffffff16620009348362000a7d60201b60201c565b73ffffffffffffffffffffffffffffffffffffffff16145b5b90509392505050565b6000806200096a836200059660201b60201c565b9050600073ffffffffffffffffffffffffffffffffffffffff168173ffffffffffffffffffffffffffffffffffffffff1603620009e057826040517f7e273289000000000000000000000000000000000000000000000000000000008152600401620009d7919062001184565b60405180910390fd5b80915050919050565b6000600560008473ffffffffffffffffffffffffffffffffffffffff1673ffffffffffffffffffffffffffffffffffffffff16815260200190815260200160002060008373ffffffffffffffffffffffffffffffffffffffff1673ffffffffffffffffffffffffffffffffffffffff16815260200190815260200160002060009054906101000a900460ff16905092915050565b60006004600083815260200190815260200160002060009054906101000a900473ffffffffffffffffffffffffffffffffffffffff169050919050565b6000604051905090565b600080fd5b600080fd5b600073ffffffffffffffffffffffffffffffffffffffff82169050919050565b600062000afb8262000ace565b9050919050565b62000b0d8162000aee565b811462000b1957600080fd5b50565b60008151905062000b2d8162000b02565b92915050565b600080fd5b600080fd5b6000601f19601f8301169050919050565b7f4e487b7100000000000000000000000000000000000000000000000000000000600052604160045260246000fd5b62000b888262000b3d565b810181811067ffffffffffffffff8211171562000baa5762000ba962000b4e565b5b80604052505050565b600062000bbf62000aba565b905062000bcd828262000b7d565b919050565b600067ffffffffffffffff82111562000bf05762000bef62000b4e565b5b62000bfb8262000b3d565b9050602081019050919050565b60005b8381101562000c2857808201518184015260208101905062000c0b565b60008484015250505050565b600062000c4b62000c458462000bd2565b62000bb3565b90508281526020810184848401111562000c6a5762000c6962000b38565b5b62000c7784828562000c08565b509392505050565b600082601f83011262000c975762000c9662000b33565b5b815162000ca984826020860162000c34565b91505092915050565b600080600080600060a0868803121562000cd15762000cd062000ac4565b5b600062000ce18882890162000b1c565b955050602086015167ffffffffffffffff81111562000d055762000d0462000ac9565b5b62000d138882890162000c7f565b945050604086015167ffffffffffffffff81111562000d375762000d3662000ac9565b5b62000d458882890162000c7f565b935050606062000d588882890162000b1c565b925050608086015167ffffffffffffffff81111562000d7c5762000d7b62000ac9565b5b62000d8a8882890162000c7f565b9150509295509295909350565b600081519050919050565b7f4e487b7100000000000000000000000000000000000000000000000000000000600052602260045260246000fd5b6000600282049050600182168062000dea57607f821691505b60208210810362000e005762000dff62000da2565b5b50919050565b60008190508160005260206000209050919050565b60006020601f8301049050919050565b600082821b905092915050565b60006008830262000e6a7fffffffffffffffffffffffffffffffffffffffffffffffffffffffffffffffff8262000e2b565b62000e76868362000e2b565b95508019841693508086168417925050509392505050565b6000819050919050565b6000819050919050565b600062000ec362000ebd62000eb78462000e8e565b62000e98565b62000e8e565b9050919050565b6000819050919050565b62000edf8362000ea2565b62000ef762000eee8262000eca565b84845462000e38565b825550505050565b600090565b62000f0e62000eff565b62000f1b81848462000ed4565b505050565b5b8181101562000f435762000f3760008262000f04565b60018101905062000f21565b5050565b601f82111562000f925762000f5c8162000e06565b62000f678462000e1b565b8101602085101562000f77578190505b62000f8f62000f868562000e1b565b83018262000f20565b50505b505050565b600082821c905092915050565b600062000fb76000198460080262000f97565b1980831691505092915050565b600062000fd2838362000fa4565b9150826002028217905092915050565b62000fed8262000d97565b67ffffffffffffffff81111562001009576200100862000b4e565b5b62001015825462000dd1565b6200102282828562000f47565b600060209050601f8311600181146200105a576000841562001045578287015190505b62001051858262000fc4565b865550620010c1565b601f1984166200106a8662000e06565b60005b8281101562001094578489015182556001820191506020850194506020810190506200106d565b86831015620010b45784890151620010b0601f89168262000fa4565b8355505b6001600288020188555050505b505050505050565b620010d48162000aee565b82525050565b6000602082019050620010f16000830184620010c9565b92915050565b7f4e487b7100000000000000000000000000000000000000000000000000000000600052601160045260246000fd5b6000620011338262000e8e565b91507fffffffffffffffffffffffffffffffffffffffffffffffffffffffffffffffff8203620011685762001167620010f7565b5b600182019050919050565b6200117e8162000e8e565b82525050565b60006020820190506200119b600083018462001173565b92915050565b6000604082019050620011b86000830185620010c9565b620011c7602083018462001173565b9392505050565b61271080620011de6000396000f3fe608060405234801561001057600080fd5b50600436106101215760003560e01c806370a08231116100ad578063b88d4fde11610071578063b88d4fde146102f4578063c87b56dd14610310578063d0def52114610340578063e985e9c51461035c578063f2fde38b1461038c57610121565b806370a0823114610262578063715018a6146102925780638da5cb5b1461029c57806395d89b41146102ba578063a22cb465146102d857610121565b806323b872dd116100f457806323b872dd146101c057806342842e0e146101dc57806342966c68146101f85780634a60f620146102145780636352211e1461023257610121565b806301ffc9a71461012657806306fdde0314610156578063081812fc14610174578063095ea7b3146101a4575b600080fd5b610140600480360381019061013b9190611b68565b6103a8565b60405161014d9190611bb0565b60405180910390f35b61015e610409565b60405161016b9190611c5b565b60405180910390f35b61018e60048036038101906101899190611cb3565b61049b565b60405161019b9190611d21565b60405180910390f35b6101be60048036038101906101b99190611d68565b6104b7565b005b6101da60048036038101906101d59190611da8565b6104cd565b005b6101f660048036038101906101f19190611da8565b6105cf565b005b610212600480360381019061020d9190611cb3565b6105ef565b005b61021c610603565b6040516102299190611e0a565b60405180910390f35b61024c60048036038101906102479190611cb3565b610609565b6040516102599190611d21565b60405180910390f35b61027c60048036038101906102779190611e25565b61061b565b6040516102899190611e0a565b60405180910390f35b61029a6106d5565b005b6102a46106e9565b6040516102b19190611d21565b60405180910390f35b6102c2610713565b6040516102cf9190611c5b565b60405180910390f35b6102f260048036038101906102ed9190611e7e565b6107a5565b005b61030e60048036038101906103099190611ff3565b6107bb565b005b61032a60048036038101906103259190611cb3565b6107d8565b6040516103379190611c5b565b60405180910390f35b61035a60048036038101906103559190612117565b6108eb565b005b61037660048036038101906103719190612173565b610927565b6040516103839190611bb0565b60405180910390f35b6103a660048036038101906103a19190611e25565b6109bb565b005b6000634906490660e01b7bffffffffffffffffffffffffffffffffffffffffffffffffffffffff1916827bffffffffffffffffffffffffffffffffffffffffffffffffffffffff19161480610402575061040182610a41565b5b9050919050565b606060008054610418906121e2565b80601f0160208091040260200160405190810160405280929190818152602001828054610444906121e2565b80156104915780601f1061046657610100808354040283529160200191610491565b820191906000526020600020905b81548152906001019060200180831161047457829003601f168201915b5050505050905090565b60006104a682610b23565b506104b082610bab565b9050919050565b6104c982826104c4610be8565b610bf0565b5050565b600073ffffffffffffffffffffffffffffffffffffffff168273ffffffffffffffffffffffffffffffffffffffff160361053f5760006040517f64a0ae920000000000000000000000000000000000000000000000000000000081526004016105369190611d21565b60405180910390fd5b6000610553838361054e610be8565b610c02565b90508373ffffffffffffffffffffffffffffffffffffffff168173ffffffffffffffffffffffffffffffffffffffff16146105c9578382826040517f64283d7b0000000000000000000000000000000000000000000000000000000081526004016105c093929190612213565b60405180910390fd5b50505050565b6105ea838383604051806020016040528060008152506107bb565b505050565b6105f7610e1c565b61060081610ea3565b50565b60085481565b600061061482610b23565b9050919050565b60008073ffffffffffffffffffffffffffffffffffffffff168273ffffffffffffffffffffffffffffffffffffffff160361068e5760006040517f89c62b640000000000000000000000000000000000000000000000000000000081526004016106859190611d21565b60405180910390fd5b600360008373ffffffffffffffffffffffffffffffffffffffff1673ffffffffffffffffffffffffffffffffffffffff168152602001908152602001600020549050919050565b6106dd610e1c565b6106e76000610f29565b565b6000600760009054906101000a900473ffffffffffffffffffffffffffffffffffffffff16905090565b606060018054610722906121e2565b80601f016020809104026020016040519081016040528092919081815260200182805461074e906121e2565b801561079b5780601f106107705761010080835404028352916020019161079b565b820191906000526020600020905b81548152906001019060200180831161077e57829003601f168201915b5050505050905090565b6107b76107b0610be8565b8383610fef565b5050565b6107c68484846104cd565b6107d28484848461115e565b50505050565b60606107e382610b23565b506000600660008481526020019081526020016000208054610804906121e2565b80601f0160208091040260200160405190810160405280929190818152602001828054610830906121e2565b801561087d5780601f106108525761010080835404028352916020019161087d565b820191906000526020600020905b81548152906001019060200180831161086057829003601f168201915b50505050509050600061088e611315565b905060008151036108a35781925050506108e6565b6000825111156108d85780826040516020016108c0929190612286565b604051602081830303815290604052925050506108e6565b6108e18461132c565b925050505b919050565b6108f3610e1c565b600060086000815480929190610908906122d9565b9190505590506109188382611395565b610922818361148e565b505050565b6000600560008473ffffffffffffffffffffffffffffffffffffffff1673ffffffffffffffffffffffffffffffffffffffff16815260200190815260200160002060008373ffffffffffffffffffffffffffffffffffffffff1673ffffffffffffffffffffffffffffffffffffffff16815260200190815260200160002060009054906101000a900460ff16905092915050565b6109c3610e1c565b600073ffffffffffffffffffffffffffffffffffffffff168173ffffffffffffffffffffffffffffffffffffffff1603610a355760006040517f1e4fbdf7000000000000000000000000000000000000000000000000000000008152600401610a2c9190611d21565b60405180910390fd5b610a3e81610f29565b50565b60007f80ac58cd000000000000000000000000000000000000000000000000000000007bffffffffffffffffffffffffffffffffffffffffffffffffffffffff1916827bffffffffffffffffffffffffffffffffffffffffffffffffffffffff19161480610b0c57507f5b5e139f000000000000000000000000000000000000000000000000000000007bffffffffffffffffffffffffffffffffffffffffffffffffffffffff1916827bffffffffffffffffffffffffffffffffffffffffffffffffffffffff1916145b80610b1c5750610b1b826114ea565b5b9050919050565b600080610b2f83611554565b9050600073ffffffffffffffffffffffffffffffffffffffff168173ffffffffffffffffffffffffffffffffffffffff1603610ba257826040517f7e273289000000000000000000000000000000000000000000000000000000008152600401610b999190611e0a565b60405180910390fd5b80915050919050565b60006004600083815260200190815260200160002060009054906101000a900473ffffffffffffffffffffffffffffffffffffffff169050919050565b600033905090565b610bfd8383836001611591565b505050565b600080610c0e84611554565b9050600073ffffffffffffffffffffffffffffffffffffffff168373ffffffffffffffffffffffffffffffffffffffff1614610c5057610c4f818486611756565b5b600073ffffffffffffffffffffffffffffffffffffffff168173ffffffffffffffffffffffffffffffffffffffff1614610ce157610c92600085600080611591565b6001600360008373ffffffffffffffffffffffffffffffffffffffff1673ffffffffffffffffffffffffffffffffffffffff168152602001908152602001600020600082825403925050819055505b600073ffffffffffffffffffffffffffffffffffffffff168573ffffffffffffffffffffffffffffffffffffffff1614610d64576001600360008773ffffffffffffffffffffffffffffffffffffffff1673ffffffffffffffffffffffffffffffffffffffff168152602001908152602001600020600082825401925050819055505b846002600086815260200190815260200160002060006101000a81548173ffffffffffffffffffffffffffffffffffffffff021916908373ffffffffffffffffffffffffffffffffffffffff160217905550838573ffffffffffffffffffffffffffffffffffffffff168273ffffffffffffffffffffffffffffffffffffffff167fddf252ad1be2c89b69c2b068fc378daa952ba7f163c4a11628f55a4df523b3ef60405160405180910390a4809150509392505050565b610e24610be8565b73ffffffffffffffffffffffffffffffffffffffff16610e426106e9565b73ffffffffffffffffffffffffffffffffffffffff1614610ea157610e65610be8565b6040517f118cdaa7000000000000000000000000000000000000000000000000000000008152600401610e989190611d21565b60405180910390fd5b565b6000610eb26000836000610c02565b9050600073ffffffffffffffffffffffffffffffffffffffff168173ffffffffffffffffffffffffffffffffffffffff1603610f2557816040517f7e273289000000000000000000000000000000000000000000000000000000008152600401610f1c9190611e0a565b60405180910390fd5b5050565b6000600760009054906101000a900473ffffffffffffffffffffffffffffffffffffffff16905081600760006101000a81548173ffffffffffffffffffffffffffffffffffffffff021916908373ffffffffffffffffffffffffffffffffffffffff1602179055508173ffffffffffffffffffffffffffffffffffffffff168173ffffffffffffffffffffffffffffffffffffffff167f8be0079c531659141344cd1fd0a4f28419497f9722a3daafe3b4186f6b6457e060405160405180910390a35050565b600073ffffffffffffffffffffffffffffffffffffffff168273ffffffffffffffffffffffffffffffffffffffff160361106057816040517f5b08ba180000000000000000000000000000000000000000000000000000000081526004016110579190611d21565b60405180910390fd5b80600560008573ffffffffffffffffffffffffffffffffffffffff1673ffffffffffffffffffffffffffffffffffffffff16815260200190815260200160002060008473ffffffffffffffffffffffffffffffffffffffff1673ffffffffffffffffffffffffffffffffffffffff16815260200190815260200160002060006101000a81548160ff0219169083151502179055508173ffffffffffffffffffffffffffffffffffffffff168373ffffffffffffffffffffffffffffffffffffffff167f17307eab39ab6107e8899845ad3d59bd9653f200f220920489ca2b5937696c31836040516111519190611bb0565b60405180910390a3505050565b60008373ffffffffffffffffffffffffffffffffffffffff163b111561130f578273ffffffffffffffffffffffffffffffffffffffff1663150b7a026111a2610be8565b8685856040518563ffffffff1660e01b81526004016111c49493929190612376565b6020604051808303816000875af192505050801561120057506040513d601f19601f820116820180604052508101906111fd91906123d7565b60015b611284573d8060008114611230576040519150601f19603f3d011682016040523d82523d6000602084013e611235565b606091505b50600081510361127c57836040517f64a0ae920000000000000000000000000000000000000000000000000000000081526004016112739190611d21565b60405180910390fd5b805181602001fd5b63150b7a0260e01b7bffffffffffffffffffffffffffffffffffffffffffffffffffffffff1916817bffffffffffffffffffffffffffffffffffffffffffffffffffffffff19161461130d57836040517f64a0ae920000000000000000000000000000000000000000000000000000000081526004016113049190611d21565b60405180910390fd5b505b50505050565b606060405180602001604052806000815250905090565b606061133782610b23565b506000611342611315565b90506000815111611362576040518060200160405280600081525061138d565b8061136c8461181a565b60405160200161137d929190612286565b6040516020818303038152906040525b915050919050565b600073ffffffffffffffffffffffffffffffffffffffff168273ffffffffffffffffffffffffffffffffffffffff16036114075760006040517f64a0ae920000000000000000000000000000000000000000000000000000000081526004016113fe9190611d21565b60405180910390fd5b600061141583836000610c02565b9050600073ffffffffffffffffffffffffffffffffffffffff168173ffffffffffffffffffffffffffffffffffffffff16146114895760006040517f73c6ac6e0000000000000000000000000000000000000000000000000000000081526004016114809190611d21565b60405180910390fd5b505050565b806006600084815260200190815260200160002090816114ae91906125b0565b507ff8e1a15aba9398e019f0b49df1a4fde98ee17ae345cb5f6b5e2c27f5033e8ce7826040516114de9190611e0a565b60405180910390a15050565b60007f01ffc9a7000000000000000000000000000000000000000000000000000000007bffffffffffffffffffffffffffffffffffffffffffffffffffffffff1916827bffffffffffffffffffffffffffffffffffffffffffffffffffffffff1916149050919050565b60006002600083815260200190815260200160002060009054906101000a900473ffffffffffffffffffffffffffffffffffffffff169050919050565b80806115ca5750600073ffffffffffffffffffffffffffffffffffffffff168273ffffffffffffffffffffffffffffffffffffffff1614155b156116fe5760006115da84610b23565b9050600073ffffffffffffffffffffffffffffffffffffffff168373ffffffffffffffffffffffffffffffffffffffff161415801561164557508273ffffffffffffffffffffffffffffffffffffffff168173ffffffffffffffffffffffffffffffffffffffff1614155b801561165857506116568184610927565b155b1561169a57826040517fa9fbf51f0000000000000000000000000000000000000000000000000000000081526004016116919190611d21565b60405180910390fd5b81156116fc57838573ffffffffffffffffffffffffffffffffffffffff168273ffffffffffffffffffffffffffffffffffffffff167f8c5be1e5ebec7d5bd14f71427d1e84f3dd0314c0f7b2291e5b200ac8c7c3b92560405160405180910390a45b505b836004600085815260200190815260200160002060006101000a81548173ffffffffffffffffffffffffffffffffffffffff021916908373ffffffffffffffffffffffffffffffffffffffff16021790555050505050565b6117618383836118e8565b61181557600073ffffffffffffffffffffffffffffffffffffffff168373ffffffffffffffffffffffffffffffffffffffff16036117d657806040517f7e2732890000000000000000000000000000000000000000000000000000000081526004016117cd9190611e0a565b60405180910390fd5b81816040517f177e802f00000000000000000000000000000000000000000000000000000000815260040161180c929190612682565b60405180910390fd5b505050565b606060006001611829846119a9565b01905060008167ffffffffffffffff81111561184857611847611ec8565b5b6040519080825280601f01601f19166020018201604052801561187a5781602001600182028036833780820191505090505b509050600082602001820190505b6001156118dd578080600190039150507f3031323334353637383961626364656600000000000000000000000000000000600a86061a8153600a85816118d1576118d06126ab565b5b04945060008503611888575b819350505050919050565b60008073ffffffffffffffffffffffffffffffffffffffff168373ffffffffffffffffffffffffffffffffffffffff16141580156119a057508273ffffffffffffffffffffffffffffffffffffffff168473ffffffffffffffffffffffffffffffffffffffff16148061196157506119608484610927565b5b8061199f57508273ffffffffffffffffffffffffffffffffffffffff1661198783610bab565b73ffffffffffffffffffffffffffffffffffffffff16145b5b90509392505050565b600080600090507a184f03e93ff9f4daa797ed6e38ed64bf6a1f0100000000000000008310611a07577a184f03e93ff9f4daa797ed6e38ed64bf6a1f01000000000000000083816119fd576119fc6126ab565b5b0492506040810190505b6d04ee2d6d415b85acef81000000008310611a44576d04ee2d6d415b85acef81000000008381611a3a57611a396126ab565b5b0492506020810190505b662386f26fc100008310611a7357662386f26fc100008381611a6957611a686126ab565b5b0492506010810190505b6305f5e1008310611a9c576305f5e1008381611a9257611a916126ab565b5b0492506008810190505b6127108310611ac1576127108381611ab757611ab66126ab565b5b0492506004810190505b60648310611ae45760648381611ada57611ad96126ab565b5b0492506002810190505b600a8310611af3576001810190505b80915050919050565b6000604051905090565b600080fd5b600080fd5b60007fffffffff0000000000000000000000000000000000000000000000000000000082169050919050565b611b4581611b10565b8114611b5057600080fd5b50565b600081359050611b6281611b3c565b92915050565b600060208284031215611b7e57611b7d611b06565b5b6000611b8c84828501611b53565b91505092915050565b60008115159050919050565b611baa81611b95565b82525050565b6000602082019050611bc56000830184611ba1565b92915050565b600081519050919050565b600082825260208201905092915050565b60005b83811015611c05578082015181840152602081019050611bea565b60008484015250505050565b6000601f19601f8301169050919050565b6000611c2d82611bcb565b611c378185611bd6565b9350611c47818560208601611be7565b611c5081611c11565b840191505092915050565b60006020820190508181036000830152611c758184611c22565b905092915050565b6000819050919050565b611c9081611c7d565b8114611c9b57600080fd5b50565b600081359050611cad81611c87565b92915050565b600060208284031215611cc957611cc8611b06565b5b6000611cd784828501611c9e565b91505092915050565b600073ffffffffffffffffffffffffffffffffffffffff82169050919050565b6000611d0b82611ce0565b9050919050565b611d1b81611d00565b82525050565b6000602082019050611d366000830184611d12565b92915050565b611d4581611d00565b8114611d5057600080fd5b50565b600081359050611d6281611d3c565b92915050565b60008060408385031215611d7f57611d7e611b06565b5b6000611d8d85828601611d53565b9250506020611d9e85828601611c9e565b9150509250929050565b600080600060608486031215611dc157611dc0611b06565b5b6000611dcf86828701611d53565b9350506020611de086828701611d53565b9250506040611df186828701611c9e565b9150509250925092565b611e0481611c7d565b82525050565b6000602082019050611e1f6000830184611dfb565b92915050565b600060208284031215611e3b57611e3a611b06565b5b6000611e4984828501611d53565b91505092915050565b611e5b81611b95565b8114611e6657600080fd5b50565b600081359050611e7881611e52565b92915050565b60008060408385031215611e9557611e94611b06565b5b6000611ea385828601611d53565b9250506020611eb485828601611e69565b9150509250929050565b600080fd5b600080fd5b7f4e487b7100000000000000000000000000000000000000000000000000000000600052604160045260246000fd5b611f0082611c11565b810181811067ffffffffffffffff82111715611f1f57611f1e611ec8565b5b80604052505050565b6000611f32611afc565b9050611f3e8282611ef7565b919050565b600067ffffffffffffffff821115611f5e57611f5d611ec8565b5b611f6782611c11565b9050602081019050919050565b82818337600083830152505050565b6000611f96611f9184611f43565b611f28565b905082815260208101848484011115611fb257611fb1611ec3565b5b611fbd848285611f74565b509392505050565b600082601f830112611fda57611fd9611ebe565b5b8135611fea848260208601611f83565b91505092915050565b6000806000806080858703121561200d5761200c611b06565b5b600061201b87828801611d53565b945050602061202c87828801611d53565b935050604061203d87828801611c9e565b925050606085013567ffffffffffffffff81111561205e5761205d611b0b565b5b61206a87828801611fc5565b91505092959194509250565b600067ffffffffffffffff82111561209157612090611ec8565b5b61209a82611c11565b9050602081019050919050565b60006120ba6120b584612076565b611f28565b9050828152602081018484840111156120d6576120d5611ec3565b5b6120e1848285611f74565b509392505050565b600082601f8301126120fe576120fd611ebe565b5b813561210e8482602086016120a7565b91505092915050565b6000806040838503121561212e5761212d611b06565b5b600061213c85828601611d53565b925050602083013567ffffffffffffffff81111561215d5761215c611b0b565b5b612169858286016120e9565b9150509250929050565b6000806040838503121561218a57612189611b06565b5b600061219885828601611d53565b92505060206121a985828601611d53565b9150509250929050565b7f4e487b7100000000000000000000000000000000000000000000000000000000600052602260045260246000fd5b600060028204905060018216806121fa57607f821691505b60208210810361220d5761220c6121b3565b5b50919050565b60006060820190506122286000830186611d12565b6122356020830185611dfb565b6122426040830184611d12565b949350505050565b600081905092915050565b600061226082611bcb565b61226a818561224a565b935061227a818560208601611be7565b80840191505092915050565b60006122928285612255565b915061229e8284612255565b91508190509392505050565b7f4e487b7100000000000000000000000000000000000000000000000000000000600052601160045260246000fd5b60006122e482611c7d565b91507fffffffffffffffffffffffffffffffffffffffffffffffffffffffffffffffff8203612316576123156122aa565b5b600182019050919050565b600081519050919050565b600082825260208201905092915050565b600061234882612321565b612352818561232c565b9350612362818560208601611be7565b61236b81611c11565b840191505092915050565b600060808201905061238b6000830187611d12565b6123986020830186611d12565b6123a56040830185611dfb565b81810360608301526123b7818461233d565b905095945050505050565b6000815190506123d181611b3c565b92915050565b6000602082840312156123ed576123ec611b06565b5b60006123fb848285016123c2565b91505092915050565b60008190508160005260206000209050919050565b60006020601f8301049050919050565b600082821b905092915050565b6000600883026124667fffffffffffffffffffffffffffffffffffffffffffffffffffffffffffffffff82612429565b6124708683612429565b95508019841693508086168417925050509392505050565b6000819050919050565b60006124ad6124a86124a384611c7d565b612488565b611c7d565b9050919050565b6000819050919050565b6124c783612492565b6124db6124d3826124b4565b848454612436565b825550505050565b600090565b6124f06124e3565b6124fb8184846124be565b505050565b5b8181101561251f576125146000826124e8565b600181019050612501565b5050565b601f8211156125645761253581612404565b61253e84612419565b8101602085101561254d578190505b61256161255985612419565b830182612500565b50505b505050565b600082821c905092915050565b600061258760001984600802612569565b1980831691505092915050565b60006125a08383612576565b9150826002028217905092915050565b6125b982611bcb565b67ffffffffffffffff8111156125d2576125d1611ec8565b5b6125dc82546121e2565b6125e7828285612523565b600060209050601f83116001811461261a5760008415612608578287015190505b6126128582612594565b86555061267a565b601f19841661262886612404565b60005b828110156126505784890151825560018201915060208501945060208101905061262b565b8683101561266d5784890151612669601f891682612576565b8355505b6001600288020188555050505b505050505050565b60006040820190506126976000830185611d12565b6126a46020830184611dfb565b9392505050565b7f4e487b7100000000000000000000000000000000000000000000000000000000600052601260045260246000fdfea2646970667358221220d3789b202b9e38bf635ec9caab76207f15f57e5996d26b79b9a07073c52e545d64736f6c63430008140033",
  "linkReferences": {},
  "deployedLinkReferences": {}
}