{
  "_format": "hh-sol-artifact-1",
  "contractName": "PremintMult",
  "sourceName": "contracts/PreMult.sol",
  "abi": [
    {
      "inputs": [
        {
          "internalType": "string",
          "name": "uri",
          "type": "string"
        },
        {
          "internalType": "address",
          "name": "account",
          "type": "address"
        },
        {
          "internalType": "uint256",
          "name": "id",
          "type": "uint256"
        },
        {
          "internalType": "uint256",
          "name": "amount",
          "type": "uint256"
        },
        {
          "internalType": "bytes",
          "name": "data",
          "type": "bytes"
        },
        {
          "internalType": "address",
          "name": "initialOwner",
          "type": "address"
        }
      ],
      "stateMutability": "nonpayable",
      "type": "constructor"
    },
    {
      "inputs": [
        {
          "internalType": "address",
          "name": "sender",
          "type": "address"
        },
        {
          "internalType": "uint256",
          "name": "balance",
          "type": "uint256"
        },
        {
          "internalType": "uint256",
          "name": "needed",
          "type": "uint256"
        },
        {
          "internalType": "uint256",
          "name": "tokenId",
          "type": "uint256"
        }
      ],
      "name": "ERC1155InsufficientBalance",
      "type": "error"
    },
    {
      "inputs": [
        {
          "internalType": "address",
          "name": "approver",
          "type": "address"
        }
      ],
      "name": "ERC1155InvalidApprover",
      "type": "error"
    },
    {
      "inputs": [
        {
          "internalType": "uint256",
          "name": "idsLength",
          "type": "uint256"
        },
        {
          "internalType": "uint256",
          "name": "valuesLength",
          "type": "uint256"
        }
      ],
      "name": "ERC1155InvalidArrayLength",
      "type": "error"
    },
    {
      "inputs": [
        {
          "internalType": "address",
          "name": "operator",
          "type": "address"
        }
      ],
      "name": "ERC1155InvalidOperator",
      "type": "error"
    },
    {
      "inputs": [
        {
          "internalType": "address",
          "name": "receiver",
          "type": "address"
        }
      ],
      "name": "ERC1155InvalidReceiver",
      "type": "error"
    },
    {
      "inputs": [
        {
          "internalType": "address",
          "name": "sender",
          "type": "address"
        }
      ],
      "name": "ERC1155InvalidSender",
      "type": "error"
    },
    {
      "inputs": [
        {
          "internalType": "address",
          "name": "operator",
          "type": "address"
        },
        {
          "internalType": "address",
          "name": "owner",
          "type": "address"
        }
      ],
      "name": "ERC1155MissingApprovalForAll",
      "type": "error"
    },
    {
      "inputs": [
        {
          "internalType": "address",
          "name": "owner",
          "type": "address"
        }
      ],
      "name": "OwnableInvalidOwner",
      "type": "error"
    },
    {
      "inputs": [
        {
          "internalType": "address",
          "name": "account",
          "type": "address"
        }
      ],
      "name": "OwnableUnauthorizedAccount",
      "type": "error"
    },
    {
      "anonymous": false,
      "inputs": [
        {
          "indexed": true,
          "internalType": "address",
          "name": "account",
          "type": "address"
        },
        {
          "indexed": true,
          "internalType": "address",
          "name": "operator",
          "type": "address"
        },
        {
          "indexed": false,
          "internalType": "bool",
          "name": "approved",
          "type": "bool"
        }
      ],
      "name": "ApprovalForAll",
      "type": "event"
    },
    {
      "anonymous": false,
      "inputs": [
        {
          "indexed": true,
          "internalType": "address",
          "name": "previousOwner",
          "type": "address"
        },
        {
          "indexed": true,
          "internalType": "address",
          "name": "newOwner",
          "type": "address"
        }
      ],
      "name": "OwnershipTransferred",
      "type": "event"
    },
    {
      "anonymous": false,
      "inputs": [
        {
          "indexed": true,
          "internalType": "address",
          "name": "operator",
          "type": "address"
        },
        {
          "indexed": true,
          "internalType": "address",
          "name": "from",
          "type": "address"
        },
        {
          "indexed": true,
          "internalType": "address",
          "name": "to",
          "type": "address"
        },
        {
          "indexed": false,
          "internalType": "uint256[]",
          "name": "ids",
          "type": "uint256[]"
        },
        {
          "indexed": false,
          "internalType": "uint256[]",
          "name": "values",
          "type": "uint256[]"
        }
      ],
      "name": "TransferBatch",
      "type": "event"
    },
    {
      "anonymous": false,
      "inputs": [
        {
          "indexed": true,
          "internalType": "address",
          "name": "operator",
          "type": "address"
        },
        {
          "indexed": true,
          "internalType": "address",
          "name": "from",
          "type": "address"
        },
        {
          "indexed": true,
          "internalType": "address",
          "name": "to",
          "type": "address"
        },
        {
          "indexed": false,
          "internalType": "uint256",
          "name": "id",
          "type": "uint256"
        },
        {
          "indexed": false,
          "internalType": "uint256",
          "name": "value",
          "type": "uint256"
        }
      ],
      "name": "TransferSingle",
      "type": "event"
    },
    {
      "anonymous": false,
      "inputs": [
        {
          "indexed": false,
          "internalType": "string",
          "name": "value",
          "type": "string"
        },
        {
          "indexed": true,
          "internalType": "uint256",
          "name": "id",
          "type": "uint256"
        }
      ],
      "name": "URI",
      "type": "event"
    },
    {
      "inputs": [
        {
          "internalType": "address",
          "name": "account",
          "type": "address"
        },
        {
          "internalType": "uint256",
          "name": "id",
          "type": "uint256"
        }
      ],
      "name": "balanceOf",
      "outputs": [
        {
          "internalType": "uint256",
          "name": "",
          "type": "uint256"
        }
      ],
      "stateMutability": "view",
      "type": "function"
    },
    {
      "inputs": [
        {
          "internalType": "address[]",
          "name": "accounts",
          "type": "address[]"
        },
        {
          "internalType": "uint256[]",
          "name": "ids",
          "type": "uint256[]"
        }
      ],
      "name": "balanceOfBatch",
      "outputs": [
        {
          "internalType": "uint256[]",
          "name": "",
          "type": "uint256[]"
        }
      ],
      "stateMutability": "view",
      "type": "function"
    },
    {
      "inputs": [
        {
          "internalType": "uint256",
          "name": "id",
          "type": "uint256"
        },
        {
          "internalType": "uint256",
          "name": "amount",
          "type": "uint256"
        },
        {
          "internalType": "address",
          "name": "account",
          "type": "address"
        }
      ],
      "name": "burn",
      "outputs": [],
      "stateMutability": "nonpayable",
      "type": "function"
    },
    {
      "inputs": [
        {
          "internalType": "uint256[]",
          "name": "ids",
          "type": "uint256[]"
        },
        {
          "internalType": "uint256[]",
          "name": "values",
          "type": "uint256[]"
        },
        {
          "internalType": "address",
          "name": "account",
          "type": "address"
        }
      ],
      "name": "burnBatch",
      "outputs": [],
      "stateMutability": "nonpayable",
      "type": "function"
    },
    {
      "inputs": [
        {
          "internalType": "address",
          "name": "account",
          "type": "address"
        },
        {
          "internalType": "address",
          "name": "operator",
          "type": "address"
        }
      ],
      "name": "isApprovedForAll",
      "outputs": [
        {
          "internalType": "bool",
          "name": "",
          "type": "bool"
        }
      ],
      "stateMutability": "view",
      "type": "function"
    },
    {
      "inputs": [
        {
          "internalType": "address",
          "name": "account",
          "type": "address"
        },
        {
          "internalType": "uint256",
          "name": "id",
          "type": "uint256"
        },
        {
          "internalType": "uint256",
          "name": "amount",
          "type": "uint256"
        },
        {
          "internalType": "bytes",
          "name": "data",
          "type": "bytes"
        }
      ],
      "name": "mint",
      "outputs": [],
      "stateMutability": "nonpayable",
      "type": "function"
    },
    {
      "inputs": [
        {
          "internalType": "address",
          "name": "to",
          "type": "address"
        },
        {
          "internalType": "uint256[]",
          "name": "ids",
          "type": "uint256[]"
        },
        {
          "internalType": "uint256[]",
          "name": "amounts",
          "type": "uint256[]"
        },
        {
          "internalType": "bytes",
          "name": "data",
          "type": "bytes"
        }
      ],
      "name": "mintBatch",
      "outputs": [],
      "stateMutability": "nonpayable",
      "type": "function"
    },
    {
      "inputs": [],
      "name": "owner",
      "outputs": [
        {
          "internalType": "address",
          "name": "",
          "type": "address"
        }
      ],
      "stateMutability": "view",
      "type": "function"
    },
    {
      "inputs": [],
      "name": "renounceOwnership",
      "outputs": [],
      "stateMutability": "nonpayable",
      "type": "function"
    },
    {
      "inputs": [
        {
          "internalType": "address",
          "name": "from",
          "type": "address"
        },
        {
          "internalType": "address",
          "name": "to",
          "type": "address"
        },
        {
          "internalType": "uint256[]",
          "name": "ids",
          "type": "uint256[]"
        },
        {
          "internalType": "uint256[]",
          "name": "values",
          "type": "uint256[]"
        },
        {
          "internalType": "bytes",
          "name": "data",
          "type": "bytes"
        }
      ],
      "name": "safeBatchTransferFrom",
      "outputs": [],
      "stateMutability": "nonpayable",
      "type": "function"
    },
    {
      "inputs": [
        {
          "internalType": "address",
          "name": "from",
          "type": "address"
        },
        {
          "internalType": "address",
          "name": "to",
          "type": "address"
        },
        {
          "internalType": "uint256",
          "name": "id",
          "type": "uint256"
        },
        {
          "internalType": "uint256",
          "name": "value",
          "type": "uint256"
        },
        {
          "internalType": "bytes",
          "name": "data",
          "type": "bytes"
        }
      ],
      "name": "safeTransferFrom",
      "outputs": [],
      "stateMutability": "nonpayable",
      "type": "function"
    },
    {
      "inputs": [
        {
          "internalType": "address",
          "name": "operator",
          "type": "address"
        },
        {
          "internalType": "bool",
          "name": "approved",
          "type": "bool"
        }
      ],
      "name": "setApprovalForAll",
      "outputs": [],
      "stateMutability": "nonpayable",
      "type": "function"
    },
    {
      "inputs": [
        {
          "internalType": "string",
          "name": "newuri",
          "type": "string"
        }
      ],
      "name": "setURI",
      "outputs": [],
      "stateMutability": "nonpayable",
      "type": "function"
    },
    {
      "inputs": [
        {
          "internalType": "bytes4",
          "name": "interfaceId",
          "type": "bytes4"
        }
      ],
      "name": "supportsInterface",
      "outputs": [
        {
          "internalType": "bool",
          "name": "",
          "type": "bool"
        }
      ],
      "stateMutability": "view",
      "type": "function"
    },
    {
      "inputs": [
        {
          "internalType": "address",
          "name": "newOwner",
          "type": "address"
        }
      ],
      "name": "transferOwnership",
      "outputs": [],
      "stateMutability": "nonpayable",
      "type": "function"
    },
    {
      "inputs": [
        {
          "internalType": "uint256",
          "name": "",
          "type": "uint256"
        }
      ],
      "name": "uri",
      "outputs": [
        {
          "internalType": "string",
          "name": "",
          "type": "string"
        }
      ],
      "stateMutability": "view",
      "type": "function"
    }
  ],
  "bytecode": "0x60806040523480156200001157600080fd5b506040516200415e3803806200415e833981810160405281019062000037919062000ddd565b80866200004a81620000f260201b60201c565b50600073ffffffffffffffffffffffffffffffffffffffff168173ffffffffffffffffffffffffffffffffffffffff1603620000c05760006040517f1e4fbdf7000000000000000000000000000000000000000000000000000000008152600401620000b7919062000ec8565b60405180910390fd5b620000d1816200010760201b60201c565b50620000e685858585620001cd60201b60201c565b5050505050506200161a565b806002908162000103919062001126565b5050565b6000600360009054906101000a900473ffffffffffffffffffffffffffffffffffffffff16905081600360006101000a81548173ffffffffffffffffffffffffffffffffffffffff021916908373ffffffffffffffffffffffffffffffffffffffff1602179055508173ffffffffffffffffffffffffffffffffffffffff168173ffffffffffffffffffffffffffffffffffffffff167f8be0079c531659141344cd1fd0a4f28419497f9722a3daafe3b4186f6b6457e060405160405180910390a35050565b600073ffffffffffffffffffffffffffffffffffffffff168473ffffffffffffffffffffffffffffffffffffffff1603620002425760006040517f57f447ce00000000000000000000000000000000000000000000000000000000815260040162000239919062000ec8565b60405180910390fd5b6000806200025785856200027960201b60201c565b9150915062000271600087848487620002a960201b60201c565b505050505050565b60608060405191506001825283602083015260408201905060018152826020820152604081016040529250929050565b620002bd858585856200038260201b60201c565b600073ffffffffffffffffffffffffffffffffffffffff168473ffffffffffffffffffffffffffffffffffffffff16146200037b576000620003046200075460201b60201c565b9050600184510362000362576000620003286000866200075c60201b90919060201c565b90506000620003426000866200075c60201b90919060201c565b90506200035a8389898585896200077060201b60201c565b505062000379565b620003788187878787876200093360201b60201c565b5b505b5050505050565b8051825114620003cf57815181516040517f5b059991000000000000000000000000000000000000000000000000000000008152600401620003c69291906200121e565b60405180910390fd5b6000620003e16200075460201b60201c565b905060005b8351811015620006055760006200040782866200075c60201b90919060201c565b905060006200042083866200075c60201b90919060201c565b9050600073ffffffffffffffffffffffffffffffffffffffff168873ffffffffffffffffffffffffffffffffffffffff16146200055157600080600084815260200190815260200160002060008a73ffffffffffffffffffffffffffffffffffffffff1673ffffffffffffffffffffffffffffffffffffffff16815260200190815260200160002054905081811015620004f957888183856040517f03dee4c5000000000000000000000000000000000000000000000000000000008152600401620004f094939291906200124b565b60405180910390fd5b81810360008085815260200190815260200160002060008b73ffffffffffffffffffffffffffffffffffffffff1673ffffffffffffffffffffffffffffffffffffffff16815260200190815260200160002081905550505b600073ffffffffffffffffffffffffffffffffffffffff168773ffffffffffffffffffffffffffffffffffffffff1614620005ef578060008084815260200190815260200160002060008973ffffffffffffffffffffffffffffffffffffffff1673ffffffffffffffffffffffffffffffffffffffff1681526020019081526020016000206000828254620005e79190620012c7565b925050819055505b505080620005fd9062001302565b9050620003e6565b506001835103620006cc576000620006286000856200075c60201b90919060201c565b90506000620006426000856200075c60201b90919060201c565b90508573ffffffffffffffffffffffffffffffffffffffff168773ffffffffffffffffffffffffffffffffffffffff168473ffffffffffffffffffffffffffffffffffffffff167fc3d58168c5ae7397731d063d5bbf3d657854427343f4c083240f7aacaa2d0f628585604051620006bc9291906200121e565b60405180910390a450506200074d565b8373ffffffffffffffffffffffffffffffffffffffff168573ffffffffffffffffffffffffffffffffffffffff168273ffffffffffffffffffffffffffffffffffffffff167f4a39dc06d4c0dbc64b70af90fd698a233a518aa5d07e595d983b8c0526c8f7fb8686604051620007449291906200141d565b60405180910390a45b5050505050565b600033905090565b600060208202602084010151905092915050565b60008473ffffffffffffffffffffffffffffffffffffffff163b11156200092b578373ffffffffffffffffffffffffffffffffffffffff1663f23a6e6187878686866040518663ffffffff1660e01b8152600401620007d4959493929190620014b5565b6020604051808303816000875af19250505080156200081357506040513d601f19601f8201168201806040525081019062000810919062001576565b60015b6200089d573d806000811462000846576040519150601f19603f3d011682016040523d82523d6000602084013e6200084b565b606091505b5060008151036200089557846040517f57f447ce0000000000000000000000000000000000000000000000000000000081526004016200088c919062000ec8565b60405180910390fd5b805181602001fd5b63f23a6e6160e01b7bffffffffffffffffffffffffffffffffffffffffffffffffffffffff1916817bffffffffffffffffffffffffffffffffffffffffffffffffffffffff1916146200092957846040517f57f447ce00000000000000000000000000000000000000000000000000000000815260040162000920919062000ec8565b60405180910390fd5b505b505050505050565b60008473ffffffffffffffffffffffffffffffffffffffff163b111562000aee578373ffffffffffffffffffffffffffffffffffffffff1663bc197c8187878686866040518663ffffffff1660e01b815260040162000997959493929190620015a8565b6020604051808303816000875af1925050508015620009d657506040513d601f19601f82011682018060405250810190620009d3919062001576565b60015b62000a60573d806000811462000a09576040519150601f19603f3d011682016040523d82523d6000602084013e62000a0e565b606091505b50600081510362000a5857846040517f57f447ce00000000000000000000000000000000000000000000000000000000815260040162000a4f919062000ec8565b60405180910390fd5b805181602001fd5b63bc197c8160e01b7bffffffffffffffffffffffffffffffffffffffffffffffffffffffff1916817bffffffffffffffffffffffffffffffffffffffffffffffffffffffff19161462000aec57846040517f57f447ce00000000000000000000000000000000000000000000000000000000815260040162000ae3919062000ec8565b60405180910390fd5b505b505050505050565b6000604051905090565b600080fd5b600080fd5b600080fd5b600080fd5b6000601f19601f8301169050919050565b7f4e487b7100000000000000000000000000000000000000000000000000000000600052604160045260246000fd5b62000b5f8262000b14565b810181811067ffffffffffffffff8211171562000b815762000b8062000b25565b5b80604052505050565b600062000b9662000af6565b905062000ba4828262000b54565b919050565b600067ffffffffffffffff82111562000bc75762000bc662000b25565b5b62000bd28262000b14565b9050602081019050919050565b60005b8381101562000bff57808201518184015260208101905062000be2565b60008484015250505050565b600062000c2262000c1c8462000ba9565b62000b8a565b90508281526020810184848401111562000c415762000c4062000b0f565b5b62000c4e84828562000bdf565b509392505050565b600082601f83011262000c6e5762000c6d62000b0a565b5b815162000c8084826020860162000c0b565b91505092915050565b600073ffffffffffffffffffffffffffffffffffffffff82169050919050565b600062000cb68262000c89565b9050919050565b62000cc88162000ca9565b811462000cd457600080fd5b50565b60008151905062000ce88162000cbd565b92915050565b6000819050919050565b62000d038162000cee565b811462000d0f57600080fd5b50565b60008151905062000d238162000cf8565b92915050565b600067ffffffffffffffff82111562000d475762000d4662000b25565b5b62000d528262000b14565b9050602081019050919050565b600062000d7662000d708462000d29565b62000b8a565b90508281526020810184848401111562000d955762000d9462000b0f565b5b62000da284828562000bdf565b509392505050565b600082601f83011262000dc25762000dc162000b0a565b5b815162000dd484826020860162000d5f565b91505092915050565b60008060008060008060c0878903121562000dfd5762000dfc62000b00565b5b600087015167ffffffffffffffff81111562000e1e5762000e1d62000b05565b5b62000e2c89828a0162000c56565b965050602062000e3f89828a0162000cd7565b955050604062000e5289828a0162000d12565b945050606062000e6589828a0162000d12565b935050608087015167ffffffffffffffff81111562000e895762000e8862000b05565b5b62000e9789828a0162000daa565b92505060a062000eaa89828a0162000cd7565b9150509295509295509295565b62000ec28162000ca9565b82525050565b600060208201905062000edf600083018462000eb7565b92915050565b600081519050919050565b7f4e487b7100000000000000000000000000000000000000000000000000000000600052602260045260246000fd5b6000600282049050600182168062000f3857607f821691505b60208210810362000f4e5762000f4d62000ef0565b5b50919050565b60008190508160005260206000209050919050565b60006020601f8301049050919050565b600082821b905092915050565b60006008830262000fb87fffffffffffffffffffffffffffffffffffffffffffffffffffffffffffffffff8262000f79565b62000fc4868362000f79565b95508019841693508086168417925050509392505050565b6000819050919050565b6000620010076200100162000ffb8462000cee565b62000fdc565b62000cee565b9050919050565b6000819050919050565b620010238362000fe6565b6200103b62001032826200100e565b84845462000f86565b825550505050565b600090565b6200105262001043565b6200105f81848462001018565b505050565b5b8181101562001087576200107b60008262001048565b60018101905062001065565b5050565b601f821115620010d657620010a08162000f54565b620010ab8462000f69565b81016020851015620010bb578190505b620010d3620010ca8562000f69565b83018262001064565b50505b505050565b600082821c905092915050565b6000620010fb60001984600802620010db565b1980831691505092915050565b6000620011168383620010e8565b9150826002028217905092915050565b620011318262000ee5565b67ffffffffffffffff8111156200114d576200114c62000b25565b5b62001159825462000f1f565b620011668282856200108b565b600060209050601f8311600181146200119e576000841562001189578287015190505b62001195858262001108565b86555062001205565b601f198416620011ae8662000f54565b60005b82811015620011d857848901518255600182019150602085019450602081019050620011b1565b86831015620011f85784890151620011f4601f891682620010e8565b8355505b6001600288020188555050505b505050505050565b620012188162000cee565b82525050565b60006040820190506200123560008301856200120d565b6200124460208301846200120d565b9392505050565b600060808201905062001262600083018762000eb7565b6200127160208301866200120d565b6200128060408301856200120d565b6200128f60608301846200120d565b95945050505050565b7f4e487b7100000000000000000000000000000000000000000000000000000000600052601160045260246000fd5b6000620012d48262000cee565b9150620012e18362000cee565b9250828201905080821115620012fc57620012fb62001298565b5b92915050565b60006200130f8262000cee565b91507fffffffffffffffffffffffffffffffffffffffffffffffffffffffffffffffff820362001344576200134362001298565b5b600182019050919050565b600081519050919050565b600082825260208201905092915050565b6000819050602082019050919050565b620013868162000cee565b82525050565b60006200139a83836200137b565b60208301905092915050565b6000602082019050919050565b6000620013c0826200134f565b620013cc81856200135a565b9350620013d9836200136b565b8060005b8381101562001410578151620013f488826200138c565b97506200140183620013a6565b925050600181019050620013dd565b5085935050505092915050565b60006040820190508181036000830152620014398185620013b3565b905081810360208301526200144f8184620013b3565b90509392505050565b600081519050919050565b600082825260208201905092915050565b6000620014818262001458565b6200148d818562001463565b93506200149f81856020860162000bdf565b620014aa8162000b14565b840191505092915050565b600060a082019050620014cc600083018862000eb7565b620014db602083018762000eb7565b620014ea60408301866200120d565b620014f960608301856200120d565b81810360808301526200150d818462001474565b90509695505050505050565b60007fffffffff0000000000000000000000000000000000000000000000000000000082169050919050565b620015508162001519565b81146200155c57600080fd5b50565b600081519050620015708162001545565b92915050565b6000602082840312156200158f576200158e62000b00565b5b60006200159f848285016200155f565b91505092915050565b600060a082019050620015bf600083018862000eb7565b620015ce602083018762000eb7565b8181036040830152620015e28186620013b3565b90508181036060830152620015f88185620013b3565b905081810360808301526200160e818462001474565b90509695505050505050565b612b34806200162a6000396000f3fe608060405234801561001057600080fd5b50600436106100ff5760003560e01c8063715018a611610097578063a22cb46511610066578063a22cb46514610294578063e985e9c5146102b0578063f242432a146102e0578063f2fde38b146102fc576100ff565b8063715018a614610234578063731133e91461023e578063749388c41461025a5780638da5cb5b14610276576100ff565b80631e29135b116100d35780631e29135b146101b05780631f7fdffa146101cc5780632eb2c2d6146101e85780634e1273f414610204576100ff565b8062fdd58e1461010457806301ffc9a71461013457806302fe5305146101645780630e89341c14610180575b600080fd5b61011e60048036038101906101199190611994565b610318565b60405161012b91906119e3565b60405180910390f35b61014e60048036038101906101499190611a56565b610372565b60405161015b9190611a9e565b60405180910390f35b61017e60048036038101906101799190611bff565b610454565b005b61019a60048036038101906101959190611c48565b610468565b6040516101a79190611cf4565b60405180910390f35b6101ca60048036038101906101c59190611dde565b6104fc565b005b6101e660048036038101906101e19190611f0a565b610514565b005b61020260048036038101906101fd9190611fc5565b61052e565b005b61021e60048036038101906102199190612157565b6105d6565b60405161022b919061228d565b60405180910390f35b61023c6106e5565b005b610258600480360381019061025391906122af565b6106f9565b005b610274600480360381019061026f9190612332565b610713565b005b61027e61072b565b60405161028b9190612394565b60405180910390f35b6102ae60048036038101906102a991906123db565b610755565b005b6102ca60048036038101906102c5919061241b565b61076b565b6040516102d79190611a9e565b60405180910390f35b6102fa60048036038101906102f5919061245b565b6107ff565b005b610316600480360381019061031191906124f2565b6108a7565b005b600080600083815260200190815260200160002060008473ffffffffffffffffffffffffffffffffffffffff1673ffffffffffffffffffffffffffffffffffffffff16815260200190815260200160002054905092915050565b60007fd9b67a26000000000000000000000000000000000000000000000000000000007bffffffffffffffffffffffffffffffffffffffffffffffffffffffff1916827bffffffffffffffffffffffffffffffffffffffffffffffffffffffff1916148061043d57507f0e89341c000000000000000000000000000000000000000000000000000000007bffffffffffffffffffffffffffffffffffffffffffffffffffffffff1916827bffffffffffffffffffffffffffffffffffffffffffffffffffffffff1916145b8061044d575061044c8261092d565b5b9050919050565b61045c610997565b61046581610a1e565b50565b6060600280546104779061254e565b80601f01602080910402602001604051908101604052809291908181526020018280546104a39061254e565b80156104f05780601f106104c5576101008083540402835291602001916104f0565b820191906000526020600020905b8154815290600101906020018083116104d357829003601f168201915b50505050509050919050565b610504610997565b61050f818484610a31565b505050565b61051c610997565b61052884848484610ac5565b50505050565b6000610538610b4b565b90508073ffffffffffffffffffffffffffffffffffffffff168673ffffffffffffffffffffffffffffffffffffffff161415801561057d575061057b868261076b565b155b156105c15780866040517fe237d9220000000000000000000000000000000000000000000000000000000081526004016105b892919061257f565b60405180910390fd5b6105ce8686868686610b53565b505050505050565b6060815183511461062257815183516040517f5b0599910000000000000000000000000000000000000000000000000000000081526004016106199291906125a8565b60405180910390fd5b6000835167ffffffffffffffff81111561063f5761063e611ad4565b5b60405190808252806020026020018201604052801561066d5781602001602082028036833780820191505090505b50905060005b84518110156106da576106aa6106928287610c4b90919063ffffffff16565b6106a58387610c5f90919063ffffffff16565b610318565b8282815181106106bd576106bc6125d1565b5b602002602001018181525050806106d39061262f565b9050610673565b508091505092915050565b6106ed610997565b6106f76000610c73565b565b610701610997565b61070d84848484610d39565b50505050565b61071b610997565b610726818484610dd2565b505050565b6000600360009054906101000a900473ffffffffffffffffffffffffffffffffffffffff16905090565b610767610760610b4b565b8383610e79565b5050565b6000600160008473ffffffffffffffffffffffffffffffffffffffff1673ffffffffffffffffffffffffffffffffffffffff16815260200190815260200160002060008373ffffffffffffffffffffffffffffffffffffffff1673ffffffffffffffffffffffffffffffffffffffff16815260200190815260200160002060009054906101000a900460ff16905092915050565b6000610809610b4b565b90508073ffffffffffffffffffffffffffffffffffffffff168673ffffffffffffffffffffffffffffffffffffffff161415801561084e575061084c868261076b565b155b156108925780866040517fe237d92200000000000000000000000000000000000000000000000000000000815260040161088992919061257f565b60405180910390fd5b61089f8686868686610fe9565b505050505050565b6108af610997565b600073ffffffffffffffffffffffffffffffffffffffff168173ffffffffffffffffffffffffffffffffffffffff16036109215760006040517f1e4fbdf70000000000000000000000000000000000000000000000000000000081526004016109189190612394565b60405180910390fd5b61092a81610c73565b50565b60007f01ffc9a7000000000000000000000000000000000000000000000000000000007bffffffffffffffffffffffffffffffffffffffffffffffffffffffff1916827bffffffffffffffffffffffffffffffffffffffffffffffffffffffff1916149050919050565b61099f610b4b565b73ffffffffffffffffffffffffffffffffffffffff166109bd61072b565b73ffffffffffffffffffffffffffffffffffffffff1614610a1c576109e0610b4b565b6040517f118cdaa7000000000000000000000000000000000000000000000000000000008152600401610a139190612394565b60405180910390fd5b565b8060029081610a2d9190612823565b5050565b600073ffffffffffffffffffffffffffffffffffffffff168373ffffffffffffffffffffffffffffffffffffffff1603610aa35760006040517f01a83514000000000000000000000000000000000000000000000000000000008152600401610a9a9190612394565b60405180910390fd5b610ac08360008484604051806020016040528060008152506110f4565b505050565b600073ffffffffffffffffffffffffffffffffffffffff168473ffffffffffffffffffffffffffffffffffffffff1603610b375760006040517f57f447ce000000000000000000000000000000000000000000000000000000008152600401610b2e9190612394565b60405180910390fd5b610b456000858585856110f4565b50505050565b600033905090565b600073ffffffffffffffffffffffffffffffffffffffff168473ffffffffffffffffffffffffffffffffffffffff1603610bc55760006040517f57f447ce000000000000000000000000000000000000000000000000000000008152600401610bbc9190612394565b60405180910390fd5b600073ffffffffffffffffffffffffffffffffffffffff168573ffffffffffffffffffffffffffffffffffffffff1603610c375760006040517f01a83514000000000000000000000000000000000000000000000000000000008152600401610c2e9190612394565b60405180910390fd5b610c4485858585856110f4565b5050505050565b600060208202602084010151905092915050565b600060208202602084010151905092915050565b6000600360009054906101000a900473ffffffffffffffffffffffffffffffffffffffff16905081600360006101000a81548173ffffffffffffffffffffffffffffffffffffffff021916908373ffffffffffffffffffffffffffffffffffffffff1602179055508173ffffffffffffffffffffffffffffffffffffffff168173ffffffffffffffffffffffffffffffffffffffff167f8be0079c531659141344cd1fd0a4f28419497f9722a3daafe3b4186f6b6457e060405160405180910390a35050565b600073ffffffffffffffffffffffffffffffffffffffff168473ffffffffffffffffffffffffffffffffffffffff1603610dab5760006040517f57f447ce000000000000000000000000000000000000000000000000000000008152600401610da29190612394565b60405180910390fd5b600080610db885856111a6565b91509150610dca6000878484876110f4565b505050505050565b600073ffffffffffffffffffffffffffffffffffffffff168373ffffffffffffffffffffffffffffffffffffffff1603610e445760006040517f01a83514000000000000000000000000000000000000000000000000000000008152600401610e3b9190612394565b60405180910390fd5b600080610e5184846111a6565b91509150610e728560008484604051806020016040528060008152506110f4565b5050505050565b600073ffffffffffffffffffffffffffffffffffffffff168273ffffffffffffffffffffffffffffffffffffffff1603610eeb5760006040517fced3e100000000000000000000000000000000000000000000000000000000008152600401610ee29190612394565b60405180910390fd5b80600160008573ffffffffffffffffffffffffffffffffffffffff1673ffffffffffffffffffffffffffffffffffffffff16815260200190815260200160002060008473ffffffffffffffffffffffffffffffffffffffff1673ffffffffffffffffffffffffffffffffffffffff16815260200190815260200160002060006101000a81548160ff0219169083151502179055508173ffffffffffffffffffffffffffffffffffffffff168373ffffffffffffffffffffffffffffffffffffffff167f17307eab39ab6107e8899845ad3d59bd9653f200f220920489ca2b5937696c3183604051610fdc9190611a9e565b60405180910390a3505050565b600073ffffffffffffffffffffffffffffffffffffffff168473ffffffffffffffffffffffffffffffffffffffff160361105b5760006040517f57f447ce0000000000000000000000000000000000000000000000000000000081526004016110529190612394565b60405180910390fd5b600073ffffffffffffffffffffffffffffffffffffffff168573ffffffffffffffffffffffffffffffffffffffff16036110cd5760006040517f01a835140000000000000000000000000000000000000000000000000000000081526004016110c49190612394565b60405180910390fd5b6000806110da85856111a6565b915091506110eb87878484876110f4565b50505050505050565b611100858585856111d6565b600073ffffffffffffffffffffffffffffffffffffffff168473ffffffffffffffffffffffffffffffffffffffff161461119f57600061113e610b4b565b9050600184510361118e57600061115f600086610c5f90919063ffffffff16565b90506000611177600086610c5f90919063ffffffff16565b9050611187838989858589611584565b505061119d565b61119c818787878787611738565b5b505b5050505050565b60608060405191506001825283602083015260408201905060018152826020820152604081016040529250929050565b805182511461122057815181516040517f5b0599910000000000000000000000000000000000000000000000000000000081526004016112179291906125a8565b60405180910390fd5b600061122a610b4b565b905060005b835181101561143f57600061124d8286610c5f90919063ffffffff16565b905060006112648386610c5f90919063ffffffff16565b9050600073ffffffffffffffffffffffffffffffffffffffff168873ffffffffffffffffffffffffffffffffffffffff161461139157600080600084815260200190815260200160002060008a73ffffffffffffffffffffffffffffffffffffffff1673ffffffffffffffffffffffffffffffffffffffff1681526020019081526020016000205490508181101561133957888183856040517f03dee4c500000000000000000000000000000000000000000000000000000000815260040161133094939291906128f5565b60405180910390fd5b81810360008085815260200190815260200160002060008b73ffffffffffffffffffffffffffffffffffffffff1673ffffffffffffffffffffffffffffffffffffffff16815260200190815260200160002081905550505b600073ffffffffffffffffffffffffffffffffffffffff168773ffffffffffffffffffffffffffffffffffffffff161461142c578060008084815260200190815260200160002060008973ffffffffffffffffffffffffffffffffffffffff1673ffffffffffffffffffffffffffffffffffffffff1681526020019081526020016000206000828254611424919061293a565b925050819055505b5050806114389061262f565b905061122f565b5060018351036114fe57600061145f600085610c5f90919063ffffffff16565b90506000611477600085610c5f90919063ffffffff16565b90508573ffffffffffffffffffffffffffffffffffffffff168773ffffffffffffffffffffffffffffffffffffffff168473ffffffffffffffffffffffffffffffffffffffff167fc3d58168c5ae7397731d063d5bbf3d657854427343f4c083240f7aacaa2d0f6285856040516114ef9291906125a8565b60405180910390a4505061157d565b8373ffffffffffffffffffffffffffffffffffffffff168573ffffffffffffffffffffffffffffffffffffffff168273ffffffffffffffffffffffffffffffffffffffff167f4a39dc06d4c0dbc64b70af90fd698a233a518aa5d07e595d983b8c0526c8f7fb868660405161157492919061296e565b60405180910390a45b5050505050565b60008473ffffffffffffffffffffffffffffffffffffffff163b1115611730578373ffffffffffffffffffffffffffffffffffffffff1663f23a6e6187878686866040518663ffffffff1660e01b81526004016115e59594939291906129fa565b6020604051808303816000875af192505050801561162157506040513d601f19601f8201168201806040525081019061161e9190612a69565b60015b6116a5573d8060008114611651576040519150601f19603f3d011682016040523d82523d6000602084013e611656565b606091505b50600081510361169d57846040517f57f447ce0000000000000000000000000000000000000000000000000000000081526004016116949190612394565b60405180910390fd5b805181602001fd5b63f23a6e6160e01b7bffffffffffffffffffffffffffffffffffffffffffffffffffffffff1916817bffffffffffffffffffffffffffffffffffffffffffffffffffffffff19161461172e57846040517f57f447ce0000000000000000000000000000000000000000000000000000000081526004016117259190612394565b60405180910390fd5b505b505050505050565b60008473ffffffffffffffffffffffffffffffffffffffff163b11156118e4578373ffffffffffffffffffffffffffffffffffffffff1663bc197c8187878686866040518663ffffffff1660e01b8152600401611799959493929190612a96565b6020604051808303816000875af19250505080156117d557506040513d601f19601f820116820180604052508101906117d29190612a69565b60015b611859573d8060008114611805576040519150601f19603f3d011682016040523d82523d6000602084013e61180a565b606091505b50600081510361185157846040517f57f447ce0000000000000000000000000000000000000000000000000000000081526004016118489190612394565b60405180910390fd5b805181602001fd5b63bc197c8160e01b7bffffffffffffffffffffffffffffffffffffffffffffffffffffffff1916817bffffffffffffffffffffffffffffffffffffffffffffffffffffffff1916146118e257846040517f57f447ce0000000000000000000000000000000000000000000000000000000081526004016118d99190612394565b60405180910390fd5b505b505050505050565b6000604051905090565b600080fd5b600080fd5b600073ffffffffffffffffffffffffffffffffffffffff82169050919050565b600061192b82611900565b9050919050565b61193b81611920565b811461194657600080fd5b50565b60008135905061195881611932565b92915050565b6000819050919050565b6119718161195e565b811461197c57600080fd5b50565b60008135905061198e81611968565b92915050565b600080604083850312156119ab576119aa6118f6565b5b60006119b985828601611949565b92505060206119ca8582860161197f565b9150509250929050565b6119dd8161195e565b82525050565b60006020820190506119f860008301846119d4565b92915050565b60007fffffffff0000000000000000000000000000000000000000000000000000000082169050919050565b611a33816119fe565b8114611a3e57600080fd5b50565b600081359050611a5081611a2a565b92915050565b600060208284031215611a6c57611a6b6118f6565b5b6000611a7a84828501611a41565b91505092915050565b60008115159050919050565b611a9881611a83565b82525050565b6000602082019050611ab36000830184611a8f565b92915050565b600080fd5b600080fd5b6000601f19601f8301169050919050565b7f4e487b7100000000000000000000000000000000000000000000000000000000600052604160045260246000fd5b611b0c82611ac3565b810181811067ffffffffffffffff82111715611b2b57611b2a611ad4565b5b80604052505050565b6000611b3e6118ec565b9050611b4a8282611b03565b919050565b600067ffffffffffffffff821115611b6a57611b69611ad4565b5b611b7382611ac3565b9050602081019050919050565b82818337600083830152505050565b6000611ba2611b9d84611b4f565b611b34565b905082815260208101848484011115611bbe57611bbd611abe565b5b611bc9848285611b80565b509392505050565b600082601f830112611be657611be5611ab9565b5b8135611bf6848260208601611b8f565b91505092915050565b600060208284031215611c1557611c146118f6565b5b600082013567ffffffffffffffff811115611c3357611c326118fb565b5b611c3f84828501611bd1565b91505092915050565b600060208284031215611c5e57611c5d6118f6565b5b6000611c6c8482850161197f565b91505092915050565b600081519050919050565b600082825260208201905092915050565b60005b83811015611caf578082015181840152602081019050611c94565b60008484015250505050565b6000611cc682611c75565b611cd08185611c80565b9350611ce0818560208601611c91565b611ce981611ac3565b840191505092915050565b60006020820190508181036000830152611d0e8184611cbb565b905092915050565b600067ffffffffffffffff821115611d3157611d30611ad4565b5b602082029050602081019050919050565b600080fd5b6000611d5a611d5584611d16565b611b34565b90508083825260208201905060208402830185811115611d7d57611d7c611d42565b5b835b81811015611da65780611d92888261197f565b845260208401935050602081019050611d7f565b5050509392505050565b600082601f830112611dc557611dc4611ab9565b5b8135611dd5848260208601611d47565b91505092915050565b600080600060608486031215611df757611df66118f6565b5b600084013567ffffffffffffffff811115611e1557611e146118fb565b5b611e2186828701611db0565b935050602084013567ffffffffffffffff811115611e4257611e416118fb565b5b611e4e86828701611db0565b9250506040611e5f86828701611949565b9150509250925092565b600067ffffffffffffffff821115611e8457611e83611ad4565b5b611e8d82611ac3565b9050602081019050919050565b6000611ead611ea884611e69565b611b34565b905082815260208101848484011115611ec957611ec8611abe565b5b611ed4848285611b80565b509392505050565b600082601f830112611ef157611ef0611ab9565b5b8135611f01848260208601611e9a565b91505092915050565b60008060008060808587031215611f2457611f236118f6565b5b6000611f3287828801611949565b945050602085013567ffffffffffffffff811115611f5357611f526118fb565b5b611f5f87828801611db0565b935050604085013567ffffffffffffffff811115611f8057611f7f6118fb565b5b611f8c87828801611db0565b925050606085013567ffffffffffffffff811115611fad57611fac6118fb565b5b611fb987828801611edc565b91505092959194509250565b600080600080600060a08688031215611fe157611fe06118f6565b5b6000611fef88828901611949565b955050602061200088828901611949565b945050604086013567ffffffffffffffff811115612021576120206118fb565b5b61202d88828901611db0565b935050606086013567ffffffffffffffff81111561204e5761204d6118fb565b5b61205a88828901611db0565b925050608086013567ffffffffffffffff81111561207b5761207a6118fb565b5b61208788828901611edc565b9150509295509295909350565b600067ffffffffffffffff8211156120af576120ae611ad4565b5b602082029050602081019050919050565b60006120d36120ce84612094565b611b34565b905080838252602082019050602084028301858111156120f6576120f5611d42565b5b835b8181101561211f578061210b8882611949565b8452602084019350506020810190506120f8565b5050509392505050565b600082601f83011261213e5761213d611ab9565b5b813561214e8482602086016120c0565b91505092915050565b6000806040838503121561216e5761216d6118f6565b5b600083013567ffffffffffffffff81111561218c5761218b6118fb565b5b61219885828601612129565b925050602083013567ffffffffffffffff8111156121b9576121b86118fb565b5b6121c585828601611db0565b9150509250929050565b600081519050919050565b600082825260208201905092915050565b6000819050602082019050919050565b6122048161195e565b82525050565b600061221683836121fb565b60208301905092915050565b6000602082019050919050565b600061223a826121cf565b61224481856121da565b935061224f836121eb565b8060005b83811015612280578151612267888261220a565b975061227283612222565b925050600181019050612253565b5085935050505092915050565b600060208201905081810360008301526122a7818461222f565b905092915050565b600080600080608085870312156122c9576122c86118f6565b5b60006122d787828801611949565b94505060206122e88782880161197f565b93505060406122f98782880161197f565b925050606085013567ffffffffffffffff81111561231a576123196118fb565b5b61232687828801611edc565b91505092959194509250565b60008060006060848603121561234b5761234a6118f6565b5b60006123598682870161197f565b935050602061236a8682870161197f565b925050604061237b86828701611949565b9150509250925092565b61238e81611920565b82525050565b60006020820190506123a96000830184612385565b92915050565b6123b881611a83565b81146123c357600080fd5b50565b6000813590506123d5816123af565b92915050565b600080604083850312156123f2576123f16118f6565b5b600061240085828601611949565b9250506020612411858286016123c6565b9150509250929050565b60008060408385031215612432576124316118f6565b5b600061244085828601611949565b925050602061245185828601611949565b9150509250929050565b600080600080600060a08688031215612477576124766118f6565b5b600061248588828901611949565b955050602061249688828901611949565b94505060406124a78882890161197f565b93505060606124b88882890161197f565b925050608086013567ffffffffffffffff8111156124d9576124d86118fb565b5b6124e588828901611edc565b9150509295509295909350565b600060208284031215612508576125076118f6565b5b600061251684828501611949565b91505092915050565b7f4e487b7100000000000000000000000000000000000000000000000000000000600052602260045260246000fd5b6000600282049050600182168061256657607f821691505b6020821081036125795761257861251f565b5b50919050565b60006040820190506125946000830185612385565b6125a16020830184612385565b9392505050565b60006040820190506125bd60008301856119d4565b6125ca60208301846119d4565b9392505050565b7f4e487b7100000000000000000000000000000000000000000000000000000000600052603260045260246000fd5b7f4e487b7100000000000000000000000000000000000000000000000000000000600052601160045260246000fd5b600061263a8261195e565b91507fffffffffffffffffffffffffffffffffffffffffffffffffffffffffffffffff820361266c5761266b612600565b5b600182019050919050565b60008190508160005260206000209050919050565b60006020601f8301049050919050565b600082821b905092915050565b6000600883026126d97fffffffffffffffffffffffffffffffffffffffffffffffffffffffffffffffff8261269c565b6126e3868361269c565b95508019841693508086168417925050509392505050565b6000819050919050565b600061272061271b6127168461195e565b6126fb565b61195e565b9050919050565b6000819050919050565b61273a83612705565b61274e61274682612727565b8484546126a9565b825550505050565b600090565b612763612756565b61276e818484612731565b505050565b5b818110156127925761278760008261275b565b600181019050612774565b5050565b601f8211156127d7576127a881612677565b6127b18461268c565b810160208510156127c0578190505b6127d46127cc8561268c565b830182612773565b50505b505050565b600082821c905092915050565b60006127fa600019846008026127dc565b1980831691505092915050565b600061281383836127e9565b9150826002028217905092915050565b61282c82611c75565b67ffffffffffffffff81111561284557612844611ad4565b5b61284f825461254e565b61285a828285612796565b600060209050601f83116001811461288d576000841561287b578287015190505b6128858582612807565b8655506128ed565b601f19841661289b86612677565b60005b828110156128c35784890151825560018201915060208501945060208101905061289e565b868310156128e057848901516128dc601f8916826127e9565b8355505b6001600288020188555050505b505050505050565b600060808201905061290a6000830187612385565b61291760208301866119d4565b61292460408301856119d4565b61293160608301846119d4565b95945050505050565b60006129458261195e565b91506129508361195e565b925082820190508082111561296857612967612600565b5b92915050565b60006040820190508181036000830152612988818561222f565b9050818103602083015261299c818461222f565b90509392505050565b600081519050919050565b600082825260208201905092915050565b60006129cc826129a5565b6129d681856129b0565b93506129e6818560208601611c91565b6129ef81611ac3565b840191505092915050565b600060a082019050612a0f6000830188612385565b612a1c6020830187612385565b612a2960408301866119d4565b612a3660608301856119d4565b8181036080830152612a4881846129c1565b90509695505050505050565b600081519050612a6381611a2a565b92915050565b600060208284031215612a7f57612a7e6118f6565b5b6000612a8d84828501612a54565b91505092915050565b600060a082019050612aab6000830188612385565b612ab86020830187612385565b8181036040830152612aca818661222f565b90508181036060830152612ade818561222f565b90508181036080830152612af281846129c1565b9050969550505050505056fea2646970667358221220a52d3055407d0a95e5b244162313b976c8c7285d76eeef6b7ab3f03b251ee48964736f6c63430008140033",
  "linkReferences": {},
  "deployedLinkReferences": {}
}