{
  "_format": "hh-sol-artifact-1",
  "contractName": "PausableInflation",
  "sourceName": "contracts/PauseableInflation.sol",
  "abi": [
    {
      "inputs": [
        {
          "internalType": "string",
          "name": "name",
          "type": "string"
        },
        {
          "internalType": "string",
          "name": "symbol_",
          "type": "string"
        },
        {
          "internalType": "address",
          "name": "initialOwner",
          "type": "address"
        }
      ],
      "stateMutability": "nonpayable",
      "type": "constructor"
    },
    {
      "inputs": [
        {
          "internalType": "address",
          "name": "spender",
          "type": "address"
        },
        {
          "internalType": "uint256",
          "name": "allowance",
          "type": "uint256"
        },
        {
          "internalType": "uint256",
          "name": "needed",
          "type": "uint256"
        }
      ],
      "name": "ERC20InsufficientAllowance",
      "type": "error"
    },
    {
      "inputs": [
        {
          "internalType": "address",
          "name": "sender",
          "type": "address"
        },
        {
          "internalType": "uint256",
          "name": "balance",
          "type": "uint256"
        },
        {
          "internalType": "uint256",
          "name": "needed",
          "type": "uint256"
        }
      ],
      "name": "ERC20InsufficientBalance",
      "type": "error"
    },
    {
      "inputs": [
        {
          "internalType": "address",
          "name": "approver",
          "type": "address"
        }
      ],
      "name": "ERC20InvalidApprover",
      "type": "error"
    },
    {
      "inputs": [
        {
          "internalType": "address",
          "name": "receiver",
          "type": "address"
        }
      ],
      "name": "ERC20InvalidReceiver",
      "type": "error"
    },
    {
      "inputs": [
        {
          "internalType": "address",
          "name": "sender",
          "type": "address"
        }
      ],
      "name": "ERC20InvalidSender",
      "type": "error"
    },
    {
      "inputs": [
        {
          "internalType": "address",
          "name": "spender",
          "type": "address"
        }
      ],
      "name": "ERC20InvalidSpender",
      "type": "error"
    },
    {
      "inputs": [],
      "name": "EnforcedPause",
      "type": "error"
    },
    {
      "inputs": [],
      "name": "ExpectedPause",
      "type": "error"
    },
    {
      "inputs": [
        {
          "internalType": "address",
          "name": "owner",
          "type": "address"
        }
      ],
      "name": "OwnableInvalidOwner",
      "type": "error"
    },
    {
      "inputs": [
        {
          "internalType": "address",
          "name": "account",
          "type": "address"
        }
      ],
      "name": "OwnableUnauthorizedAccount",
      "type": "error"
    },
    {
      "anonymous": false,
      "inputs": [
        {
          "indexed": true,
          "internalType": "address",
          "name": "owner",
          "type": "address"
        },
        {
          "indexed": true,
          "internalType": "address",
          "name": "spender",
          "type": "address"
        },
        {
          "indexed": false,
          "internalType": "uint256",
          "name": "value",
          "type": "uint256"
        }
      ],
      "name": "Approval",
      "type": "event"
    },
    {
      "anonymous": false,
      "inputs": [
        {
          "indexed": true,
          "internalType": "address",
          "name": "previousOwner",
          "type": "address"
        },
        {
          "indexed": true,
          "internalType": "address",
          "name": "newOwner",
          "type": "address"
        }
      ],
      "name": "OwnershipTransferred",
      "type": "event"
    },
    {
      "anonymous": false,
      "inputs": [
        {
          "indexed": false,
          "internalType": "address",
          "name": "account",
          "type": "address"
        }
      ],
      "name": "Paused",
      "type": "event"
    },
    {
      "anonymous": false,
      "inputs": [
        {
          "indexed": true,
          "internalType": "address",
          "name": "from",
          "type": "address"
        },
        {
          "indexed": true,
          "internalType": "address",
          "name": "to",
          "type": "address"
        },
        {
          "indexed": false,
          "internalType": "uint256",
          "name": "value",
          "type": "uint256"
        }
      ],
      "name": "Transfer",
      "type": "event"
    },
    {
      "anonymous": false,
      "inputs": [
        {
          "indexed": false,
          "internalType": "address",
          "name": "account",
          "type": "address"
        }
      ],
      "name": "Unpaused",
      "type": "event"
    },
    {
      "inputs": [
        {
          "internalType": "address",
          "name": "owner",
          "type": "address"
        },
        {
          "internalType": "address",
          "name": "spender",
          "type": "address"
        }
      ],
      "name": "allowance",
      "outputs": [
        {
          "internalType": "uint256",
          "name": "",
          "type": "uint256"
        }
      ],
      "stateMutability": "view",
      "type": "function"
    },
    {
      "inputs": [
        {
          "internalType": "address",
          "name": "spender",
          "type": "address"
        },
        {
          "internalType": "uint256",
          "name": "value",
          "type": "uint256"
        }
      ],
      "name": "approve",
      "outputs": [
        {
          "internalType": "bool",
          "name": "",
          "type": "bool"
        }
      ],
      "stateMutability": "nonpayable",
      "type": "function"
    },
    {
      "inputs": [
        {
          "internalType": "address",
          "name": "account",
          "type": "address"
        }
      ],
      "name": "balanceOf",
      "outputs": [
        {
          "internalType": "uint256",
          "name": "",
          "type": "uint256"
        }
      ],
      "stateMutability": "view",
      "type": "function"
    },
    {
      "inputs": [],
      "name": "decimals",
      "outputs": [
        {
          "internalType": "uint8",
          "name": "",
          "type": "uint8"
        }
      ],
      "stateMutability": "view",
      "type": "function"
    },
    {
      "inputs": [
        {
          "internalType": "address",
          "name": "to",
          "type": "address"
        },
        {
          "internalType": "uint256",
          "name": "amount",
          "type": "uint256"
        }
      ],
      "name": "mint",
      "outputs": [],
      "stateMutability": "nonpayable",
      "type": "function"
    },
    {
      "inputs": [],
      "name": "name",
      "outputs": [
        {
          "internalType": "string",
          "name": "",
          "type": "string"
        }
      ],
      "stateMutability": "view",
      "type": "function"
    },
    {
      "inputs": [],
      "name": "owner",
      "outputs": [
        {
          "internalType": "address",
          "name": "",
          "type": "address"
        }
      ],
      "stateMutability": "view",
      "type": "function"
    },
    {
      "inputs": [],
      "name": "pause",
      "outputs": [],
      "stateMutability": "nonpayable",
      "type": "function"
    },
    {
      "inputs": [],
      "name": "paused",
      "outputs": [
        {
          "internalType": "bool",
          "name": "",
          "type": "bool"
        }
      ],
      "stateMutability": "view",
      "type": "function"
    },
    {
      "inputs": [],
      "name": "renounceOwnership",
      "outputs": [],
      "stateMutability": "nonpayable",
      "type": "function"
    },
    {
      "inputs": [],
      "name": "symbol",
      "outputs": [
        {
          "internalType": "string",
          "name": "",
          "type": "string"
        }
      ],
      "stateMutability": "view",
      "type": "function"
    },
    {
      "inputs": [],
      "name": "totalSupply",
      "outputs": [
        {
          "internalType": "uint256",
          "name": "",
          "type": "uint256"
        }
      ],
      "stateMutability": "view",
      "type": "function"
    },
    {
      "inputs": [
        {
          "internalType": "address",
          "name": "to",
          "type": "address"
        },
        {
          "internalType": "uint256",
          "name": "value",
          "type": "uint256"
        }
      ],
      "name": "transfer",
      "outputs": [
        {
          "internalType": "bool",
          "name": "",
          "type": "bool"
        }
      ],
      "stateMutability": "nonpayable",
      "type": "function"
    },
    {
      "inputs": [
        {
          "internalType": "address",
          "name": "from",
          "type": "address"
        },
        {
          "internalType": "address",
          "name": "to",
          "type": "address"
        },
        {
          "internalType": "uint256",
          "name": "value",
          "type": "uint256"
        }
      ],
      "name": "transferFrom",
      "outputs": [
        {
          "internalType": "bool",
          "name": "",
          "type": "bool"
        }
      ],
      "stateMutability": "nonpayable",
      "type": "function"
    },
    {
      "inputs": [
        {
          "internalType": "address",
          "name": "newOwner",
          "type": "address"
        }
      ],
      "name": "transferOwnership",
      "outputs": [],
      "stateMutability": "nonpayable",
      "type": "function"
    },
    {
      "inputs": [],
      "name": "unpause",
      "outputs": [],
      "stateMutability": "nonpayable",
      "type": "function"
    }
  ],
  "bytecode": "0x60806040523480156200001157600080fd5b5060405162001b7a38038062001b7a8339818101604052810190620000379190620003c9565b80838381600390816200004b9190620006ae565b5080600490816200005d9190620006ae565b5050506000600560006101000a81548160ff021916908315150217905550600073ffffffffffffffffffffffffffffffffffffffff168173ffffffffffffffffffffffffffffffffffffffff1603620000f05760006040517f1e4fbdf7000000000000000000000000000000000000000000000000000000008152600401620000e79190620007a6565b60405180910390fd5b62000101816200010b60201b60201c565b50505050620007c3565b6000600560019054906101000a900473ffffffffffffffffffffffffffffffffffffffff16905081600560016101000a81548173ffffffffffffffffffffffffffffffffffffffff021916908373ffffffffffffffffffffffffffffffffffffffff1602179055508173ffffffffffffffffffffffffffffffffffffffff168173ffffffffffffffffffffffffffffffffffffffff167f8be0079c531659141344cd1fd0a4f28419497f9722a3daafe3b4186f6b6457e060405160405180910390a35050565b6000604051905090565b600080fd5b600080fd5b600080fd5b600080fd5b6000601f19601f8301169050919050565b7f4e487b7100000000000000000000000000000000000000000000000000000000600052604160045260246000fd5b6200023a82620001ef565b810181811067ffffffffffffffff821117156200025c576200025b62000200565b5b80604052505050565b600062000271620001d1565b90506200027f82826200022f565b919050565b600067ffffffffffffffff821115620002a257620002a162000200565b5b620002ad82620001ef565b9050602081019050919050565b60005b83811015620002da578082015181840152602081019050620002bd565b60008484015250505050565b6000620002fd620002f78462000284565b62000265565b9050828152602081018484840111156200031c576200031b620001ea565b5b62000329848285620002ba565b509392505050565b600082601f830112620003495762000348620001e5565b5b81516200035b848260208601620002e6565b91505092915050565b600073ffffffffffffffffffffffffffffffffffffffff82169050919050565b6000620003918262000364565b9050919050565b620003a38162000384565b8114620003af57600080fd5b50565b600081519050620003c38162000398565b92915050565b600080600060608486031215620003e557620003e4620001db565b5b600084015167ffffffffffffffff811115620004065762000405620001e0565b5b620004148682870162000331565b935050602084015167ffffffffffffffff811115620004385762000437620001e0565b5b620004468682870162000331565b92505060406200045986828701620003b2565b9150509250925092565b600081519050919050565b7f4e487b7100000000000000000000000000000000000000000000000000000000600052602260045260246000fd5b60006002820490506001821680620004b657607f821691505b602082108103620004cc57620004cb6200046e565b5b50919050565b60008190508160005260206000209050919050565b60006020601f8301049050919050565b600082821b905092915050565b600060088302620005367fffffffffffffffffffffffffffffffffffffffffffffffffffffffffffffffff82620004f7565b620005428683620004f7565b95508019841693508086168417925050509392505050565b6000819050919050565b6000819050919050565b60006200058f6200058962000583846200055a565b62000564565b6200055a565b9050919050565b6000819050919050565b620005ab836200056e565b620005c3620005ba8262000596565b84845462000504565b825550505050565b600090565b620005da620005cb565b620005e7818484620005a0565b505050565b5b818110156200060f5762000603600082620005d0565b600181019050620005ed565b5050565b601f8211156200065e576200062881620004d2565b6200063384620004e7565b8101602085101562000643578190505b6200065b6200065285620004e7565b830182620005ec565b50505b505050565b600082821c905092915050565b6000620006836000198460080262000663565b1980831691505092915050565b60006200069e838362000670565b9150826002028217905092915050565b620006b98262000463565b67ffffffffffffffff811115620006d557620006d462000200565b5b620006e182546200049d565b620006ee82828562000613565b600060209050601f83116001811462000726576000841562000711578287015190505b6200071d858262000690565b8655506200078d565b601f1984166200073686620004d2565b60005b82811015620007605784890151825560018201915060208501945060208101905062000739565b868310156200078057848901516200077c601f89168262000670565b8355505b6001600288020188555050505b505050505050565b620007a08162000384565b82525050565b6000602082019050620007bd600083018462000795565b92915050565b6113a780620007d36000396000f3fe608060405234801561001057600080fd5b50600436106101005760003560e01c806370a082311161009757806395d89b411161006657806395d89b4114610265578063a9059cbb14610283578063dd62ed3e146102b3578063f2fde38b146102e357610100565b806370a0823114610203578063715018a6146102335780638456cb591461023d5780638da5cb5b1461024757610100565b8063313ce567116100d3578063313ce567146101a15780633f4ba83a146101bf57806340c10f19146101c95780635c975abb146101e557610100565b806306fdde0314610105578063095ea7b31461012357806318160ddd1461015357806323b872dd14610171575b600080fd5b61010d6102ff565b60405161011a9190610ffb565b60405180910390f35b61013d600480360381019061013891906110b6565b610391565b60405161014a9190611111565b60405180910390f35b61015b6103b4565b604051610168919061113b565b60405180910390f35b61018b60048036038101906101869190611156565b6103be565b6040516101989190611111565b60405180910390f35b6101a96103ed565b6040516101b691906111c5565b60405180910390f35b6101c76103f6565b005b6101e360048036038101906101de91906110b6565b610408565b005b6101ed61041e565b6040516101fa9190611111565b60405180910390f35b61021d600480360381019061021891906111e0565b610435565b60405161022a919061113b565b60405180910390f35b61023b61047d565b005b610245610491565b005b61024f6104a3565b60405161025c919061121c565b60405180910390f35b61026d6104cd565b60405161027a9190610ffb565b60405180910390f35b61029d600480360381019061029891906110b6565b61055f565b6040516102aa9190611111565b60405180910390f35b6102cd60048036038101906102c89190611237565b610582565b6040516102da919061113b565b60405180910390f35b6102fd60048036038101906102f891906111e0565b610609565b005b60606003805461030e906112a6565b80601f016020809104026020016040519081016040528092919081815260200182805461033a906112a6565b80156103875780601f1061035c57610100808354040283529160200191610387565b820191906000526020600020905b81548152906001019060200180831161036a57829003601f168201915b5050505050905090565b60008061039c61068f565b90506103a9818585610697565b600191505092915050565b6000600254905090565b6000806103c961068f565b90506103d68582856106a9565b6103e185858561073d565b60019150509392505050565b60006012905090565b6103fe610831565b6104066108b8565b565b610410610831565b61041a828261091b565b5050565b6000600560009054906101000a900460ff16905090565b60008060008373ffffffffffffffffffffffffffffffffffffffff1673ffffffffffffffffffffffffffffffffffffffff168152602001908152602001600020549050919050565b610485610831565b61048f600061099d565b565b610499610831565b6104a1610a63565b565b6000600560019054906101000a900473ffffffffffffffffffffffffffffffffffffffff16905090565b6060600480546104dc906112a6565b80601f0160208091040260200160405190810160405280929190818152602001828054610508906112a6565b80156105555780601f1061052a57610100808354040283529160200191610555565b820191906000526020600020905b81548152906001019060200180831161053857829003601f168201915b5050505050905090565b60008061056a61068f565b905061057781858561073d565b600191505092915050565b6000600160008473ffffffffffffffffffffffffffffffffffffffff1673ffffffffffffffffffffffffffffffffffffffff16815260200190815260200160002060008373ffffffffffffffffffffffffffffffffffffffff1673ffffffffffffffffffffffffffffffffffffffff16815260200190815260200160002054905092915050565b610611610831565b600073ffffffffffffffffffffffffffffffffffffffff168173ffffffffffffffffffffffffffffffffffffffff16036106835760006040517f1e4fbdf700000000000000000000000000000000000000000000000000000000815260040161067a919061121c565b60405180910390fd5b61068c8161099d565b50565b600033905090565b6106a48383836001610ac6565b505050565b60006106b58484610582565b90507fffffffffffffffffffffffffffffffffffffffffffffffffffffffffffffffff81146107375781811015610727578281836040517ffb8f41b200000000000000000000000000000000000000000000000000000000815260040161071e939291906112d7565b60405180910390fd5b61073684848484036000610ac6565b5b50505050565b600073ffffffffffffffffffffffffffffffffffffffff168373ffffffffffffffffffffffffffffffffffffffff16036107af5760006040517f96c6fd1e0000000000000000000000000000000000000000000000000000000081526004016107a6919061121c565b60405180910390fd5b600073ffffffffffffffffffffffffffffffffffffffff168273ffffffffffffffffffffffffffffffffffffffff16036108215760006040517fec442f05000000000000000000000000000000000000000000000000000000008152600401610818919061121c565b60405180910390fd5b61082c838383610c9d565b505050565b61083961068f565b73ffffffffffffffffffffffffffffffffffffffff166108576104a3565b73ffffffffffffffffffffffffffffffffffffffff16146108b65761087a61068f565b6040517f118cdaa70000000000000000000000000000000000000000000000000000000081526004016108ad919061121c565b60405180910390fd5b565b6108c0610cad565b6000600560006101000a81548160ff0219169083151502179055507f5db9ee0a495bf2e6ff9c91a7834c1ba4fdd244a5e8aa4e537bd38aeae4b073aa61090461068f565b604051610911919061121c565b60405180910390a1565b600073ffffffffffffffffffffffffffffffffffffffff168273ffffffffffffffffffffffffffffffffffffffff160361098d5760006040517fec442f05000000000000000000000000000000000000000000000000000000008152600401610984919061121c565b60405180910390fd5b61099960008383610c9d565b5050565b6000600560019054906101000a900473ffffffffffffffffffffffffffffffffffffffff16905081600560016101000a81548173ffffffffffffffffffffffffffffffffffffffff021916908373ffffffffffffffffffffffffffffffffffffffff1602179055508173ffffffffffffffffffffffffffffffffffffffff168173ffffffffffffffffffffffffffffffffffffffff167f8be0079c531659141344cd1fd0a4f28419497f9722a3daafe3b4186f6b6457e060405160405180910390a35050565b610a6b610ced565b6001600560006101000a81548160ff0219169083151502179055507f62e78cea01bee320cd4e420270b5ea74000d11b0c9f74754ebdbfc544b05a258610aaf61068f565b604051610abc919061121c565b60405180910390a1565b600073ffffffffffffffffffffffffffffffffffffffff168473ffffffffffffffffffffffffffffffffffffffff1603610b385760006040517fe602df05000000000000000000000000000000000000000000000000000000008152600401610b2f919061121c565b60405180910390fd5b600073ffffffffffffffffffffffffffffffffffffffff168373ffffffffffffffffffffffffffffffffffffffff1603610baa5760006040517f94280d62000000000000000000000000000000000000000000000000000000008152600401610ba1919061121c565b60405180910390fd5b81600160008673ffffffffffffffffffffffffffffffffffffffff1673ffffffffffffffffffffffffffffffffffffffff16815260200190815260200160002060008573ffffffffffffffffffffffffffffffffffffffff1673ffffffffffffffffffffffffffffffffffffffff168152602001908152602001600020819055508015610c97578273ffffffffffffffffffffffffffffffffffffffff168473ffffffffffffffffffffffffffffffffffffffff167f8c5be1e5ebec7d5bd14f71427d1e84f3dd0314c0f7b2291e5b200ac8c7c3b92584604051610c8e919061113b565b60405180910390a35b50505050565b610ca8838383610d2e565b505050565b610cb561041e565b610ceb576040517f8dfc202b00000000000000000000000000000000000000000000000000000000815260040160405180910390fd5b565b610cf561041e565b15610d2c576040517fd93c066500000000000000000000000000000000000000000000000000000000815260040160405180910390fd5b565b610d36610ced565b610d41838383610d46565b505050565b600073ffffffffffffffffffffffffffffffffffffffff168373ffffffffffffffffffffffffffffffffffffffff1603610d98578060026000828254610d8c919061133d565b92505081905550610e6b565b60008060008573ffffffffffffffffffffffffffffffffffffffff1673ffffffffffffffffffffffffffffffffffffffff16815260200190815260200160002054905081811015610e24578381836040517fe450d38c000000000000000000000000000000000000000000000000000000008152600401610e1b939291906112d7565b60405180910390fd5b8181036000808673ffffffffffffffffffffffffffffffffffffffff1673ffffffffffffffffffffffffffffffffffffffff16815260200190815260200160002081905550505b600073ffffffffffffffffffffffffffffffffffffffff168273ffffffffffffffffffffffffffffffffffffffff1603610eb45780600260008282540392505081905550610f01565b806000808473ffffffffffffffffffffffffffffffffffffffff1673ffffffffffffffffffffffffffffffffffffffff168152602001908152602001600020600082825401925050819055505b8173ffffffffffffffffffffffffffffffffffffffff168373ffffffffffffffffffffffffffffffffffffffff167fddf252ad1be2c89b69c2b068fc378daa952ba7f163c4a11628f55a4df523b3ef83604051610f5e919061113b565b60405180910390a3505050565b600081519050919050565b600082825260208201905092915050565b60005b83811015610fa5578082015181840152602081019050610f8a565b60008484015250505050565b6000601f19601f8301169050919050565b6000610fcd82610f6b565b610fd78185610f76565b9350610fe7818560208601610f87565b610ff081610fb1565b840191505092915050565b600060208201905081810360008301526110158184610fc2565b905092915050565b600080fd5b600073ffffffffffffffffffffffffffffffffffffffff82169050919050565b600061104d82611022565b9050919050565b61105d81611042565b811461106857600080fd5b50565b60008135905061107a81611054565b92915050565b6000819050919050565b61109381611080565b811461109e57600080fd5b50565b6000813590506110b08161108a565b92915050565b600080604083850312156110cd576110cc61101d565b5b60006110db8582860161106b565b92505060206110ec858286016110a1565b9150509250929050565b60008115159050919050565b61110b816110f6565b82525050565b60006020820190506111266000830184611102565b92915050565b61113581611080565b82525050565b6000602082019050611150600083018461112c565b92915050565b60008060006060848603121561116f5761116e61101d565b5b600061117d8682870161106b565b935050602061118e8682870161106b565b925050604061119f868287016110a1565b9150509250925092565b600060ff82169050919050565b6111bf816111a9565b82525050565b60006020820190506111da60008301846111b6565b92915050565b6000602082840312156111f6576111f561101d565b5b60006112048482850161106b565b91505092915050565b61121681611042565b82525050565b6000602082019050611231600083018461120d565b92915050565b6000806040838503121561124e5761124d61101d565b5b600061125c8582860161106b565b925050602061126d8582860161106b565b9150509250929050565b7f4e487b7100000000000000000000000000000000000000000000000000000000600052602260045260246000fd5b600060028204905060018216806112be57607f821691505b6020821081036112d1576112d0611277565b5b50919050565b60006060820190506112ec600083018661120d565b6112f9602083018561112c565b611306604083018461112c565b949350505050565b7f4e487b7100000000000000000000000000000000000000000000000000000000600052601160045260246000fd5b600061134882611080565b915061135383611080565b925082820190508082111561136b5761136a61130e565b5b9291505056fea2646970667358221220f9c009b74e350651678132fa5da3eca8c3c5afddc8cb0449464976666922e20c64736f6c63430008140033",
  "linkReferences": {},
  "deployedLinkReferences": {}
}