{
  "_format": "hh-sol-artifact-1",
  "contractName": "PausableDiflationBurn",
  "sourceName": "contracts/PausableDiflationBurn.sol",
  "abi": [
    {
      "inputs": [
        {
          "internalType": "uint256",
          "name": "amount",
          "type": "uint256"
        },
        {
          "internalType": "string",
          "name": "name",
          "type": "string"
        },
        {
          "internalType": "string",
          "name": "symbol_",
          "type": "string"
        },
        {
          "internalType": "address",
          "name": "initialOwner",
          "type": "address"
        }
      ],
      "stateMutability": "nonpayable",
      "type": "constructor"
    },
    {
      "inputs": [
        {
          "internalType": "address",
          "name": "spender",
          "type": "address"
        },
        {
          "internalType": "uint256",
          "name": "allowance",
          "type": "uint256"
        },
        {
          "internalType": "uint256",
          "name": "needed",
          "type": "uint256"
        }
      ],
      "name": "ERC20InsufficientAllowance",
      "type": "error"
    },
    {
      "inputs": [
        {
          "internalType": "address",
          "name": "sender",
          "type": "address"
        },
        {
          "internalType": "uint256",
          "name": "balance",
          "type": "uint256"
        },
        {
          "internalType": "uint256",
          "name": "needed",
          "type": "uint256"
        }
      ],
      "name": "ERC20InsufficientBalance",
      "type": "error"
    },
    {
      "inputs": [
        {
          "internalType": "address",
          "name": "approver",
          "type": "address"
        }
      ],
      "name": "ERC20InvalidApprover",
      "type": "error"
    },
    {
      "inputs": [
        {
          "internalType": "address",
          "name": "receiver",
          "type": "address"
        }
      ],
      "name": "ERC20InvalidReceiver",
      "type": "error"
    },
    {
      "inputs": [
        {
          "internalType": "address",
          "name": "sender",
          "type": "address"
        }
      ],
      "name": "ERC20InvalidSender",
      "type": "error"
    },
    {
      "inputs": [
        {
          "internalType": "address",
          "name": "spender",
          "type": "address"
        }
      ],
      "name": "ERC20InvalidSpender",
      "type": "error"
    },
    {
      "inputs": [],
      "name": "EnforcedPause",
      "type": "error"
    },
    {
      "inputs": [],
      "name": "ExpectedPause",
      "type": "error"
    },
    {
      "inputs": [
        {
          "internalType": "address",
          "name": "owner",
          "type": "address"
        }
      ],
      "name": "OwnableInvalidOwner",
      "type": "error"
    },
    {
      "inputs": [
        {
          "internalType": "address",
          "name": "account",
          "type": "address"
        }
      ],
      "name": "OwnableUnauthorizedAccount",
      "type": "error"
    },
    {
      "anonymous": false,
      "inputs": [
        {
          "indexed": true,
          "internalType": "address",
          "name": "owner",
          "type": "address"
        },
        {
          "indexed": true,
          "internalType": "address",
          "name": "spender",
          "type": "address"
        },
        {
          "indexed": false,
          "internalType": "uint256",
          "name": "value",
          "type": "uint256"
        }
      ],
      "name": "Approval",
      "type": "event"
    },
    {
      "anonymous": false,
      "inputs": [
        {
          "indexed": true,
          "internalType": "address",
          "name": "previousOwner",
          "type": "address"
        },
        {
          "indexed": true,
          "internalType": "address",
          "name": "newOwner",
          "type": "address"
        }
      ],
      "name": "OwnershipTransferred",
      "type": "event"
    },
    {
      "anonymous": false,
      "inputs": [
        {
          "indexed": false,
          "internalType": "address",
          "name": "account",
          "type": "address"
        }
      ],
      "name": "Paused",
      "type": "event"
    },
    {
      "anonymous": false,
      "inputs": [
        {
          "indexed": true,
          "internalType": "address",
          "name": "from",
          "type": "address"
        },
        {
          "indexed": true,
          "internalType": "address",
          "name": "to",
          "type": "address"
        },
        {
          "indexed": false,
          "internalType": "uint256",
          "name": "value",
          "type": "uint256"
        }
      ],
      "name": "Transfer",
      "type": "event"
    },
    {
      "anonymous": false,
      "inputs": [
        {
          "indexed": false,
          "internalType": "address",
          "name": "account",
          "type": "address"
        }
      ],
      "name": "Unpaused",
      "type": "event"
    },
    {
      "inputs": [
        {
          "internalType": "address",
          "name": "owner",
          "type": "address"
        },
        {
          "internalType": "address",
          "name": "spender",
          "type": "address"
        }
      ],
      "name": "allowance",
      "outputs": [
        {
          "internalType": "uint256",
          "name": "",
          "type": "uint256"
        }
      ],
      "stateMutability": "view",
      "type": "function"
    },
    {
      "inputs": [
        {
          "internalType": "address",
          "name": "spender",
          "type": "address"
        },
        {
          "internalType": "uint256",
          "name": "value",
          "type": "uint256"
        }
      ],
      "name": "approve",
      "outputs": [
        {
          "internalType": "bool",
          "name": "",
          "type": "bool"
        }
      ],
      "stateMutability": "nonpayable",
      "type": "function"
    },
    {
      "inputs": [
        {
          "internalType": "address",
          "name": "account",
          "type": "address"
        }
      ],
      "name": "balanceOf",
      "outputs": [
        {
          "internalType": "uint256",
          "name": "",
          "type": "uint256"
        }
      ],
      "stateMutability": "view",
      "type": "function"
    },
    {
      "inputs": [
        {
          "internalType": "address",
          "name": "account",
          "type": "address"
        },
        {
          "internalType": "uint256",
          "name": "amount",
          "type": "uint256"
        }
      ],
      "name": "burn",
      "outputs": [],
      "stateMutability": "nonpayable",
      "type": "function"
    },
    {
      "inputs": [],
      "name": "decimals",
      "outputs": [
        {
          "internalType": "uint8",
          "name": "",
          "type": "uint8"
        }
      ],
      "stateMutability": "view",
      "type": "function"
    },
    {
      "inputs": [],
      "name": "name",
      "outputs": [
        {
          "internalType": "string",
          "name": "",
          "type": "string"
        }
      ],
      "stateMutability": "view",
      "type": "function"
    },
    {
      "inputs": [],
      "name": "owner",
      "outputs": [
        {
          "internalType": "address",
          "name": "",
          "type": "address"
        }
      ],
      "stateMutability": "view",
      "type": "function"
    },
    {
      "inputs": [],
      "name": "pause",
      "outputs": [],
      "stateMutability": "nonpayable",
      "type": "function"
    },
    {
      "inputs": [],
      "name": "paused",
      "outputs": [
        {
          "internalType": "bool",
          "name": "",
          "type": "bool"
        }
      ],
      "stateMutability": "view",
      "type": "function"
    },
    {
      "inputs": [],
      "name": "renounceOwnership",
      "outputs": [],
      "stateMutability": "nonpayable",
      "type": "function"
    },
    {
      "inputs": [],
      "name": "symbol",
      "outputs": [
        {
          "internalType": "string",
          "name": "",
          "type": "string"
        }
      ],
      "stateMutability": "view",
      "type": "function"
    },
    {
      "inputs": [],
      "name": "totalSupply",
      "outputs": [
        {
          "internalType": "uint256",
          "name": "",
          "type": "uint256"
        }
      ],
      "stateMutability": "view",
      "type": "function"
    },
    {
      "inputs": [
        {
          "internalType": "address",
          "name": "to",
          "type": "address"
        },
        {
          "internalType": "uint256",
          "name": "value",
          "type": "uint256"
        }
      ],
      "name": "transfer",
      "outputs": [
        {
          "internalType": "bool",
          "name": "",
          "type": "bool"
        }
      ],
      "stateMutability": "nonpayable",
      "type": "function"
    },
    {
      "inputs": [
        {
          "internalType": "address",
          "name": "from",
          "type": "address"
        },
        {
          "internalType": "address",
          "name": "to",
          "type": "address"
        },
        {
          "internalType": "uint256",
          "name": "value",
          "type": "uint256"
        }
      ],
      "name": "transferFrom",
      "outputs": [
        {
          "internalType": "bool",
          "name": "",
          "type": "bool"
        }
      ],
      "stateMutability": "nonpayable",
      "type": "function"
    },
    {
      "inputs": [
        {
          "internalType": "address",
          "name": "newOwner",
          "type": "address"
        }
      ],
      "name": "transferOwnership",
      "outputs": [],
      "stateMutability": "nonpayable",
      "type": "function"
    },
    {
      "inputs": [],
      "name": "unpause",
      "outputs": [],
      "stateMutability": "nonpayable",
      "type": "function"
    }
  ],
  "bytecode": "0x60806040523480156200001157600080fd5b5060405162002237380380620022378339818101604052810190620000379190620007a8565b80838381600390816200004b919062000a99565b5080600490816200005d919062000a99565b5050506000600560006101000a81548160ff021916908315150217905550600073ffffffffffffffffffffffffffffffffffffffff168173ffffffffffffffffffffffffffffffffffffffff1603620000f05760006040517f1e4fbdf7000000000000000000000000000000000000000000000000000000008152600401620000e7919062000b91565b60405180910390fd5b62000101816200014860201b60201c565b506200013e81620001176200020e60201b60201c565b600a62000125919062000d3e565b8662000132919062000d8f565b6200021760201b60201c565b5050505062000e80565b6000600560019054906101000a900473ffffffffffffffffffffffffffffffffffffffff16905081600560016101000a81548173ffffffffffffffffffffffffffffffffffffffff021916908373ffffffffffffffffffffffffffffffffffffffff1602179055508173ffffffffffffffffffffffffffffffffffffffff168173ffffffffffffffffffffffffffffffffffffffff167f8be0079c531659141344cd1fd0a4f28419497f9722a3daafe3b4186f6b6457e060405160405180910390a35050565b60006012905090565b600073ffffffffffffffffffffffffffffffffffffffff168273ffffffffffffffffffffffffffffffffffffffff16036200028c5760006040517fec442f0500000000000000000000000000000000000000000000000000000000815260040162000283919062000b91565b60405180910390fd5b620002a060008383620002a460201b60201c565b5050565b620002b7838383620002bc60201b60201c565b505050565b620002cc620002e460201b60201c565b620002df8383836200032e60201b60201c565b505050565b620002f46200055e60201b60201c565b156200032c576040517fd93c066500000000000000000000000000000000000000000000000000000000815260040160405180910390fd5b565b600073ffffffffffffffffffffffffffffffffffffffff168373ffffffffffffffffffffffffffffffffffffffff16036200038457806002600082825462000377919062000dda565b925050819055506200045a565b60008060008573ffffffffffffffffffffffffffffffffffffffff1673ffffffffffffffffffffffffffffffffffffffff1681526020019081526020016000205490508181101562000413578381836040517fe450d38c0000000000000000000000000000000000000000000000000000000081526004016200040a9392919062000e26565b60405180910390fd5b8181036000808673ffffffffffffffffffffffffffffffffffffffff1673ffffffffffffffffffffffffffffffffffffffff16815260200190815260200160002081905550505b600073ffffffffffffffffffffffffffffffffffffffff168273ffffffffffffffffffffffffffffffffffffffff1603620004a55780600260008282540392505081905550620004f2565b806000808473ffffffffffffffffffffffffffffffffffffffff1673ffffffffffffffffffffffffffffffffffffffff168152602001908152602001600020600082825401925050819055505b8173ffffffffffffffffffffffffffffffffffffffff168373ffffffffffffffffffffffffffffffffffffffff167fddf252ad1be2c89b69c2b068fc378daa952ba7f163c4a11628f55a4df523b3ef8360405162000551919062000e63565b60405180910390a3505050565b6000600560009054906101000a900460ff16905090565b6000604051905090565b600080fd5b600080fd5b6000819050919050565b6200059e8162000589565b8114620005aa57600080fd5b50565b600081519050620005be8162000593565b92915050565b600080fd5b600080fd5b6000601f19601f8301169050919050565b7f4e487b7100000000000000000000000000000000000000000000000000000000600052604160045260246000fd5b6200061982620005ce565b810181811067ffffffffffffffff821117156200063b576200063a620005df565b5b80604052505050565b60006200065062000575565b90506200065e82826200060e565b919050565b600067ffffffffffffffff821115620006815762000680620005df565b5b6200068c82620005ce565b9050602081019050919050565b60005b83811015620006b95780820151818401526020810190506200069c565b60008484015250505050565b6000620006dc620006d68462000663565b62000644565b905082815260208101848484011115620006fb57620006fa620005c9565b5b6200070884828562000699565b509392505050565b600082601f830112620007285762000727620005c4565b5b81516200073a848260208601620006c5565b91505092915050565b600073ffffffffffffffffffffffffffffffffffffffff82169050919050565b6000620007708262000743565b9050919050565b620007828162000763565b81146200078e57600080fd5b50565b600081519050620007a28162000777565b92915050565b60008060008060808587031215620007c557620007c46200057f565b5b6000620007d587828801620005ad565b945050602085015167ffffffffffffffff811115620007f957620007f862000584565b5b620008078782880162000710565b935050604085015167ffffffffffffffff8111156200082b576200082a62000584565b5b620008398782880162000710565b92505060606200084c8782880162000791565b91505092959194509250565b600081519050919050565b7f4e487b7100000000000000000000000000000000000000000000000000000000600052602260045260246000fd5b60006002820490506001821680620008ab57607f821691505b602082108103620008c157620008c062000863565b5b50919050565b60008190508160005260206000209050919050565b60006020601f8301049050919050565b600082821b905092915050565b6000600883026200092b7fffffffffffffffffffffffffffffffffffffffffffffffffffffffffffffffff82620008ec565b620009378683620008ec565b95508019841693508086168417925050509392505050565b6000819050919050565b60006200097a620009746200096e8462000589565b6200094f565b62000589565b9050919050565b6000819050919050565b620009968362000959565b620009ae620009a58262000981565b848454620008f9565b825550505050565b600090565b620009c5620009b6565b620009d28184846200098b565b505050565b5b81811015620009fa57620009ee600082620009bb565b600181019050620009d8565b5050565b601f82111562000a495762000a1381620008c7565b62000a1e84620008dc565b8101602085101562000a2e578190505b62000a4662000a3d85620008dc565b830182620009d7565b50505b505050565b600082821c905092915050565b600062000a6e6000198460080262000a4e565b1980831691505092915050565b600062000a89838362000a5b565b9150826002028217905092915050565b62000aa48262000858565b67ffffffffffffffff81111562000ac05762000abf620005df565b5b62000acc825462000892565b62000ad9828285620009fe565b600060209050601f83116001811462000b11576000841562000afc578287015190505b62000b08858262000a7b565b86555062000b78565b601f19841662000b2186620008c7565b60005b8281101562000b4b5784890151825560018201915060208501945060208101905062000b24565b8683101562000b6b578489015162000b67601f89168262000a5b565b8355505b6001600288020188555050505b505050505050565b62000b8b8162000763565b82525050565b600060208201905062000ba8600083018462000b80565b92915050565b7f4e487b7100000000000000000000000000000000000000000000000000000000600052601160045260246000fd5b60008160011c9050919050565b6000808291508390505b600185111562000c3c5780860481111562000c145762000c1362000bae565b5b600185161562000c245780820291505b808102905062000c348562000bdd565b945062000bf4565b94509492505050565b60008262000c57576001905062000d2a565b8162000c67576000905062000d2a565b816001811462000c80576002811462000c8b5762000cc1565b600191505062000d2a565b60ff84111562000ca05762000c9f62000bae565b5b8360020a91508482111562000cba5762000cb962000bae565b5b5062000d2a565b5060208310610133831016604e8410600b841016171562000cfb5782820a90508381111562000cf55762000cf462000bae565b5b62000d2a565b62000d0a848484600162000bea565b9250905081840481111562000d245762000d2362000bae565b5b81810290505b9392505050565b600060ff82169050919050565b600062000d4b8262000589565b915062000d588362000d31565b925062000d877fffffffffffffffffffffffffffffffffffffffffffffffffffffffffffffffff848462000c45565b905092915050565b600062000d9c8262000589565b915062000da98362000589565b925082820262000db98162000589565b9150828204841483151762000dd35762000dd262000bae565b5b5092915050565b600062000de78262000589565b915062000df48362000589565b925082820190508082111562000e0f5762000e0e62000bae565b5b92915050565b62000e208162000589565b82525050565b600060608201905062000e3d600083018662000b80565b62000e4c602083018562000e15565b62000e5b604083018462000e15565b949350505050565b600060208201905062000e7a600083018462000e15565b92915050565b6113a78062000e906000396000f3fe608060405234801561001057600080fd5b50600436106101005760003560e01c8063715018a6116100975780639dc29fac116100665780639dc29fac14610267578063a9059cbb14610283578063dd62ed3e146102b3578063f2fde38b146102e357610100565b8063715018a6146102175780638456cb59146102215780638da5cb5b1461022b57806395d89b411461024957610100565b8063313ce567116100d3578063313ce567146101a15780633f4ba83a146101bf5780635c975abb146101c957806370a08231146101e757610100565b806306fdde0314610105578063095ea7b31461012357806318160ddd1461015357806323b872dd14610171575b600080fd5b61010d6102ff565b60405161011a9190610ffb565b60405180910390f35b61013d600480360381019061013891906110b6565b610391565b60405161014a9190611111565b60405180910390f35b61015b6103b4565b604051610168919061113b565b60405180910390f35b61018b60048036038101906101869190611156565b6103be565b6040516101989190611111565b60405180910390f35b6101a96103ed565b6040516101b691906111c5565b60405180910390f35b6101c76103f6565b005b6101d1610408565b6040516101de9190611111565b60405180910390f35b61020160048036038101906101fc91906111e0565b61041f565b60405161020e919061113b565b60405180910390f35b61021f610467565b005b61022961047b565b005b61023361048d565b604051610240919061121c565b60405180910390f35b6102516104b7565b60405161025e9190610ffb565b60405180910390f35b610281600480360381019061027c91906110b6565b610549565b005b61029d600480360381019061029891906110b6565b61055f565b6040516102aa9190611111565b60405180910390f35b6102cd60048036038101906102c89190611237565b610582565b6040516102da919061113b565b60405180910390f35b6102fd60048036038101906102f891906111e0565b610609565b005b60606003805461030e906112a6565b80601f016020809104026020016040519081016040528092919081815260200182805461033a906112a6565b80156103875780601f1061035c57610100808354040283529160200191610387565b820191906000526020600020905b81548152906001019060200180831161036a57829003601f168201915b5050505050905090565b60008061039c61068f565b90506103a9818585610697565b600191505092915050565b6000600254905090565b6000806103c961068f565b90506103d68582856106a9565b6103e185858561073d565b60019150509392505050565b60006012905090565b6103fe610831565b6104066108b8565b565b6000600560009054906101000a900460ff16905090565b60008060008373ffffffffffffffffffffffffffffffffffffffff1673ffffffffffffffffffffffffffffffffffffffff168152602001908152602001600020549050919050565b61046f610831565b610479600061091b565b565b610483610831565b61048b6109e1565b565b6000600560019054906101000a900473ffffffffffffffffffffffffffffffffffffffff16905090565b6060600480546104c6906112a6565b80601f01602080910402602001604051908101604052809291908181526020018280546104f2906112a6565b801561053f5780601f106105145761010080835404028352916020019161053f565b820191906000526020600020905b81548152906001019060200180831161052257829003601f168201915b5050505050905090565b610551610831565b61055b8282610a44565b5050565b60008061056a61068f565b905061057781858561073d565b600191505092915050565b6000600160008473ffffffffffffffffffffffffffffffffffffffff1673ffffffffffffffffffffffffffffffffffffffff16815260200190815260200160002060008373ffffffffffffffffffffffffffffffffffffffff1673ffffffffffffffffffffffffffffffffffffffff16815260200190815260200160002054905092915050565b610611610831565b600073ffffffffffffffffffffffffffffffffffffffff168173ffffffffffffffffffffffffffffffffffffffff16036106835760006040517f1e4fbdf700000000000000000000000000000000000000000000000000000000815260040161067a919061121c565b60405180910390fd5b61068c8161091b565b50565b600033905090565b6106a48383836001610ac6565b505050565b60006106b58484610582565b90507fffffffffffffffffffffffffffffffffffffffffffffffffffffffffffffffff81146107375781811015610727578281836040517ffb8f41b200000000000000000000000000000000000000000000000000000000815260040161071e939291906112d7565b60405180910390fd5b61073684848484036000610ac6565b5b50505050565b600073ffffffffffffffffffffffffffffffffffffffff168373ffffffffffffffffffffffffffffffffffffffff16036107af5760006040517f96c6fd1e0000000000000000000000000000000000000000000000000000000081526004016107a6919061121c565b60405180910390fd5b600073ffffffffffffffffffffffffffffffffffffffff168273ffffffffffffffffffffffffffffffffffffffff16036108215760006040517fec442f05000000000000000000000000000000000000000000000000000000008152600401610818919061121c565b60405180910390fd5b61082c838383610c9d565b505050565b61083961068f565b73ffffffffffffffffffffffffffffffffffffffff1661085761048d565b73ffffffffffffffffffffffffffffffffffffffff16146108b65761087a61068f565b6040517f118cdaa70000000000000000000000000000000000000000000000000000000081526004016108ad919061121c565b60405180910390fd5b565b6108c0610cad565b6000600560006101000a81548160ff0219169083151502179055507f5db9ee0a495bf2e6ff9c91a7834c1ba4fdd244a5e8aa4e537bd38aeae4b073aa61090461068f565b604051610911919061121c565b60405180910390a1565b6000600560019054906101000a900473ffffffffffffffffffffffffffffffffffffffff16905081600560016101000a81548173ffffffffffffffffffffffffffffffffffffffff021916908373ffffffffffffffffffffffffffffffffffffffff1602179055508173ffffffffffffffffffffffffffffffffffffffff168173ffffffffffffffffffffffffffffffffffffffff167f8be0079c531659141344cd1fd0a4f28419497f9722a3daafe3b4186f6b6457e060405160405180910390a35050565b6109e9610ced565b6001600560006101000a81548160ff0219169083151502179055507f62e78cea01bee320cd4e420270b5ea74000d11b0c9f74754ebdbfc544b05a258610a2d61068f565b604051610a3a919061121c565b60405180910390a1565b600073ffffffffffffffffffffffffffffffffffffffff168273ffffffffffffffffffffffffffffffffffffffff1603610ab65760006040517f96c6fd1e000000000000000000000000000000000000000000000000000000008152600401610aad919061121c565b60405180910390fd5b610ac282600083610c9d565b5050565b600073ffffffffffffffffffffffffffffffffffffffff168473ffffffffffffffffffffffffffffffffffffffff1603610b385760006040517fe602df05000000000000000000000000000000000000000000000000000000008152600401610b2f919061121c565b60405180910390fd5b600073ffffffffffffffffffffffffffffffffffffffff168373ffffffffffffffffffffffffffffffffffffffff1603610baa5760006040517f94280d62000000000000000000000000000000000000000000000000000000008152600401610ba1919061121c565b60405180910390fd5b81600160008673ffffffffffffffffffffffffffffffffffffffff1673ffffffffffffffffffffffffffffffffffffffff16815260200190815260200160002060008573ffffffffffffffffffffffffffffffffffffffff1673ffffffffffffffffffffffffffffffffffffffff168152602001908152602001600020819055508015610c97578273ffffffffffffffffffffffffffffffffffffffff168473ffffffffffffffffffffffffffffffffffffffff167f8c5be1e5ebec7d5bd14f71427d1e84f3dd0314c0f7b2291e5b200ac8c7c3b92584604051610c8e919061113b565b60405180910390a35b50505050565b610ca8838383610d2e565b505050565b610cb5610408565b610ceb576040517f8dfc202b00000000000000000000000000000000000000000000000000000000815260040160405180910390fd5b565b610cf5610408565b15610d2c576040517fd93c066500000000000000000000000000000000000000000000000000000000815260040160405180910390fd5b565b610d36610ced565b610d41838383610d46565b505050565b600073ffffffffffffffffffffffffffffffffffffffff168373ffffffffffffffffffffffffffffffffffffffff1603610d98578060026000828254610d8c919061133d565b92505081905550610e6b565b60008060008573ffffffffffffffffffffffffffffffffffffffff1673ffffffffffffffffffffffffffffffffffffffff16815260200190815260200160002054905081811015610e24578381836040517fe450d38c000000000000000000000000000000000000000000000000000000008152600401610e1b939291906112d7565b60405180910390fd5b8181036000808673ffffffffffffffffffffffffffffffffffffffff1673ffffffffffffffffffffffffffffffffffffffff16815260200190815260200160002081905550505b600073ffffffffffffffffffffffffffffffffffffffff168273ffffffffffffffffffffffffffffffffffffffff1603610eb45780600260008282540392505081905550610f01565b806000808473ffffffffffffffffffffffffffffffffffffffff1673ffffffffffffffffffffffffffffffffffffffff168152602001908152602001600020600082825401925050819055505b8173ffffffffffffffffffffffffffffffffffffffff168373ffffffffffffffffffffffffffffffffffffffff167fddf252ad1be2c89b69c2b068fc378daa952ba7f163c4a11628f55a4df523b3ef83604051610f5e919061113b565b60405180910390a3505050565b600081519050919050565b600082825260208201905092915050565b60005b83811015610fa5578082015181840152602081019050610f8a565b60008484015250505050565b6000601f19601f8301169050919050565b6000610fcd82610f6b565b610fd78185610f76565b9350610fe7818560208601610f87565b610ff081610fb1565b840191505092915050565b600060208201905081810360008301526110158184610fc2565b905092915050565b600080fd5b600073ffffffffffffffffffffffffffffffffffffffff82169050919050565b600061104d82611022565b9050919050565b61105d81611042565b811461106857600080fd5b50565b60008135905061107a81611054565b92915050565b6000819050919050565b61109381611080565b811461109e57600080fd5b50565b6000813590506110b08161108a565b92915050565b600080604083850312156110cd576110cc61101d565b5b60006110db8582860161106b565b92505060206110ec858286016110a1565b9150509250929050565b60008115159050919050565b61110b816110f6565b82525050565b60006020820190506111266000830184611102565b92915050565b61113581611080565b82525050565b6000602082019050611150600083018461112c565b92915050565b60008060006060848603121561116f5761116e61101d565b5b600061117d8682870161106b565b935050602061118e8682870161106b565b925050604061119f868287016110a1565b9150509250925092565b600060ff82169050919050565b6111bf816111a9565b82525050565b60006020820190506111da60008301846111b6565b92915050565b6000602082840312156111f6576111f561101d565b5b60006112048482850161106b565b91505092915050565b61121681611042565b82525050565b6000602082019050611231600083018461120d565b92915050565b6000806040838503121561124e5761124d61101d565b5b600061125c8582860161106b565b925050602061126d8582860161106b565b9150509250929050565b7f4e487b7100000000000000000000000000000000000000000000000000000000600052602260045260246000fd5b600060028204905060018216806112be57607f821691505b6020821081036112d1576112d0611277565b5b50919050565b60006060820190506112ec600083018661120d565b6112f9602083018561112c565b611306604083018461112c565b949350505050565b7f4e487b7100000000000000000000000000000000000000000000000000000000600052601160045260246000fd5b600061134882611080565b915061135383611080565b925082820190508082111561136b5761136a61130e565b5b9291505056fea26469706673582212204a5081ec12546c6ed2001f88b065de5020aa033ba469f14ff875196797c575b464736f6c63430008140033",
  "linkReferences": {},
  "deployedLinkReferences": {}
}