{
  "_format": "hh-sol-artifact-1",
  "contractName": "TokenSale",
  "sourceName": "contracts/Sale.sol",
  "abi": [
    {
      "inputs": [
        {
          "internalType": "address",
          "name": "_token",
          "type": "address"
        }
      ],
      "stateMutability": "nonpayable",
      "type": "constructor"
    },
    {
      "inputs": [
        {
          "internalType": "address",
          "name": "owner",
          "type": "address"
        }
      ],
      "name": "OwnableInvalidOwner",
      "type": "error"
    },
    {
      "inputs": [
        {
          "internalType": "address",
          "name": "account",
          "type": "address"
        }
      ],
      "name": "OwnableUnauthorizedAccount",
      "type": "error"
    },
    {
      "inputs": [],
      "name": "ReentrancyGuardReentrantCall",
      "type": "error"
    },
    {
      "anonymous": false,
      "inputs": [
        {
          "indexed": true,
          "internalType": "address",
          "name": "previousOwner",
          "type": "address"
        },
        {
          "indexed": true,
          "internalType": "address",
          "name": "newOwner",
          "type": "address"
        }
      ],
      "name": "OwnershipTransferred",
      "type": "event"
    },
    {
      "anonymous": false,
      "inputs": [
        {
          "indexed": true,
          "internalType": "address",
          "name": "account",
          "type": "address"
        },
        {
          "indexed": false,
          "internalType": "uint256",
          "name": "amount",
          "type": "uint256"
        },
        {
          "indexed": false,
          "internalType": "uint256",
          "name": "saleType",
          "type": "uint256"
        }
      ],
      "name": "TokenBought",
      "type": "event"
    },
    {
      "inputs": [
        {
          "internalType": "uint256",
          "name": "saleNumber",
          "type": "uint256"
        },
        {
          "internalType": "uint256",
          "name": "amount",
          "type": "uint256"
        }
      ],
      "name": "buyTokens",
      "outputs": [],
      "stateMutability": "nonpayable",
      "type": "function"
    },
    {
      "inputs": [
        {
          "internalType": "uint256",
          "name": "saleNumber",
          "type": "uint256"
        },
        {
          "internalType": "uint256",
          "name": "startDate",
          "type": "uint256"
        },
        {
          "internalType": "uint256",
          "name": "endDate",
          "type": "uint256"
        },
        {
          "internalType": "uint256",
          "name": "tokenPrice",
          "type": "uint256"
        },
        {
          "internalType": "uint256",
          "name": "pool",
          "type": "uint256"
        },
        {
          "internalType": "uint256",
          "name": "max",
          "type": "uint256"
        },
        {
          "internalType": "uint256",
          "name": "min",
          "type": "uint256"
        }
      ],
      "name": "createSale",
      "outputs": [],
      "stateMutability": "nonpayable",
      "type": "function"
    },
    {
      "inputs": [
        {
          "internalType": "uint256",
          "name": "saleNumber",
          "type": "uint256"
        }
      ],
      "name": "getAllUsersToken",
      "outputs": [
        {
          "internalType": "address[]",
          "name": "",
          "type": "address[]"
        },
        {
          "internalType": "uint256[]",
          "name": "",
          "type": "uint256[]"
        }
      ],
      "stateMutability": "view",
      "type": "function"
    },
    {
      "inputs": [
        {
          "internalType": "uint256",
          "name": "saleNumber",
          "type": "uint256"
        },
        {
          "internalType": "uint256",
          "name": "amount",
          "type": "uint256"
        }
      ],
      "name": "getTokenAmountForUsdt",
      "outputs": [
        {
          "internalType": "uint256",
          "name": "",
          "type": "uint256"
        }
      ],
      "stateMutability": "view",
      "type": "function"
    },
    {
      "inputs": [
        {
          "internalType": "uint256",
          "name": "saleNumber",
          "type": "uint256"
        },
        {
          "internalType": "address",
          "name": "account",
          "type": "address"
        }
      ],
      "name": "getUserTokens",
      "outputs": [
        {
          "internalType": "uint256",
          "name": "",
          "type": "uint256"
        }
      ],
      "stateMutability": "view",
      "type": "function"
    },
    {
      "inputs": [],
      "name": "owner",
      "outputs": [
        {
          "internalType": "address",
          "name": "",
          "type": "address"
        }
      ],
      "stateMutability": "view",
      "type": "function"
    },
    {
      "inputs": [],
      "name": "purchaseToken",
      "outputs": [
        {
          "internalType": "contract IERC20",
          "name": "",
          "type": "address"
        }
      ],
      "stateMutability": "view",
      "type": "function"
    },
    {
      "inputs": [],
      "name": "renounceOwnership",
      "outputs": [],
      "stateMutability": "nonpayable",
      "type": "function"
    },
    {
      "inputs": [
        {
          "internalType": "uint256",
          "name": "",
          "type": "uint256"
        }
      ],
      "name": "sales",
      "outputs": [
        {
          "internalType": "uint256",
          "name": "startDate",
          "type": "uint256"
        },
        {
          "internalType": "uint256",
          "name": "endDate",
          "type": "uint256"
        },
        {
          "internalType": "uint256",
          "name": "tokenPrice",
          "type": "uint256"
        },
        {
          "internalType": "uint256",
          "name": "soldAmount",
          "type": "uint256"
        },
        {
          "internalType": "uint256",
          "name": "pool",
          "type": "uint256"
        },
        {
          "internalType": "uint256",
          "name": "minUsdt",
          "type": "uint256"
        },
        {
          "internalType": "uint256",
          "name": "maxUsdt",
          "type": "uint256"
        }
      ],
      "stateMutability": "view",
      "type": "function"
    },
    {
      "inputs": [
        {
          "internalType": "uint256",
          "name": "saleNumber",
          "type": "uint256"
        },
        {
          "internalType": "uint256",
          "name": "newTime",
          "type": "uint256"
        }
      ],
      "name": "setEndTime",
      "outputs": [],
      "stateMutability": "nonpayable",
      "type": "function"
    },
    {
      "inputs": [
        {
          "internalType": "uint256",
          "name": "saleNumber",
          "type": "uint256"
        },
        {
          "internalType": "uint256",
          "name": "newPrice",
          "type": "uint256"
        }
      ],
      "name": "setPrice",
      "outputs": [],
      "stateMutability": "nonpayable",
      "type": "function"
    },
    {
      "inputs": [
        {
          "internalType": "uint256",
          "name": "saleNumber",
          "type": "uint256"
        },
        {
          "internalType": "uint256",
          "name": "newTime",
          "type": "uint256"
        }
      ],
      "name": "setStartTime",
      "outputs": [],
      "stateMutability": "nonpayable",
      "type": "function"
    },
    {
      "inputs": [
        {
          "internalType": "address",
          "name": "_token",
          "type": "address"
        }
      ],
      "name": "setToken",
      "outputs": [],
      "stateMutability": "nonpayable",
      "type": "function"
    },
    {
      "inputs": [
        {
          "internalType": "address",
          "name": "newOwner",
          "type": "address"
        }
      ],
      "name": "transferOwnership",
      "outputs": [],
      "stateMutability": "nonpayable",
      "type": "function"
    },
    {
      "inputs": [
        {
          "internalType": "address",
          "name": "account",
          "type": "address"
        },
        {
          "internalType": "uint256",
          "name": "amount",
          "type": "uint256"
        }
      ],
      "name": "transferTokens",
      "outputs": [],
      "stateMutability": "nonpayable",
      "type": "function"
    }
  ],
  "bytecode": "0x60806040523480156200001157600080fd5b5060405162001e4a38038062001e4a8339818101604052810190620000379190620002ae565b33600073ffffffffffffffffffffffffffffffffffffffff168173ffffffffffffffffffffffffffffffffffffffff1603620000ad5760006040517f1e4fbdf7000000000000000000000000000000000000000000000000000000008152600401620000a49190620002f1565b60405180910390fd5b620000be816200018060201b60201c565b5060018081905550600073ffffffffffffffffffffffffffffffffffffffff168173ffffffffffffffffffffffffffffffffffffffff160362000138576040517f08c379a00000000000000000000000000000000000000000000000000000000081526004016200012f906200036f565b60405180910390fd5b80600260006101000a81548173ffffffffffffffffffffffffffffffffffffffff021916908373ffffffffffffffffffffffffffffffffffffffff1602179055505062000391565b60008060009054906101000a900473ffffffffffffffffffffffffffffffffffffffff169050816000806101000a81548173ffffffffffffffffffffffffffffffffffffffff021916908373ffffffffffffffffffffffffffffffffffffffff1602179055508173ffffffffffffffffffffffffffffffffffffffff168173ffffffffffffffffffffffffffffffffffffffff167f8be0079c531659141344cd1fd0a4f28419497f9722a3daafe3b4186f6b6457e060405160405180910390a35050565b600080fd5b600073ffffffffffffffffffffffffffffffffffffffff82169050919050565b6000620002768262000249565b9050919050565b620002888162000269565b81146200029457600080fd5b50565b600081519050620002a8816200027d565b92915050565b600060208284031215620002c757620002c662000244565b5b6000620002d78482850162000297565b91505092915050565b620002eb8162000269565b82525050565b6000602082019050620003086000830184620002e0565b92915050565b600082825260208201905092915050565b7f5a65726f20616464726573730000000000000000000000000000000000000000600082015250565b600062000357600c836200030e565b915062000364826200031f565b602082019050919050565b600060208201905081810360008301526200038a8162000348565b9050919050565b611aa980620003a16000396000f3fe608060405234801561001057600080fd5b50600436106100f55760003560e01c8063b5f522f711610097578063d82f718411610066578063d82f71841461024e578063f2fde38b1461027f578063f7d975771461029b578063fdd5880a146102b7576100f5565b8063b5f522f7146101c4578063ba278e08146101fa578063bec3fa1714610216578063c6e52e7e14610232576100f5565b80637975ce28116100d35780637975ce28146101505780638da5cb5b1461016c578063a95c4d621461018a578063abfbac4b146101a8576100f5565b8063144fa6d7146100fa578063715018a61461011657806375f721f914610120575b600080fd5b610114600480360381019061010f9190610f53565b6102e7565b005b61011e6103a2565b005b61013a60048036038101906101359190610fb6565b6103b6565b6040516101479190611005565b60405180910390f35b61016a60048036038101906101659190610fb6565b610400565b005b6101746107d3565b604051610181919061102f565b60405180910390f35b6101926107fc565b60405161019f91906110a9565b60405180910390f35b6101c260048036038101906101bd9190610fb6565b610822565b005b6101de60048036038101906101d991906110c4565b61084f565b6040516101f197969594939291906110f1565b60405180910390f35b610214600480360381019061020f9190610fb6565b610891565b005b610230600480360381019061022b9190611160565b6108be565b005b61024c600480360381019061024791906111a0565b6109a9565b005b610268600480360381019061026391906110c4565b610a6b565b6040516102769291906113be565b60405180910390f35b61029960048036038101906102949190610f53565b610c38565b005b6102b560048036038101906102b09190610fb6565b610cbe565b005b6102d160048036038101906102cc91906113f5565b610ceb565b6040516102de9190611005565b60405180910390f35b6102ef610d4e565b600073ffffffffffffffffffffffffffffffffffffffff168173ffffffffffffffffffffffffffffffffffffffff160361035e576040517f08c379a000000000000000000000000000000000000000000000000000000000815260040161035590611492565b60405180910390fd5b80600260006101000a81548173ffffffffffffffffffffffffffffffffffffffff021916908373ffffffffffffffffffffffffffffffffffffffff16021790555050565b6103aa610d4e565b6103b46000610dd5565b565b60008060036000858152602001908152602001600020905060008160020154670de0b6b3a7640000856103e991906114e1565b6103f39190611552565b9050809250505092915050565b610408610e99565b600060036000848152602001908152602001600020905080600001544211610465576040517f08c379a000000000000000000000000000000000000000000000000000000000815260040161045c906115cf565b60405180910390fd5b806001015442106104ab576040517f08c379a00000000000000000000000000000000000000000000000000000000081526004016104a29061163b565b60405180910390fd5b80600501548210156104f2576040517f08c379a00000000000000000000000000000000000000000000000000000000081526004016104e9906116a7565b60405180910390fd5b8060060154821115610539576040517f08c379a000000000000000000000000000000000000000000000000000000000815260040161053090611713565b60405180910390fd5b60008160030154826004015461054f9190611733565b905060008260020154670de0b6b3a76400008561056c91906114e1565b6105769190611552565b9050808210156105bb576040517f08c379a00000000000000000000000000000000000000000000000000000000081526004016105b2906117b3565b60405180910390fd5b600260009054906101000a900473ffffffffffffffffffffffffffffffffffffffff1673ffffffffffffffffffffffffffffffffffffffff166323b872dd3330876040518463ffffffff1660e01b815260040161061a939291906117d3565b6020604051808303816000875af1158015610639573d6000803e3d6000fd5b505050506040513d601f19601f8201168201806040525081019061065d9190611842565b61069c576040517f08c379a0000000000000000000000000000000000000000000000000000000008152600401610693906118bb565b60405180910390fd5b808360070160003373ffffffffffffffffffffffffffffffffffffffff1673ffffffffffffffffffffffffffffffffffffffff16815260200190815260200160002060008282546106ed91906118db565b925050819055508083600301600082825461070891906118db565b9250508190555082600801339080600181540180825580915050600190039060005260206000200160009091909190916101000a81548173ffffffffffffffffffffffffffffffffffffffff021916908373ffffffffffffffffffffffffffffffffffffffff1602179055503373ffffffffffffffffffffffffffffffffffffffff167f28cab0d660ed8aedd61a8c9db00b97f6a2d67e07d87795994f440b18bc5f1aa382876040516107bc92919061190f565b60405180910390a25050506107cf610edf565b5050565b60008060009054906101000a900473ffffffffffffffffffffffffffffffffffffffff16905090565b600260009054906101000a900473ffffffffffffffffffffffffffffffffffffffff1681565b61082a610d4e565b6000600360008481526020019081526020016000209050818160010181905550505050565b60036020528060005260406000206000915090508060000154908060010154908060020154908060030154908060040154908060050154908060060154905087565b610899610d4e565b6000600360008481526020019081526020016000209050818160000181905550505050565b6108c6610d4e565b600260009054906101000a900473ffffffffffffffffffffffffffffffffffffffff1673ffffffffffffffffffffffffffffffffffffffff1663a9059cbb83836040518363ffffffff1660e01b8152600401610923929190611938565b6020604051808303816000875af1158015610942573d6000803e3d6000fd5b505050506040513d601f19601f820116820180604052508101906109669190611842565b6109a5576040517f08c379a000000000000000000000000000000000000000000000000000000000815260040161099c906118bb565b60405180910390fd5b5050565b6109b1610d4e565b6000600360008981526020019081526020016000206004015414610a0a576040517f08c379a0000000000000000000000000000000000000000000000000000000008152600401610a01906119ad565b60405180910390fd5b6000600360008981526020019081526020016000209050868160000181905550858160010181905550848160020181905550600081600301819055508381600401819055508181600501819055508281600601819055505050505050505050565b60608060006003600085815260200190815260200160002090506000816008018054905067ffffffffffffffff811115610aa857610aa76119cd565b5b604051908082528060200260200182016040528015610ad65781602001602082028036833780820191505090505b50905060005b8260080180549050811015610b9f57826007016000846008018381548110610b0757610b066119fc565b5b9060005260206000200160009054906101000a900473ffffffffffffffffffffffffffffffffffffffff1673ffffffffffffffffffffffffffffffffffffffff1673ffffffffffffffffffffffffffffffffffffffff16815260200190815260200160002054828281518110610b8057610b7f6119fc565b5b6020026020010181815250508080610b9790611a2b565b915050610adc565b50816008018181805480602002602001604051908101604052809291908181526020018280548015610c2657602002820191906000526020600020905b8160009054906101000a900473ffffffffffffffffffffffffffffffffffffffff1673ffffffffffffffffffffffffffffffffffffffff1681526020019060010190808311610bdc575b50505050509150935093505050915091565b610c40610d4e565b600073ffffffffffffffffffffffffffffffffffffffff168173ffffffffffffffffffffffffffffffffffffffff1603610cb25760006040517f1e4fbdf7000000000000000000000000000000000000000000000000000000008152600401610ca9919061102f565b60405180910390fd5b610cbb81610dd5565b50565b610cc6610d4e565b6000600360008481526020019081526020016000209050818160020181905550505050565b6000806003600085815260200190815260200160002060070160008473ffffffffffffffffffffffffffffffffffffffff1673ffffffffffffffffffffffffffffffffffffffff1681526020019081526020016000205490508091505092915050565b610d56610ee8565b73ffffffffffffffffffffffffffffffffffffffff16610d746107d3565b73ffffffffffffffffffffffffffffffffffffffff1614610dd357610d97610ee8565b6040517f118cdaa7000000000000000000000000000000000000000000000000000000008152600401610dca919061102f565b60405180910390fd5b565b60008060009054906101000a900473ffffffffffffffffffffffffffffffffffffffff169050816000806101000a81548173ffffffffffffffffffffffffffffffffffffffff021916908373ffffffffffffffffffffffffffffffffffffffff1602179055508173ffffffffffffffffffffffffffffffffffffffff168173ffffffffffffffffffffffffffffffffffffffff167f8be0079c531659141344cd1fd0a4f28419497f9722a3daafe3b4186f6b6457e060405160405180910390a35050565b600260015403610ed5576040517f3ee5aeb500000000000000000000000000000000000000000000000000000000815260040160405180910390fd5b6002600181905550565b60018081905550565b600033905090565b600080fd5b600073ffffffffffffffffffffffffffffffffffffffff82169050919050565b6000610f2082610ef5565b9050919050565b610f3081610f15565b8114610f3b57600080fd5b50565b600081359050610f4d81610f27565b92915050565b600060208284031215610f6957610f68610ef0565b5b6000610f7784828501610f3e565b91505092915050565b6000819050919050565b610f9381610f80565b8114610f9e57600080fd5b50565b600081359050610fb081610f8a565b92915050565b60008060408385031215610fcd57610fcc610ef0565b5b6000610fdb85828601610fa1565b9250506020610fec85828601610fa1565b9150509250929050565b610fff81610f80565b82525050565b600060208201905061101a6000830184610ff6565b92915050565b61102981610f15565b82525050565b60006020820190506110446000830184611020565b92915050565b6000819050919050565b600061106f61106a61106584610ef5565b61104a565b610ef5565b9050919050565b600061108182611054565b9050919050565b600061109382611076565b9050919050565b6110a381611088565b82525050565b60006020820190506110be600083018461109a565b92915050565b6000602082840312156110da576110d9610ef0565b5b60006110e884828501610fa1565b91505092915050565b600060e082019050611106600083018a610ff6565b6111136020830189610ff6565b6111206040830188610ff6565b61112d6060830187610ff6565b61113a6080830186610ff6565b61114760a0830185610ff6565b61115460c0830184610ff6565b98975050505050505050565b6000806040838503121561117757611176610ef0565b5b600061118585828601610f3e565b925050602061119685828601610fa1565b9150509250929050565b600080600080600080600060e0888a0312156111bf576111be610ef0565b5b60006111cd8a828b01610fa1565b97505060206111de8a828b01610fa1565b96505060406111ef8a828b01610fa1565b95505060606112008a828b01610fa1565b94505060806112118a828b01610fa1565b93505060a06112228a828b01610fa1565b92505060c06112338a828b01610fa1565b91505092959891949750929550565b600081519050919050565b600082825260208201905092915050565b6000819050602082019050919050565b61127781610f15565b82525050565b6000611289838361126e565b60208301905092915050565b6000602082019050919050565b60006112ad82611242565b6112b7818561124d565b93506112c28361125e565b8060005b838110156112f35781516112da888261127d565b97506112e583611295565b9250506001810190506112c6565b5085935050505092915050565b600081519050919050565b600082825260208201905092915050565b6000819050602082019050919050565b61133581610f80565b82525050565b6000611347838361132c565b60208301905092915050565b6000602082019050919050565b600061136b82611300565b611375818561130b565b93506113808361131c565b8060005b838110156113b1578151611398888261133b565b97506113a383611353565b925050600181019050611384565b5085935050505092915050565b600060408201905081810360008301526113d881856112a2565b905081810360208301526113ec8184611360565b90509392505050565b6000806040838503121561140c5761140b610ef0565b5b600061141a85828601610fa1565b925050602061142b85828601610f3e565b9150509250929050565b600082825260208201905092915050565b7f5a65726f20616464726573730000000000000000000000000000000000000000600082015250565b600061147c600c83611435565b915061148782611446565b602082019050919050565b600060208201905081810360008301526114ab8161146f565b9050919050565b7f4e487b7100000000000000000000000000000000000000000000000000000000600052601160045260246000fd5b60006114ec82610f80565b91506114f783610f80565b925082820261150581610f80565b9150828204841483151761151c5761151b6114b2565b5b5092915050565b7f4e487b7100000000000000000000000000000000000000000000000000000000600052601260045260246000fd5b600061155d82610f80565b915061156883610f80565b92508261157857611577611523565b5b828204905092915050565b7f53616c65206861736e2774207374617274656420796574000000000000000000600082015250565b60006115b9601783611435565b91506115c482611583565b602082019050919050565b600060208201905081810360008301526115e8816115ac565b9050919050565b7f53616c6520686173206265656e20636f6d706c65746564000000000000000000600082015250565b6000611625601783611435565b9150611630826115ef565b602082019050919050565b6000602082019050818103600083015261165481611618565b9050919050565b7f6c657373207468616e20746865206d696e696d756d0000000000000000000000600082015250565b6000611691601583611435565b915061169c8261165b565b602082019050919050565b600060208201905081810360008301526116c081611684565b9050919050565b7f6d6f7265207468616e20746865206d6178696d756d0000000000000000000000600082015250565b60006116fd601583611435565b9150611708826116c7565b602082019050919050565b6000602082019050818103600083015261172c816116f0565b9050919050565b600061173e82610f80565b915061174983610f80565b9250828203905081811115611761576117606114b2565b5b92915050565b7f4e6f7420656e6f75676820746f6b656e7320696e20706f6f6c00000000000000600082015250565b600061179d601983611435565b91506117a882611767565b602082019050919050565b600060208201905081810360008301526117cc81611790565b9050919050565b60006060820190506117e86000830186611020565b6117f56020830185611020565b6118026040830184610ff6565b949350505050565b60008115159050919050565b61181f8161180a565b811461182a57600080fd5b50565b60008151905061183c81611816565b92915050565b60006020828403121561185857611857610ef0565b5b60006118668482850161182d565b91505092915050565b7f5472616e73666572206661696c65640000000000000000000000000000000000600082015250565b60006118a5600f83611435565b91506118b08261186f565b602082019050919050565b600060208201905081810360008301526118d481611898565b9050919050565b60006118e682610f80565b91506118f183610f80565b9250828201905080821115611909576119086114b2565b5b92915050565b60006040820190506119246000830185610ff6565b6119316020830184610ff6565b9392505050565b600060408201905061194d6000830185611020565b61195a6020830184610ff6565b9392505050565b7f53616c6520616c72656164792065786973740000000000000000000000000000600082015250565b6000611997601283611435565b91506119a282611961565b602082019050919050565b600060208201905081810360008301526119c68161198a565b9050919050565b7f4e487b7100000000000000000000000000000000000000000000000000000000600052604160045260246000fd5b7f4e487b7100000000000000000000000000000000000000000000000000000000600052603260045260246000fd5b6000611a3682610f80565b91507fffffffffffffffffffffffffffffffffffffffffffffffffffffffffffffffff8203611a6857611a676114b2565b5b60018201905091905056fea2646970667358221220b719dfa271b3730bd139986fc77187731220104ca7e4fc25a33476ed99adf34c64736f6c63430008140033",
  "linkReferences": {},
  "deployedLinkReferences": {}
}