{
  "_format": "hh-sol-artifact-1",
  "contractName": "PausableMintBurn",
  "sourceName": "contracts/PausableMintBurn.sol",
  "abi": [
    {
      "inputs": [
        {
          "internalType": "string",
          "name": "name",
          "type": "string"
        },
        {
          "internalType": "string",
          "name": "symbol_",
          "type": "string"
        },
        {
          "internalType": "address",
          "name": "initialOwner",
          "type": "address"
        }
      ],
      "stateMutability": "nonpayable",
      "type": "constructor"
    },
    {
      "inputs": [
        {
          "internalType": "address",
          "name": "spender",
          "type": "address"
        },
        {
          "internalType": "uint256",
          "name": "allowance",
          "type": "uint256"
        },
        {
          "internalType": "uint256",
          "name": "needed",
          "type": "uint256"
        }
      ],
      "name": "ERC20InsufficientAllowance",
      "type": "error"
    },
    {
      "inputs": [
        {
          "internalType": "address",
          "name": "sender",
          "type": "address"
        },
        {
          "internalType": "uint256",
          "name": "balance",
          "type": "uint256"
        },
        {
          "internalType": "uint256",
          "name": "needed",
          "type": "uint256"
        }
      ],
      "name": "ERC20InsufficientBalance",
      "type": "error"
    },
    {
      "inputs": [
        {
          "internalType": "address",
          "name": "approver",
          "type": "address"
        }
      ],
      "name": "ERC20InvalidApprover",
      "type": "error"
    },
    {
      "inputs": [
        {
          "internalType": "address",
          "name": "receiver",
          "type": "address"
        }
      ],
      "name": "ERC20InvalidReceiver",
      "type": "error"
    },
    {
      "inputs": [
        {
          "internalType": "address",
          "name": "sender",
          "type": "address"
        }
      ],
      "name": "ERC20InvalidSender",
      "type": "error"
    },
    {
      "inputs": [
        {
          "internalType": "address",
          "name": "spender",
          "type": "address"
        }
      ],
      "name": "ERC20InvalidSpender",
      "type": "error"
    },
    {
      "inputs": [],
      "name": "EnforcedPause",
      "type": "error"
    },
    {
      "inputs": [],
      "name": "ExpectedPause",
      "type": "error"
    },
    {
      "inputs": [
        {
          "internalType": "address",
          "name": "owner",
          "type": "address"
        }
      ],
      "name": "OwnableInvalidOwner",
      "type": "error"
    },
    {
      "inputs": [
        {
          "internalType": "address",
          "name": "account",
          "type": "address"
        }
      ],
      "name": "OwnableUnauthorizedAccount",
      "type": "error"
    },
    {
      "anonymous": false,
      "inputs": [
        {
          "indexed": true,
          "internalType": "address",
          "name": "owner",
          "type": "address"
        },
        {
          "indexed": true,
          "internalType": "address",
          "name": "spender",
          "type": "address"
        },
        {
          "indexed": false,
          "internalType": "uint256",
          "name": "value",
          "type": "uint256"
        }
      ],
      "name": "Approval",
      "type": "event"
    },
    {
      "anonymous": false,
      "inputs": [
        {
          "indexed": true,
          "internalType": "address",
          "name": "previousOwner",
          "type": "address"
        },
        {
          "indexed": true,
          "internalType": "address",
          "name": "newOwner",
          "type": "address"
        }
      ],
      "name": "OwnershipTransferred",
      "type": "event"
    },
    {
      "anonymous": false,
      "inputs": [
        {
          "indexed": false,
          "internalType": "address",
          "name": "account",
          "type": "address"
        }
      ],
      "name": "Paused",
      "type": "event"
    },
    {
      "anonymous": false,
      "inputs": [
        {
          "indexed": true,
          "internalType": "address",
          "name": "from",
          "type": "address"
        },
        {
          "indexed": true,
          "internalType": "address",
          "name": "to",
          "type": "address"
        },
        {
          "indexed": false,
          "internalType": "uint256",
          "name": "value",
          "type": "uint256"
        }
      ],
      "name": "Transfer",
      "type": "event"
    },
    {
      "anonymous": false,
      "inputs": [
        {
          "indexed": false,
          "internalType": "address",
          "name": "account",
          "type": "address"
        }
      ],
      "name": "Unpaused",
      "type": "event"
    },
    {
      "inputs": [
        {
          "internalType": "address",
          "name": "owner",
          "type": "address"
        },
        {
          "internalType": "address",
          "name": "spender",
          "type": "address"
        }
      ],
      "name": "allowance",
      "outputs": [
        {
          "internalType": "uint256",
          "name": "",
          "type": "uint256"
        }
      ],
      "stateMutability": "view",
      "type": "function"
    },
    {
      "inputs": [
        {
          "internalType": "address",
          "name": "spender",
          "type": "address"
        },
        {
          "internalType": "uint256",
          "name": "value",
          "type": "uint256"
        }
      ],
      "name": "approve",
      "outputs": [
        {
          "internalType": "bool",
          "name": "",
          "type": "bool"
        }
      ],
      "stateMutability": "nonpayable",
      "type": "function"
    },
    {
      "inputs": [
        {
          "internalType": "address",
          "name": "account",
          "type": "address"
        }
      ],
      "name": "balanceOf",
      "outputs": [
        {
          "internalType": "uint256",
          "name": "",
          "type": "uint256"
        }
      ],
      "stateMutability": "view",
      "type": "function"
    },
    {
      "inputs": [
        {
          "internalType": "address",
          "name": "acount",
          "type": "address"
        },
        {
          "internalType": "uint256",
          "name": "amount",
          "type": "uint256"
        }
      ],
      "name": "burn",
      "outputs": [],
      "stateMutability": "nonpayable",
      "type": "function"
    },
    {
      "inputs": [],
      "name": "decimals",
      "outputs": [
        {
          "internalType": "uint8",
          "name": "",
          "type": "uint8"
        }
      ],
      "stateMutability": "view",
      "type": "function"
    },
    {
      "inputs": [
        {
          "internalType": "address",
          "name": "to",
          "type": "address"
        },
        {
          "internalType": "uint256",
          "name": "amount",
          "type": "uint256"
        }
      ],
      "name": "mint",
      "outputs": [],
      "stateMutability": "nonpayable",
      "type": "function"
    },
    {
      "inputs": [],
      "name": "name",
      "outputs": [
        {
          "internalType": "string",
          "name": "",
          "type": "string"
        }
      ],
      "stateMutability": "view",
      "type": "function"
    },
    {
      "inputs": [],
      "name": "owner",
      "outputs": [
        {
          "internalType": "address",
          "name": "",
          "type": "address"
        }
      ],
      "stateMutability": "view",
      "type": "function"
    },
    {
      "inputs": [],
      "name": "pause",
      "outputs": [],
      "stateMutability": "nonpayable",
      "type": "function"
    },
    {
      "inputs": [],
      "name": "paused",
      "outputs": [
        {
          "internalType": "bool",
          "name": "",
          "type": "bool"
        }
      ],
      "stateMutability": "view",
      "type": "function"
    },
    {
      "inputs": [],
      "name": "renounceOwnership",
      "outputs": [],
      "stateMutability": "nonpayable",
      "type": "function"
    },
    {
      "inputs": [],
      "name": "symbol",
      "outputs": [
        {
          "internalType": "string",
          "name": "",
          "type": "string"
        }
      ],
      "stateMutability": "view",
      "type": "function"
    },
    {
      "inputs": [],
      "name": "totalSupply",
      "outputs": [
        {
          "internalType": "uint256",
          "name": "",
          "type": "uint256"
        }
      ],
      "stateMutability": "view",
      "type": "function"
    },
    {
      "inputs": [
        {
          "internalType": "address",
          "name": "to",
          "type": "address"
        },
        {
          "internalType": "uint256",
          "name": "value",
          "type": "uint256"
        }
      ],
      "name": "transfer",
      "outputs": [
        {
          "internalType": "bool",
          "name": "",
          "type": "bool"
        }
      ],
      "stateMutability": "nonpayable",
      "type": "function"
    },
    {
      "inputs": [
        {
          "internalType": "address",
          "name": "from",
          "type": "address"
        },
        {
          "internalType": "address",
          "name": "to",
          "type": "address"
        },
        {
          "internalType": "uint256",
          "name": "value",
          "type": "uint256"
        }
      ],
      "name": "transferFrom",
      "outputs": [
        {
          "internalType": "bool",
          "name": "",
          "type": "bool"
        }
      ],
      "stateMutability": "nonpayable",
      "type": "function"
    },
    {
      "inputs": [
        {
          "internalType": "address",
          "name": "newOwner",
          "type": "address"
        }
      ],
      "name": "transferOwnership",
      "outputs": [],
      "stateMutability": "nonpayable",
      "type": "function"
    },
    {
      "inputs": [],
      "name": "unpause",
      "outputs": [],
      "stateMutability": "nonpayable",
      "type": "function"
    }
  ],
  "bytecode": "0x60806040523480156200001157600080fd5b5060405162001c3938038062001c398339818101604052810190620000379190620003c9565b80838381600390816200004b9190620006ae565b5080600490816200005d9190620006ae565b5050506000600560006101000a81548160ff021916908315150217905550600073ffffffffffffffffffffffffffffffffffffffff168173ffffffffffffffffffffffffffffffffffffffff1603620000f05760006040517f1e4fbdf7000000000000000000000000000000000000000000000000000000008152600401620000e79190620007a6565b60405180910390fd5b62000101816200010b60201b60201c565b50505050620007c3565b6000600560019054906101000a900473ffffffffffffffffffffffffffffffffffffffff16905081600560016101000a81548173ffffffffffffffffffffffffffffffffffffffff021916908373ffffffffffffffffffffffffffffffffffffffff1602179055508173ffffffffffffffffffffffffffffffffffffffff168173ffffffffffffffffffffffffffffffffffffffff167f8be0079c531659141344cd1fd0a4f28419497f9722a3daafe3b4186f6b6457e060405160405180910390a35050565b6000604051905090565b600080fd5b600080fd5b600080fd5b600080fd5b6000601f19601f8301169050919050565b7f4e487b7100000000000000000000000000000000000000000000000000000000600052604160045260246000fd5b6200023a82620001ef565b810181811067ffffffffffffffff821117156200025c576200025b62000200565b5b80604052505050565b600062000271620001d1565b90506200027f82826200022f565b919050565b600067ffffffffffffffff821115620002a257620002a162000200565b5b620002ad82620001ef565b9050602081019050919050565b60005b83811015620002da578082015181840152602081019050620002bd565b60008484015250505050565b6000620002fd620002f78462000284565b62000265565b9050828152602081018484840111156200031c576200031b620001ea565b5b62000329848285620002ba565b509392505050565b600082601f830112620003495762000348620001e5565b5b81516200035b848260208601620002e6565b91505092915050565b600073ffffffffffffffffffffffffffffffffffffffff82169050919050565b6000620003918262000364565b9050919050565b620003a38162000384565b8114620003af57600080fd5b50565b600081519050620003c38162000398565b92915050565b600080600060608486031215620003e557620003e4620001db565b5b600084015167ffffffffffffffff811115620004065762000405620001e0565b5b620004148682870162000331565b935050602084015167ffffffffffffffff811115620004385762000437620001e0565b5b620004468682870162000331565b92505060406200045986828701620003b2565b9150509250925092565b600081519050919050565b7f4e487b7100000000000000000000000000000000000000000000000000000000600052602260045260246000fd5b60006002820490506001821680620004b657607f821691505b602082108103620004cc57620004cb6200046e565b5b50919050565b60008190508160005260206000209050919050565b60006020601f8301049050919050565b600082821b905092915050565b600060088302620005367fffffffffffffffffffffffffffffffffffffffffffffffffffffffffffffffff82620004f7565b620005428683620004f7565b95508019841693508086168417925050509392505050565b6000819050919050565b6000819050919050565b60006200058f6200058962000583846200055a565b62000564565b6200055a565b9050919050565b6000819050919050565b620005ab836200056e565b620005c3620005ba8262000596565b84845462000504565b825550505050565b600090565b620005da620005cb565b620005e7818484620005a0565b505050565b5b818110156200060f5762000603600082620005d0565b600181019050620005ed565b5050565b601f8211156200065e576200062881620004d2565b6200063384620004e7565b8101602085101562000643578190505b6200065b6200065285620004e7565b830182620005ec565b50505b505050565b600082821c905092915050565b6000620006836000198460080262000663565b1980831691505092915050565b60006200069e838362000670565b9150826002028217905092915050565b620006b98262000463565b67ffffffffffffffff811115620006d557620006d462000200565b5b620006e182546200049d565b620006ee82828562000613565b600060209050601f83116001811462000726576000841562000711578287015190505b6200071d858262000690565b8655506200078d565b601f1984166200073686620004d2565b60005b82811015620007605784890151825560018201915060208501945060208101905062000739565b868310156200078057848901516200077c601f89168262000670565b8355505b6001600288020188555050505b505050505050565b620007a08162000384565b82525050565b6000602082019050620007bd600083018462000795565b92915050565b61146680620007d36000396000f3fe608060405234801561001057600080fd5b506004361061010b5760003560e01c806370a08231116100a257806395d89b411161007157806395d89b41146102705780639dc29fac1461028e578063a9059cbb146102aa578063dd62ed3e146102da578063f2fde38b1461030a5761010b565b806370a082311461020e578063715018a61461023e5780638456cb59146102485780638da5cb5b146102525761010b565b8063313ce567116100de578063313ce567146101ac5780633f4ba83a146101ca57806340c10f19146101d45780635c975abb146101f05761010b565b806306fdde0314610110578063095ea7b31461012e57806318160ddd1461015e57806323b872dd1461017c575b600080fd5b610118610326565b60405161012591906110ba565b60405180910390f35b61014860048036038101906101439190611175565b6103b8565b60405161015591906111d0565b60405180910390f35b6101666103db565b60405161017391906111fa565b60405180910390f35b61019660048036038101906101919190611215565b6103e5565b6040516101a391906111d0565b60405180910390f35b6101b4610414565b6040516101c19190611284565b60405180910390f35b6101d261041d565b005b6101ee60048036038101906101e99190611175565b61042f565b005b6101f8610445565b60405161020591906111d0565b60405180910390f35b6102286004803603810190610223919061129f565b61045c565b60405161023591906111fa565b60405180910390f35b6102466104a4565b005b6102506104b8565b005b61025a6104ca565b60405161026791906112db565b60405180910390f35b6102786104f4565b60405161028591906110ba565b60405180910390f35b6102a860048036038101906102a39190611175565b610586565b005b6102c460048036038101906102bf9190611175565b61059c565b6040516102d191906111d0565b60405180910390f35b6102f460048036038101906102ef91906112f6565b6105bf565b60405161030191906111fa565b60405180910390f35b610324600480360381019061031f919061129f565b610646565b005b60606003805461033590611365565b80601f016020809104026020016040519081016040528092919081815260200182805461036190611365565b80156103ae5780601f10610383576101008083540402835291602001916103ae565b820191906000526020600020905b81548152906001019060200180831161039157829003601f168201915b5050505050905090565b6000806103c36106cc565b90506103d08185856106d4565b600191505092915050565b6000600254905090565b6000806103f06106cc565b90506103fd8582856106e6565b61040885858561077a565b60019150509392505050565b60006012905090565b61042561086e565b61042d6108f5565b565b61043761086e565b6104418282610958565b5050565b6000600560009054906101000a900460ff16905090565b60008060008373ffffffffffffffffffffffffffffffffffffffff1673ffffffffffffffffffffffffffffffffffffffff168152602001908152602001600020549050919050565b6104ac61086e565b6104b660006109da565b565b6104c061086e565b6104c8610aa0565b565b6000600560019054906101000a900473ffffffffffffffffffffffffffffffffffffffff16905090565b60606004805461050390611365565b80601f016020809104026020016040519081016040528092919081815260200182805461052f90611365565b801561057c5780601f106105515761010080835404028352916020019161057c565b820191906000526020600020905b81548152906001019060200180831161055f57829003601f168201915b5050505050905090565b61058e61086e565b6105988282610b03565b5050565b6000806105a76106cc565b90506105b481858561077a565b600191505092915050565b6000600160008473ffffffffffffffffffffffffffffffffffffffff1673ffffffffffffffffffffffffffffffffffffffff16815260200190815260200160002060008373ffffffffffffffffffffffffffffffffffffffff1673ffffffffffffffffffffffffffffffffffffffff16815260200190815260200160002054905092915050565b61064e61086e565b600073ffffffffffffffffffffffffffffffffffffffff168173ffffffffffffffffffffffffffffffffffffffff16036106c05760006040517f1e4fbdf70000000000000000000000000000000000000000000000000000000081526004016106b791906112db565b60405180910390fd5b6106c9816109da565b50565b600033905090565b6106e18383836001610b85565b505050565b60006106f284846105bf565b90507fffffffffffffffffffffffffffffffffffffffffffffffffffffffffffffffff81146107745781811015610764578281836040517ffb8f41b200000000000000000000000000000000000000000000000000000000815260040161075b93929190611396565b60405180910390fd5b61077384848484036000610b85565b5b50505050565b600073ffffffffffffffffffffffffffffffffffffffff168373ffffffffffffffffffffffffffffffffffffffff16036107ec5760006040517f96c6fd1e0000000000000000000000000000000000000000000000000000000081526004016107e391906112db565b60405180910390fd5b600073ffffffffffffffffffffffffffffffffffffffff168273ffffffffffffffffffffffffffffffffffffffff160361085e5760006040517fec442f0500000000000000000000000000000000000000000000000000000000815260040161085591906112db565b60405180910390fd5b610869838383610d5c565b505050565b6108766106cc565b73ffffffffffffffffffffffffffffffffffffffff166108946104ca565b73ffffffffffffffffffffffffffffffffffffffff16146108f3576108b76106cc565b6040517f118cdaa70000000000000000000000000000000000000000000000000000000081526004016108ea91906112db565b60405180910390fd5b565b6108fd610d6c565b6000600560006101000a81548160ff0219169083151502179055507f5db9ee0a495bf2e6ff9c91a7834c1ba4fdd244a5e8aa4e537bd38aeae4b073aa6109416106cc565b60405161094e91906112db565b60405180910390a1565b600073ffffffffffffffffffffffffffffffffffffffff168273ffffffffffffffffffffffffffffffffffffffff16036109ca5760006040517fec442f050000000000000000000000000000000000000000000000000000000081526004016109c191906112db565b60405180910390fd5b6109d660008383610d5c565b5050565b6000600560019054906101000a900473ffffffffffffffffffffffffffffffffffffffff16905081600560016101000a81548173ffffffffffffffffffffffffffffffffffffffff021916908373ffffffffffffffffffffffffffffffffffffffff1602179055508173ffffffffffffffffffffffffffffffffffffffff168173ffffffffffffffffffffffffffffffffffffffff167f8be0079c531659141344cd1fd0a4f28419497f9722a3daafe3b4186f6b6457e060405160405180910390a35050565b610aa8610dac565b6001600560006101000a81548160ff0219169083151502179055507f62e78cea01bee320cd4e420270b5ea74000d11b0c9f74754ebdbfc544b05a258610aec6106cc565b604051610af991906112db565b60405180910390a1565b600073ffffffffffffffffffffffffffffffffffffffff168273ffffffffffffffffffffffffffffffffffffffff1603610b755760006040517f96c6fd1e000000000000000000000000000000000000000000000000000000008152600401610b6c91906112db565b60405180910390fd5b610b8182600083610d5c565b5050565b600073ffffffffffffffffffffffffffffffffffffffff168473ffffffffffffffffffffffffffffffffffffffff1603610bf75760006040517fe602df05000000000000000000000000000000000000000000000000000000008152600401610bee91906112db565b60405180910390fd5b600073ffffffffffffffffffffffffffffffffffffffff168373ffffffffffffffffffffffffffffffffffffffff1603610c695760006040517f94280d62000000000000000000000000000000000000000000000000000000008152600401610c6091906112db565b60405180910390fd5b81600160008673ffffffffffffffffffffffffffffffffffffffff1673ffffffffffffffffffffffffffffffffffffffff16815260200190815260200160002060008573ffffffffffffffffffffffffffffffffffffffff1673ffffffffffffffffffffffffffffffffffffffff168152602001908152602001600020819055508015610d56578273ffffffffffffffffffffffffffffffffffffffff168473ffffffffffffffffffffffffffffffffffffffff167f8c5be1e5ebec7d5bd14f71427d1e84f3dd0314c0f7b2291e5b200ac8c7c3b92584604051610d4d91906111fa565b60405180910390a35b50505050565b610d67838383610ded565b505050565b610d74610445565b610daa576040517f8dfc202b00000000000000000000000000000000000000000000000000000000815260040160405180910390fd5b565b610db4610445565b15610deb576040517fd93c066500000000000000000000000000000000000000000000000000000000815260040160405180910390fd5b565b610df5610dac565b610e00838383610e05565b505050565b600073ffffffffffffffffffffffffffffffffffffffff168373ffffffffffffffffffffffffffffffffffffffff1603610e57578060026000828254610e4b91906113fc565b92505081905550610f2a565b60008060008573ffffffffffffffffffffffffffffffffffffffff1673ffffffffffffffffffffffffffffffffffffffff16815260200190815260200160002054905081811015610ee3578381836040517fe450d38c000000000000000000000000000000000000000000000000000000008152600401610eda93929190611396565b60405180910390fd5b8181036000808673ffffffffffffffffffffffffffffffffffffffff1673ffffffffffffffffffffffffffffffffffffffff16815260200190815260200160002081905550505b600073ffffffffffffffffffffffffffffffffffffffff168273ffffffffffffffffffffffffffffffffffffffff1603610f735780600260008282540392505081905550610fc0565b806000808473ffffffffffffffffffffffffffffffffffffffff1673ffffffffffffffffffffffffffffffffffffffff168152602001908152602001600020600082825401925050819055505b8173ffffffffffffffffffffffffffffffffffffffff168373ffffffffffffffffffffffffffffffffffffffff167fddf252ad1be2c89b69c2b068fc378daa952ba7f163c4a11628f55a4df523b3ef8360405161101d91906111fa565b60405180910390a3505050565b600081519050919050565b600082825260208201905092915050565b60005b83811015611064578082015181840152602081019050611049565b60008484015250505050565b6000601f19601f8301169050919050565b600061108c8261102a565b6110968185611035565b93506110a6818560208601611046565b6110af81611070565b840191505092915050565b600060208201905081810360008301526110d48184611081565b905092915050565b600080fd5b600073ffffffffffffffffffffffffffffffffffffffff82169050919050565b600061110c826110e1565b9050919050565b61111c81611101565b811461112757600080fd5b50565b60008135905061113981611113565b92915050565b6000819050919050565b6111528161113f565b811461115d57600080fd5b50565b60008135905061116f81611149565b92915050565b6000806040838503121561118c5761118b6110dc565b5b600061119a8582860161112a565b92505060206111ab85828601611160565b9150509250929050565b60008115159050919050565b6111ca816111b5565b82525050565b60006020820190506111e560008301846111c1565b92915050565b6111f48161113f565b82525050565b600060208201905061120f60008301846111eb565b92915050565b60008060006060848603121561122e5761122d6110dc565b5b600061123c8682870161112a565b935050602061124d8682870161112a565b925050604061125e86828701611160565b9150509250925092565b600060ff82169050919050565b61127e81611268565b82525050565b60006020820190506112996000830184611275565b92915050565b6000602082840312156112b5576112b46110dc565b5b60006112c38482850161112a565b91505092915050565b6112d581611101565b82525050565b60006020820190506112f060008301846112cc565b92915050565b6000806040838503121561130d5761130c6110dc565b5b600061131b8582860161112a565b925050602061132c8582860161112a565b9150509250929050565b7f4e487b7100000000000000000000000000000000000000000000000000000000600052602260045260246000fd5b6000600282049050600182168061137d57607f821691505b6020821081036113905761138f611336565b5b50919050565b60006060820190506113ab60008301866112cc565b6113b860208301856111eb565b6113c560408301846111eb565b949350505050565b7f4e487b7100000000000000000000000000000000000000000000000000000000600052601160045260246000fd5b60006114078261113f565b91506114128361113f565b925082820190508082111561142a576114296113cd565b5b9291505056fea26469706673582212208f08f4a28339a281357b1851305a9d0c17fb01534b0b553b31ffac57bf679cc264736f6c63430008140033",
  "linkReferences": {},
  "deployedLinkReferences": {}
}