{
  "_format": "hh-sol-artifact-1",
  "contractName": "Vesting",
  "sourceName": "contracts/vesting.sol",
  "abi": [
    {
      "inputs": [
        {
          "internalType": "address",
          "name": "_vestingToken",
          "type": "address"
        },
        {
          "internalType": "address",
          "name": "_initialAddress",
          "type": "address"
        }
      ],
      "stateMutability": "nonpayable",
      "type": "constructor"
    },
    {
      "inputs": [
        {
          "internalType": "address",
          "name": "owner",
          "type": "address"
        }
      ],
      "name": "OwnableInvalidOwner",
      "type": "error"
    },
    {
      "inputs": [
        {
          "internalType": "address",
          "name": "account",
          "type": "address"
        }
      ],
      "name": "OwnableUnauthorizedAccount",
      "type": "error"
    },
    {
      "inputs": [],
      "name": "ReentrancyGuardReentrantCall",
      "type": "error"
    },
    {
      "anonymous": false,
      "inputs": [
        {
          "indexed": true,
          "internalType": "address",
          "name": "user",
          "type": "address"
        },
        {
          "indexed": true,
          "internalType": "uint256",
          "name": "vestingId",
          "type": "uint256"
        },
        {
          "components": [
            {
              "internalType": "uint256",
              "name": "totalAmount",
              "type": "uint256"
            },
            {
              "internalType": "uint256",
              "name": "amountReleased",
              "type": "uint256"
            },
            {
              "internalType": "uint256",
              "name": "claimedPeriodAmount",
              "type": "uint256"
            }
          ],
          "indexed": false,
          "internalType": "struct Vesting.VestingSchedule",
          "name": "schedule",
          "type": "tuple"
        }
      ],
      "name": "BeneficiaryAdded",
      "type": "event"
    },
    {
      "anonymous": false,
      "inputs": [
        {
          "indexed": true,
          "internalType": "address[]",
          "name": "users",
          "type": "address[]"
        },
        {
          "indexed": false,
          "internalType": "uint256[]",
          "name": "totalAmounts",
          "type": "uint256[]"
        },
        {
          "indexed": true,
          "internalType": "uint256",
          "name": "vestingId",
          "type": "uint256"
        }
      ],
      "name": "BeneficiaryBatchAdded",
      "type": "event"
    },
    {
      "anonymous": false,
      "inputs": [
        {
          "indexed": true,
          "internalType": "address",
          "name": "user",
          "type": "address"
        },
        {
          "indexed": true,
          "internalType": "uint256",
          "name": "vestingId",
          "type": "uint256"
        },
        {
          "indexed": false,
          "internalType": "uint256",
          "name": "amount",
          "type": "uint256"
        }
      ],
      "name": "Claimed",
      "type": "event"
    },
    {
      "anonymous": false,
      "inputs": [
        {
          "indexed": true,
          "internalType": "address",
          "name": "previousOwner",
          "type": "address"
        },
        {
          "indexed": true,
          "internalType": "address",
          "name": "newOwner",
          "type": "address"
        }
      ],
      "name": "OwnershipTransferred",
      "type": "event"
    },
    {
      "anonymous": false,
      "inputs": [
        {
          "indexed": true,
          "internalType": "uint256",
          "name": "vestingId",
          "type": "uint256"
        },
        {
          "indexed": false,
          "internalType": "uint256",
          "name": "newTime",
          "type": "uint256"
        }
      ],
      "name": "StartTimeUpdated",
      "type": "event"
    },
    {
      "anonymous": false,
      "inputs": [
        {
          "indexed": false,
          "internalType": "uint256",
          "name": "newPeriod",
          "type": "uint256"
        }
      ],
      "name": "UnlockPeriodUpdated",
      "type": "event"
    },
    {
      "inputs": [
        {
          "internalType": "address[]",
          "name": "_beneficiaries",
          "type": "address[]"
        },
        {
          "internalType": "uint256[]",
          "name": "_totalAmounts",
          "type": "uint256[]"
        },
        {
          "internalType": "uint256",
          "name": "_vestingId",
          "type": "uint256"
        }
      ],
      "name": "addBatchBeneficiary",
      "outputs": [],
      "stateMutability": "nonpayable",
      "type": "function"
    },
    {
      "inputs": [
        {
          "internalType": "address",
          "name": "_beneficiary",
          "type": "address"
        },
        {
          "internalType": "uint256",
          "name": "_totalAmount",
          "type": "uint256"
        },
        {
          "internalType": "uint256",
          "name": "_vestingId",
          "type": "uint256"
        }
      ],
      "name": "addBeneficiary",
      "outputs": [],
      "stateMutability": "nonpayable",
      "type": "function"
    },
    {
      "inputs": [
        {
          "internalType": "address",
          "name": "_beneficiary",
          "type": "address"
        },
        {
          "internalType": "uint256",
          "name": "_vestingId",
          "type": "uint256"
        }
      ],
      "name": "availableToClaim",
      "outputs": [
        {
          "internalType": "uint256",
          "name": "",
          "type": "uint256"
        },
        {
          "internalType": "uint256",
          "name": "",
          "type": "uint256"
        }
      ],
      "stateMutability": "view",
      "type": "function"
    },
    {
      "inputs": [
        {
          "internalType": "uint256",
          "name": "_vestingId",
          "type": "uint256"
        }
      ],
      "name": "claim",
      "outputs": [],
      "stateMutability": "nonpayable",
      "type": "function"
    },
    {
      "inputs": [
        {
          "internalType": "uint256",
          "name": "_vestingId",
          "type": "uint256"
        },
        {
          "internalType": "uint256",
          "name": "_pool",
          "type": "uint256"
        },
        {
          "internalType": "uint256",
          "name": "_cliffPeriod",
          "type": "uint256"
        },
        {
          "internalType": "uint256",
          "name": "_vestingPeriod",
          "type": "uint256"
        },
        {
          "internalType": "uint256",
          "name": "_tge",
          "type": "uint256"
        },
        {
          "internalType": "uint256",
          "name": "_startTimeStamp",
          "type": "uint256"
        }
      ],
      "name": "createVesting",
      "outputs": [],
      "stateMutability": "nonpayable",
      "type": "function"
    },
    {
      "inputs": [
        {
          "internalType": "uint256",
          "name": "_vestingId",
          "type": "uint256"
        }
      ],
      "name": "getBeneficiaries",
      "outputs": [
        {
          "internalType": "address[]",
          "name": "",
          "type": "address[]"
        }
      ],
      "stateMutability": "view",
      "type": "function"
    },
    {
      "inputs": [
        {
          "internalType": "uint256",
          "name": "_vestingId",
          "type": "uint256"
        },
        {
          "internalType": "address",
          "name": "_beneficiary",
          "type": "address"
        }
      ],
      "name": "getBeneficiaryInfo",
      "outputs": [
        {
          "components": [
            {
              "internalType": "uint256",
              "name": "totalAmount",
              "type": "uint256"
            },
            {
              "internalType": "uint256",
              "name": "amountReleased",
              "type": "uint256"
            },
            {
              "internalType": "uint256",
              "name": "claimedPeriodAmount",
              "type": "uint256"
            }
          ],
          "internalType": "struct Vesting.VestingSchedule",
          "name": "",
          "type": "tuple"
        }
      ],
      "stateMutability": "view",
      "type": "function"
    },
    {
      "inputs": [
        {
          "internalType": "uint256",
          "name": "_vestingId",
          "type": "uint256"
        }
      ],
      "name": "getNextClaimTimestamp",
      "outputs": [
        {
          "internalType": "uint256",
          "name": "",
          "type": "uint256"
        }
      ],
      "stateMutability": "view",
      "type": "function"
    },
    {
      "inputs": [],
      "name": "owner",
      "outputs": [
        {
          "internalType": "address",
          "name": "",
          "type": "address"
        }
      ],
      "stateMutability": "view",
      "type": "function"
    },
    {
      "inputs": [],
      "name": "renounceOwnership",
      "outputs": [],
      "stateMutability": "nonpayable",
      "type": "function"
    },
    {
      "inputs": [
        {
          "internalType": "uint256",
          "name": "_vestingId",
          "type": "uint256"
        },
        {
          "internalType": "uint256",
          "name": "_timestamp",
          "type": "uint256"
        }
      ],
      "name": "setStartTime",
      "outputs": [],
      "stateMutability": "nonpayable",
      "type": "function"
    },
    {
      "inputs": [
        {
          "internalType": "address",
          "name": "_token",
          "type": "address"
        }
      ],
      "name": "setTokenAddress",
      "outputs": [],
      "stateMutability": "nonpayable",
      "type": "function"
    },
    {
      "inputs": [
        {
          "internalType": "uint256",
          "name": "newPeriod",
          "type": "uint256"
        }
      ],
      "name": "setUnlockPeriod",
      "outputs": [],
      "stateMutability": "nonpayable",
      "type": "function"
    },
    {
      "inputs": [],
      "name": "token",
      "outputs": [
        {
          "internalType": "contract IERC20",
          "name": "",
          "type": "address"
        }
      ],
      "stateMutability": "view",
      "type": "function"
    },
    {
      "inputs": [
        {
          "internalType": "address",
          "name": "newOwner",
          "type": "address"
        }
      ],
      "name": "transferOwnership",
      "outputs": [],
      "stateMutability": "nonpayable",
      "type": "function"
    },
    {
      "inputs": [
        {
          "internalType": "address",
          "name": "account",
          "type": "address"
        },
        {
          "internalType": "uint256",
          "name": "amount",
          "type": "uint256"
        }
      ],
      "name": "transferTokens",
      "outputs": [],
      "stateMutability": "nonpayable",
      "type": "function"
    },
    {
      "inputs": [],
      "name": "unlockPeriod",
      "outputs": [
        {
          "internalType": "uint256",
          "name": "",
          "type": "uint256"
        }
      ],
      "stateMutability": "view",
      "type": "function"
    },
    {
      "inputs": [
        {
          "internalType": "uint256",
          "name": "",
          "type": "uint256"
        }
      ],
      "name": "vestingInfo",
      "outputs": [
        {
          "internalType": "uint256",
          "name": "pool",
          "type": "uint256"
        },
        {
          "internalType": "uint256",
          "name": "beneficiariesAmount",
          "type": "uint256"
        },
        {
          "internalType": "uint256",
          "name": "cliffPeriod",
          "type": "uint256"
        },
        {
          "internalType": "uint256",
          "name": "vestingPeriod",
          "type": "uint256"
        },
        {
          "internalType": "uint256",
          "name": "tge",
          "type": "uint256"
        },
        {
          "internalType": "uint256",
          "name": "startTimestamp",
          "type": "uint256"
        }
      ],
      "stateMutability": "view",
      "type": "function"
    }
  ],
  "bytecode": "0x608060405262278d006003553480156200001857600080fd5b506040516200271b3803806200271b83398181016040528101906200003e9190620002b6565b80600073ffffffffffffffffffffffffffffffffffffffff168173ffffffffffffffffffffffffffffffffffffffff1603620000b45760006040517f1e4fbdf7000000000000000000000000000000000000000000000000000000008152600401620000ab91906200030e565b60405180910390fd5b620000c5816200018860201b60201c565b5060018081905550600073ffffffffffffffffffffffffffffffffffffffff168273ffffffffffffffffffffffffffffffffffffffff16036200013f576040517f08c379a000000000000000000000000000000000000000000000000000000000815260040162000136906200038c565b60405180910390fd5b81600260006101000a81548173ffffffffffffffffffffffffffffffffffffffff021916908373ffffffffffffffffffffffffffffffffffffffff1602179055505050620003ae565b60008060009054906101000a900473ffffffffffffffffffffffffffffffffffffffff169050816000806101000a81548173ffffffffffffffffffffffffffffffffffffffff021916908373ffffffffffffffffffffffffffffffffffffffff1602179055508173ffffffffffffffffffffffffffffffffffffffff168173ffffffffffffffffffffffffffffffffffffffff167f8be0079c531659141344cd1fd0a4f28419497f9722a3daafe3b4186f6b6457e060405160405180910390a35050565b600080fd5b600073ffffffffffffffffffffffffffffffffffffffff82169050919050565b60006200027e8262000251565b9050919050565b620002908162000271565b81146200029c57600080fd5b50565b600081519050620002b08162000285565b92915050565b60008060408385031215620002d057620002cf6200024c565b5b6000620002e0858286016200029f565b9250506020620002f3858286016200029f565b9150509250929050565b620003088162000271565b82525050565b6000602082019050620003256000830184620002fd565b92915050565b600082825260208201905092915050565b7f5a65726f20616464726573730000000000000000000000000000000000000000600082015250565b600062000374600c836200032b565b915062000381826200033c565b602082019050919050565b60006020820190508181036000830152620003a78162000365565b9050919050565b61235d80620003be6000396000f3fe608060405234801561001057600080fd5b50600436106101165760003560e01c8063afb6783d116100a2578063e78a5e2611610071578063e78a5e26146102bb578063eaf32641146102eb578063f2fde38b1461031b578063f74bc9d614610337578063fc0c546a1461035357610116565b8063afb6783d14610236578063ba278e0814610267578063bec3fa1714610283578063c960ed351461029f57610116565b806366ffcf5f116100e957806366ffcf5f1461018d578063715018a6146101c2578063783804d9146101cc5780638cfac1da146101fc5780638da5cb5b1461021857610116565b806320d3a0b41461011b57806326a4e8d214610139578063379607f5146101555780633d0ddf8414610171575b600080fd5b610123610371565b604051610130919061146c565b60405180910390f35b610153600480360381019061014e91906114ef565b610377565b005b61016f600480360381019061016a9190611548565b610432565b005b61018b60048036038101906101869190611548565b610645565b005b6101a760048036038101906101a29190611548565b6106d3565b6040516101b996959493929190611575565b60405180910390f35b6101ca61070f565b005b6101e660048036038101906101e19190611548565b610723565b6040516101f39190611694565b60405180910390f35b61021660048036038101906102119190611771565b6107c7565b005b6102206108dd565b60405161022d9190611815565b60405180910390f35b610250600480360381019061024b9190611830565b610906565b60405161025e929190611870565b60405180910390f35b610281600480360381019061027c9190611899565b610b95565b005b61029d60048036038101906102989190611830565b610c37565b005b6102b960048036038101906102b491906118d9565b610d22565b005b6102d560048036038101906102d09190611966565b610d81565b6040516102e291906119f7565b60405180910390f35b61030560048036038101906103009190611548565b610e0d565b604051610312919061146c565b60405180910390f35b610335600480360381019061033091906114ef565b610f6b565b005b610351600480360381019061034c9190611a12565b610ff1565b005b61035b61126a565b6040516103689190611ac4565b60405180910390f35b60035481565b61037f611290565b600073ffffffffffffffffffffffffffffffffffffffff168173ffffffffffffffffffffffffffffffffffffffff16036103ee576040517f08c379a00000000000000000000000000000000000000000000000000000000081526004016103e590611b3c565b60405180910390fd5b80600260006101000a81548173ffffffffffffffffffffffffffffffffffffffff021916908373ffffffffffffffffffffffffffffffffffffffff16021790555050565b61043a611317565b6000806104473384610906565b915091506000821161048e576040517f08c379a000000000000000000000000000000000000000000000000000000000815260040161048590611ba8565b60405180910390fd5b60006004600085815260200190815260200160002060070160003373ffffffffffffffffffffffffffffffffffffffff1673ffffffffffffffffffffffffffffffffffffffff1681526020019081526020016000209050828160010160008282546104f99190611bf7565b92505081905550818160020181905550600260009054906101000a900473ffffffffffffffffffffffffffffffffffffffff1673ffffffffffffffffffffffffffffffffffffffff1663a9059cbb33856040518363ffffffff1660e01b8152600401610566929190611c2b565b6020604051808303816000875af1158015610585573d6000803e3d6000fd5b505050506040513d601f19601f820116820180604052508101906105a99190611c8c565b6105e8576040517f08c379a00000000000000000000000000000000000000000000000000000000081526004016105df90611d05565b60405180910390fd5b833373ffffffffffffffffffffffffffffffffffffffff167f987d620f307ff6b94d58743cb7a7509f24071586a77759b77c2d4e29f75a2f9a8560405161062f919061146c565b60405180910390a350505061064261135d565b50565b61064d611290565b600060035411610692576040517f08c379a000000000000000000000000000000000000000000000000000000000815260040161068990611d71565b60405180910390fd5b806003819055507fde54dea4de0ecd62134dfb7475515f86b11b5112290f869c50c668af0a3c10bb816040516106c8919061146c565b60405180910390a150565b60046020528060005260406000206000915090508060000154908060010154908060030154908060040154908060050154908060060154905086565b610717611290565b6107216000611366565b565b6060600460008381526020019081526020016000206002018054806020026020016040519081016040528092919081815260200182805480156107bb57602002820191906000526020600020905b8160009054906101000a900473ffffffffffffffffffffffffffffffffffffffff1673ffffffffffffffffffffffffffffffffffffffff1681526020019060010190808311610771575b50505050509050919050565b6107cf611290565b828290508585905014610817576040517f08c379a000000000000000000000000000000000000000000000000000000000815260040161080e90611ddd565b60405180910390fd5b60005b858590508110156108835761087086868381811061083b5761083a611dfd565b5b905060200201602081019061085091906114ef565b85858481811061086357610862611dfd565b5b9050602002013584610ff1565b808061087b90611e2c565b91505061081a565b50808585604051610895929190611f31565b60405180910390207f47684e4c8b75302a9059691d4522a924798fb2e3f464887a45f129605cca945085856040516108ce929190611fc5565b60405180910390a35050505050565b60008060009054906101000a900473ffffffffffffffffffffffffffffffffffffffff16905090565b60008060006004600085815260200190815260200160002060070160008673ffffffffffffffffffffffffffffffffffffffff1673ffffffffffffffffffffffffffffffffffffffff16815260200190815260200160002060405180606001604052908160008201548152602001600182015481526020016002820154815250509050600060046000868152602001908152602001600020600601549050600081141580156109b55750428111155b6109f4576040517f08c379a00000000000000000000000000000000000000000000000000000000081526004016109eb90612035565b60405180910390fd5b6000826000015190506000606460046000898152602001908152602001600020600501548560000151610a279190612055565b610a3191906120c6565b905060008183610a4191906120f7565b90506000600460008a81526020019081526020016000206003015485610a679190611bf7565b90506000600460008b81526020019081526020016000206004015486610a8d9190611bf7565b905086602001518511610ab157600087604001519850985050505050505050610b8e565b428211610b7057428111610af857866020015185610acf91906120f7565b6003548383610ade91906120f7565b610ae891906120c6565b9850985050505050505050610b8e565b60006003548342610b0991906120f7565b610b1391906120c6565b9050600460008c815260200190815260200160002060040154600354896040015183610b3f91906120f7565b610b499190612055565b85610b549190612055565b610b5e91906120c6565b81995099505050505050505050610b8e565b866020015184610b8091906120f7565b600098509850505050505050505b9250929050565b610b9d611290565b42811015610be0576040517f08c379a0000000000000000000000000000000000000000000000000000000008152600401610bd790612177565b60405180910390fd5b806004600084815260200190815260200160002060060181905550817fc5d96bb822e978dea83cc07291d16b73acdc37f56327b69c33500fdbded5de6582604051610c2b919061146c565b60405180910390a25050565b610c3f611290565b600260009054906101000a900473ffffffffffffffffffffffffffffffffffffffff1673ffffffffffffffffffffffffffffffffffffffff1663a9059cbb83836040518363ffffffff1660e01b8152600401610c9c929190611c2b565b6020604051808303816000875af1158015610cbb573d6000803e3d6000fd5b505050506040513d601f19601f82011682018060405250810190610cdf9190611c8c565b610d1e576040517f08c379a0000000000000000000000000000000000000000000000000000000008152600401610d1590611d05565b60405180910390fd5b5050565b610d2a611290565b60006004600088815260200190815260200160002090508581600001819055506000816001018190555084816003018190555083816004018190555082816005018190555081816006018190555050505050505050565b610d89611432565b6004600084815260200190815260200160002060070160008373ffffffffffffffffffffffffffffffffffffffff1673ffffffffffffffffffffffffffffffffffffffff1681526020019081526020016000206040518060600160405290816000820154815260200160018201548152602001600282015481525050905092915050565b6000806004600084815260200190815260200160002060060154905080421015610e6c576040517f08c379a0000000000000000000000000000000000000000000000000000000008152600401610e6390612035565b60405180910390fd5b60008103610e7e576000915050610f66565b600460008481526020019081526020016000206003015481610ea09190611bf7565b4210610f33576000600354600460008681526020019081526020016000206003015483610ecd9190611bf7565b42610ed891906120f7565b610ee291906120c6565b9050600354600182610ef49190611bf7565b610efe9190612055565b600460008681526020019081526020016000206003015483610f209190611bf7565b610f2a9190611bf7565b92505050610f66565b600354600460008581526020019081526020016000206003015482610f589190611bf7565b610f629190611bf7565b9150505b919050565b610f73611290565b600073ffffffffffffffffffffffffffffffffffffffff168173ffffffffffffffffffffffffffffffffffffffff1603610fe55760006040517f1e4fbdf7000000000000000000000000000000000000000000000000000000008152600401610fdc9190611815565b60405180910390fd5b610fee81611366565b50565b610ff9611290565b600073ffffffffffffffffffffffffffffffffffffffff168373ffffffffffffffffffffffffffffffffffffffff1603611068576040517f08c379a000000000000000000000000000000000000000000000000000000000815260040161105f90612209565b60405180910390fd5b600082116110ab576040517f08c379a00000000000000000000000000000000000000000000000000000000081526004016110a29061229b565b60405180910390fd5b8160046000838152602001908152602001600020600001541015611104576040517f08c379a00000000000000000000000000000000000000000000000000000000081526004016110fb90612307565b60405180910390fd5b60405180606001604052808381526020016000815260200160008152506004600083815260200190815260200160002060070160008573ffffffffffffffffffffffffffffffffffffffff1673ffffffffffffffffffffffffffffffffffffffff16815260200190815260200160002060008201518160000155602082015181600101556040820151816002015590505060046000828152602001908152602001600020600201839080600181540180825580915050600190039060005260206000200160009091909190916101000a81548173ffffffffffffffffffffffffffffffffffffffff021916908373ffffffffffffffffffffffffffffffffffffffff1602179055508160046000838152602001908152602001600020600001600082825461123291906120f7565b9250508190555060046000828152602001908152602001600020600101600081548092919061126090611e2c565b9190505550505050565b600260009054906101000a900473ffffffffffffffffffffffffffffffffffffffff1681565b61129861142a565b73ffffffffffffffffffffffffffffffffffffffff166112b66108dd565b73ffffffffffffffffffffffffffffffffffffffff1614611315576112d961142a565b6040517f118cdaa700000000000000000000000000000000000000000000000000000000815260040161130c9190611815565b60405180910390fd5b565b600260015403611353576040517f3ee5aeb500000000000000000000000000000000000000000000000000000000815260040160405180910390fd5b6002600181905550565b60018081905550565b60008060009054906101000a900473ffffffffffffffffffffffffffffffffffffffff169050816000806101000a81548173ffffffffffffffffffffffffffffffffffffffff021916908373ffffffffffffffffffffffffffffffffffffffff1602179055508173ffffffffffffffffffffffffffffffffffffffff168173ffffffffffffffffffffffffffffffffffffffff167f8be0079c531659141344cd1fd0a4f28419497f9722a3daafe3b4186f6b6457e060405160405180910390a35050565b600033905090565b60405180606001604052806000815260200160008152602001600081525090565b6000819050919050565b61146681611453565b82525050565b6000602082019050611481600083018461145d565b92915050565b600080fd5b600080fd5b600073ffffffffffffffffffffffffffffffffffffffff82169050919050565b60006114bc82611491565b9050919050565b6114cc816114b1565b81146114d757600080fd5b50565b6000813590506114e9816114c3565b92915050565b60006020828403121561150557611504611487565b5b6000611513848285016114da565b91505092915050565b61152581611453565b811461153057600080fd5b50565b6000813590506115428161151c565b92915050565b60006020828403121561155e5761155d611487565b5b600061156c84828501611533565b91505092915050565b600060c08201905061158a600083018961145d565b611597602083018861145d565b6115a4604083018761145d565b6115b1606083018661145d565b6115be608083018561145d565b6115cb60a083018461145d565b979650505050505050565b600081519050919050565b600082825260208201905092915050565b6000819050602082019050919050565b61160b816114b1565b82525050565b600061161d8383611602565b60208301905092915050565b6000602082019050919050565b6000611641826115d6565b61164b81856115e1565b9350611656836115f2565b8060005b8381101561168757815161166e8882611611565b975061167983611629565b92505060018101905061165a565b5085935050505092915050565b600060208201905081810360008301526116ae8184611636565b905092915050565b600080fd5b600080fd5b600080fd5b60008083601f8401126116db576116da6116b6565b5b8235905067ffffffffffffffff8111156116f8576116f76116bb565b5b602083019150836020820283011115611714576117136116c0565b5b9250929050565b60008083601f840112611731576117306116b6565b5b8235905067ffffffffffffffff81111561174e5761174d6116bb565b5b60208301915083602082028301111561176a576117696116c0565b5b9250929050565b60008060008060006060868803121561178d5761178c611487565b5b600086013567ffffffffffffffff8111156117ab576117aa61148c565b5b6117b7888289016116c5565b9550955050602086013567ffffffffffffffff8111156117da576117d961148c565b5b6117e68882890161171b565b935093505060406117f988828901611533565b9150509295509295909350565b61180f816114b1565b82525050565b600060208201905061182a6000830184611806565b92915050565b6000806040838503121561184757611846611487565b5b6000611855858286016114da565b925050602061186685828601611533565b9150509250929050565b6000604082019050611885600083018561145d565b611892602083018461145d565b9392505050565b600080604083850312156118b0576118af611487565b5b60006118be85828601611533565b92505060206118cf85828601611533565b9150509250929050565b60008060008060008060c087890312156118f6576118f5611487565b5b600061190489828a01611533565b965050602061191589828a01611533565b955050604061192689828a01611533565b945050606061193789828a01611533565b935050608061194889828a01611533565b92505060a061195989828a01611533565b9150509295509295509295565b6000806040838503121561197d5761197c611487565b5b600061198b85828601611533565b925050602061199c858286016114da565b9150509250929050565b6119af81611453565b82525050565b6060820160008201516119cb60008501826119a6565b5060208201516119de60208501826119a6565b5060408201516119f160408501826119a6565b50505050565b6000606082019050611a0c60008301846119b5565b92915050565b600080600060608486031215611a2b57611a2a611487565b5b6000611a39868287016114da565b9350506020611a4a86828701611533565b9250506040611a5b86828701611533565b9150509250925092565b6000819050919050565b6000611a8a611a85611a8084611491565b611a65565b611491565b9050919050565b6000611a9c82611a6f565b9050919050565b6000611aae82611a91565b9050919050565b611abe81611aa3565b82525050565b6000602082019050611ad96000830184611ab5565b92915050565b600082825260208201905092915050565b7f546f6b656e20616464726573732063616e6e6f74206265207a65726f00000000600082015250565b6000611b26601c83611adf565b9150611b3182611af0565b602082019050919050565b60006020820190508181036000830152611b5581611b19565b9050919050565b7f546865726520617265206e6f20746f6b656e7320617661696c61626c65000000600082015250565b6000611b92601d83611adf565b9150611b9d82611b5c565b602082019050919050565b60006020820190508181036000830152611bc181611b85565b9050919050565b7f4e487b7100000000000000000000000000000000000000000000000000000000600052601160045260246000fd5b6000611c0282611453565b9150611c0d83611453565b9250828201905080821115611c2557611c24611bc8565b5b92915050565b6000604082019050611c406000830185611806565b611c4d602083018461145d565b9392505050565b60008115159050919050565b611c6981611c54565b8114611c7457600080fd5b50565b600081519050611c8681611c60565b92915050565b600060208284031215611ca257611ca1611487565b5b6000611cb084828501611c77565b91505092915050565b7f5472616e73666572206661696c65640000000000000000000000000000000000600082015250565b6000611cef600f83611adf565b9150611cfa82611cb9565b602082019050919050565b60006020820190508181036000830152611d1e81611ce2565b9050919050565b7f506572696f642063616e206e6f74206265207a65726f00000000000000000000600082015250565b6000611d5b601683611adf565b9150611d6682611d25565b602082019050919050565b60006020820190508181036000830152611d8a81611d4e565b9050919050565b7f4c656e6774682073686f756c6420626520657175616c00000000000000000000600082015250565b6000611dc7601683611adf565b9150611dd282611d91565b602082019050919050565b60006020820190508181036000830152611df681611dba565b9050919050565b7f4e487b7100000000000000000000000000000000000000000000000000000000600052603260045260246000fd5b6000611e3782611453565b91507fffffffffffffffffffffffffffffffffffffffffffffffffffffffffffffffff8203611e6957611e68611bc8565b5b600182019050919050565b600081905092915050565b6000819050919050565b611e92816114b1565b82525050565b6000611ea48383611e89565b60208301905092915050565b6000611ebf60208401846114da565b905092915050565b6000602082019050919050565b6000611ee08385611e74565b9350611eeb82611e7f565b8060005b85811015611f2457611f018284611eb0565b611f0b8882611e98565b9750611f1683611ec7565b925050600181019050611eef565b5085925050509392505050565b6000611f3e828486611ed4565b91508190509392505050565b600082825260208201905092915050565b600080fd5b82818337505050565b6000611f758385611f4a565b93507f07ffffffffffffffffffffffffffffffffffffffffffffffffffffffffffffff831115611fa857611fa7611f5b565b5b602083029250611fb9838584611f60565b82840190509392505050565b60006020820190508181036000830152611fe0818486611f69565b90509392505050565b7f56657374696e67206861736e2774207374617274656420796574000000000000600082015250565b600061201f601a83611adf565b915061202a82611fe9565b602082019050919050565b6000602082019050818103600083015261204e81612012565b9050919050565b600061206082611453565b915061206b83611453565b925082820261207981611453565b915082820484148315176120905761208f611bc8565b5b5092915050565b7f4e487b7100000000000000000000000000000000000000000000000000000000600052601260045260246000fd5b60006120d182611453565b91506120dc83611453565b9250826120ec576120eb612097565b5b828204905092915050565b600061210282611453565b915061210d83611453565b925082820390508181111561212557612124611bc8565b5b92915050565b7f53746172742074696d652063616e6e6f7420626520696e207468652070617374600082015250565b6000612161602083611adf565b915061216c8261212b565b602082019050919050565b6000602082019050818103600083015261219081612154565b9050919050565b7f42656e65666963696172792063616e6e6f74206265207a65726f20616464726560008201527f7373000000000000000000000000000000000000000000000000000000000000602082015250565b60006121f3602283611adf565b91506121fe82612197565b604082019050919050565b60006020820190508181036000830152612222816121e6565b9050919050565b7f546f74616c20616d6f756e74206d75737420626520677265617465722074686160008201527f6e207a65726f0000000000000000000000000000000000000000000000000000602082015250565b6000612285602683611adf565b915061229082612229565b604082019050919050565b600060208201905081810360008301526122b481612278565b9050919050565b7f4e6f20746f6b656e7320696e20706f6f6c000000000000000000000000000000600082015250565b60006122f1601183611adf565b91506122fc826122bb565b602082019050919050565b60006020820190508181036000830152612320816122e4565b905091905056fea264697066735822122028cfd1e7cb07f9b097db851a73c29bb633d4b64d0c1e6144f4cae94cd0db4c1e64736f6c63430008140033",
  "linkReferences": {},
  "deployedLinkReferences": {}
}