{
  "_format": "hh-sol-artifact-1",
  "contractName": "Staking",
  "sourceName": "contracts/Staking.sol",
  "abi": [
    {
      "inputs": [
        {
          "internalType": "address",
          "name": "_stakingToken",
          "type": "address"
        },
        {
          "internalType": "uint256",
          "name": "_minStake",
          "type": "uint256"
        },
        {
          "internalType": "uint256",
          "name": "_maxStake",
          "type": "uint256"
        },
        {
          "internalType": "uint256",
          "name": "_lockPeriod",
          "type": "uint256"
        },
        {
          "internalType": "uint256",
          "name": "_rewardRate",
          "type": "uint256"
        },
        {
          "internalType": "address",
          "name": "_initialAddress",
          "type": "address"
        },
        {
          "internalType": "uint256",
          "name": "_poolValue",
          "type": "uint256"
        }
      ],
      "stateMutability": "nonpayable",
      "type": "constructor"
    },
    {
      "inputs": [
        {
          "internalType": "address",
          "name": "owner",
          "type": "address"
        }
      ],
      "name": "OwnableInvalidOwner",
      "type": "error"
    },
    {
      "inputs": [
        {
          "internalType": "address",
          "name": "account",
          "type": "address"
        }
      ],
      "name": "OwnableUnauthorizedAccount",
      "type": "error"
    },
    {
      "anonymous": false,
      "inputs": [
        {
          "indexed": true,
          "internalType": "address",
          "name": "previousOwner",
          "type": "address"
        },
        {
          "indexed": true,
          "internalType": "address",
          "name": "newOwner",
          "type": "address"
        }
      ],
      "name": "OwnershipTransferred",
      "type": "event"
    },
    {
      "inputs": [
        {
          "internalType": "address",
          "name": "userAddress",
          "type": "address"
        },
        {
          "internalType": "uint256",
          "name": "stakeIndex",
          "type": "uint256"
        }
      ],
      "name": "calculateReward",
      "outputs": [
        {
          "internalType": "uint256",
          "name": "rewardAmount",
          "type": "uint256"
        }
      ],
      "stateMutability": "view",
      "type": "function"
    },
    {
      "inputs": [
        {
          "internalType": "uint256",
          "name": "_rewardRate",
          "type": "uint256"
        }
      ],
      "name": "changeRewardRate",
      "outputs": [],
      "stateMutability": "nonpayable",
      "type": "function"
    },
    {
      "inputs": [],
      "name": "claimAllRewards",
      "outputs": [],
      "stateMutability": "nonpayable",
      "type": "function"
    },
    {
      "inputs": [
        {
          "internalType": "uint256",
          "name": "stakeIndex",
          "type": "uint256"
        }
      ],
      "name": "claimReward",
      "outputs": [],
      "stateMutability": "nonpayable",
      "type": "function"
    },
    {
      "inputs": [
        {
          "internalType": "address",
          "name": "userAddress",
          "type": "address"
        }
      ],
      "name": "getUserStakes",
      "outputs": [
        {
          "components": [
            {
              "internalType": "uint256",
              "name": "amount",
              "type": "uint256"
            },
            {
              "internalType": "uint256",
              "name": "startTime",
              "type": "uint256"
            },
            {
              "internalType": "uint256",
              "name": "lastClaimTimestamp",
              "type": "uint256"
            }
          ],
          "internalType": "struct Staking.Stake[]",
          "name": "userStakes",
          "type": "tuple[]"
        }
      ],
      "stateMutability": "view",
      "type": "function"
    },
    {
      "inputs": [],
      "name": "lockPeriod",
      "outputs": [
        {
          "internalType": "uint256",
          "name": "",
          "type": "uint256"
        }
      ],
      "stateMutability": "view",
      "type": "function"
    },
    {
      "inputs": [],
      "name": "maxStake",
      "outputs": [
        {
          "internalType": "uint256",
          "name": "",
          "type": "uint256"
        }
      ],
      "stateMutability": "view",
      "type": "function"
    },
    {
      "inputs": [],
      "name": "minStake",
      "outputs": [
        {
          "internalType": "uint256",
          "name": "",
          "type": "uint256"
        }
      ],
      "stateMutability": "view",
      "type": "function"
    },
    {
      "inputs": [],
      "name": "owner",
      "outputs": [
        {
          "internalType": "address",
          "name": "",
          "type": "address"
        }
      ],
      "stateMutability": "view",
      "type": "function"
    },
    {
      "inputs": [],
      "name": "poolValue",
      "outputs": [
        {
          "internalType": "uint256",
          "name": "",
          "type": "uint256"
        }
      ],
      "stateMutability": "view",
      "type": "function"
    },
    {
      "inputs": [],
      "name": "renounceOwnership",
      "outputs": [],
      "stateMutability": "nonpayable",
      "type": "function"
    },
    {
      "inputs": [],
      "name": "rewardRate",
      "outputs": [
        {
          "internalType": "uint256",
          "name": "",
          "type": "uint256"
        }
      ],
      "stateMutability": "view",
      "type": "function"
    },
    {
      "inputs": [
        {
          "internalType": "uint256",
          "name": "newLockPeriod",
          "type": "uint256"
        }
      ],
      "name": "setLockPeriod",
      "outputs": [],
      "stateMutability": "nonpayable",
      "type": "function"
    },
    {
      "inputs": [
        {
          "internalType": "uint256",
          "name": "newMaxStake",
          "type": "uint256"
        }
      ],
      "name": "setMaxStake",
      "outputs": [],
      "stateMutability": "nonpayable",
      "type": "function"
    },
    {
      "inputs": [
        {
          "internalType": "uint256",
          "name": "newMinStake",
          "type": "uint256"
        }
      ],
      "name": "setMinStake",
      "outputs": [],
      "stateMutability": "nonpayable",
      "type": "function"
    },
    {
      "inputs": [
        {
          "internalType": "uint256",
          "name": "_amount",
          "type": "uint256"
        }
      ],
      "name": "stake",
      "outputs": [],
      "stateMutability": "nonpayable",
      "type": "function"
    },
    {
      "inputs": [
        {
          "internalType": "address",
          "name": "",
          "type": "address"
        },
        {
          "internalType": "uint256",
          "name": "",
          "type": "uint256"
        }
      ],
      "name": "stakes",
      "outputs": [
        {
          "internalType": "uint256",
          "name": "amount",
          "type": "uint256"
        },
        {
          "internalType": "uint256",
          "name": "startTime",
          "type": "uint256"
        },
        {
          "internalType": "uint256",
          "name": "lastClaimTimestamp",
          "type": "uint256"
        }
      ],
      "stateMutability": "view",
      "type": "function"
    },
    {
      "inputs": [],
      "name": "stakingToken",
      "outputs": [
        {
          "internalType": "contract IERC20",
          "name": "",
          "type": "address"
        }
      ],
      "stateMutability": "view",
      "type": "function"
    },
    {
      "inputs": [],
      "name": "totalStaked",
      "outputs": [
        {
          "internalType": "uint256",
          "name": "",
          "type": "uint256"
        }
      ],
      "stateMutability": "view",
      "type": "function"
    },
    {
      "inputs": [
        {
          "internalType": "address",
          "name": "newOwner",
          "type": "address"
        }
      ],
      "name": "transferOwnership",
      "outputs": [],
      "stateMutability": "nonpayable",
      "type": "function"
    },
    {
      "inputs": [
        {
          "internalType": "address",
          "name": "",
          "type": "address"
        }
      ],
      "name": "userTotalStaked",
      "outputs": [
        {
          "internalType": "uint256",
          "name": "",
          "type": "uint256"
        }
      ],
      "stateMutability": "view",
      "type": "function"
    },
    {
      "inputs": [
        {
          "internalType": "uint256",
          "name": "stakeIndex",
          "type": "uint256"
        }
      ],
      "name": "withdraw",
      "outputs": [],
      "stateMutability": "nonpayable",
      "type": "function"
    },
    {
      "inputs": [
        {
          "internalType": "uint256",
          "name": "amount",
          "type": "uint256"
        }
      ],
      "name": "withdrawTokens",
      "outputs": [],
      "stateMutability": "nonpayable",
      "type": "function"
    }
  ],
  "bytecode": "0x60806040523480156200001157600080fd5b5060405162001e9b38038062001e9b833981810160405281019062000037919062000299565b81600073ffffffffffffffffffffffffffffffffffffffff168173ffffffffffffffffffffffffffffffffffffffff1603620000ad5760006040517f1e4fbdf7000000000000000000000000000000000000000000000000000000008152600401620000a491906200035d565b60405180910390fd5b620000be816200013060201b60201c565b5086600160006101000a81548173ffffffffffffffffffffffffffffffffffffffff021916908373ffffffffffffffffffffffffffffffffffffffff1602179055508260028190555083600381905550856004819055508460058190555080600681905550505050505050506200037a565b60008060009054906101000a900473ffffffffffffffffffffffffffffffffffffffff169050816000806101000a81548173ffffffffffffffffffffffffffffffffffffffff021916908373ffffffffffffffffffffffffffffffffffffffff1602179055508173ffffffffffffffffffffffffffffffffffffffff168173ffffffffffffffffffffffffffffffffffffffff167f8be0079c531659141344cd1fd0a4f28419497f9722a3daafe3b4186f6b6457e060405160405180910390a35050565b600080fd5b600073ffffffffffffffffffffffffffffffffffffffff82169050919050565b60006200022682620001f9565b9050919050565b620002388162000219565b81146200024457600080fd5b50565b60008151905062000258816200022d565b92915050565b6000819050919050565b62000273816200025e565b81146200027f57600080fd5b50565b600081519050620002938162000268565b92915050565b600080600080600080600060e0888a031215620002bb57620002ba620001f4565b5b6000620002cb8a828b0162000247565b9750506020620002de8a828b0162000282565b9650506040620002f18a828b0162000282565b9550506060620003048a828b0162000282565b9450506080620003178a828b0162000282565b93505060a06200032a8a828b0162000247565b92505060c06200033d8a828b0162000282565b91505092959891949750929550565b620003578162000219565b82525050565b60006020820190506200037460008301846200034c565b92915050565b611b11806200038a6000396000f3fe608060405234801561001057600080fd5b506004361061014d5760003560e01c806374f237c4116100c35780638da5cb5b1161007c5780638da5cb5b14610366578063a694fc3a14610384578063ae169a50146103a0578063b8615071146103bc578063ea1b28e0146103da578063f2fde38b146103f85761014d565b806374f237c4146102a6578063779972da146102c25780637b0a47ee146102de578063817b1cd2146102fc578063842e29811461031a5780638c80fd901461034a5761014d565b80633fd8b02f116101155780633fd8b02f146101e2578063584b62a1146102005780636fc1483714610232578063715018a61461024e578063719de1ef1461025857806372f702f3146102885761014d565b80630b83a727146101525780631852e8d91461015c5780632e1a7d4d1461018c578063315a095d146101a8578063375b3c0a146101c4575b600080fd5b61015a610414565b005b610176600480360381019061017191906112a4565b6104f7565b60405161018391906112f3565b60405180910390f35b6101a660048036038101906101a1919061130e565b6105cf565b005b6101c260048036038101906101bd919061130e565b610850565b005b6101cc610a18565b6040516101d991906112f3565b60405180910390f35b6101ea610a1e565b6040516101f791906112f3565b60405180910390f35b61021a600480360381019061021591906112a4565b610a24565b6040516102299392919061133b565b60405180910390f35b61024c6004803603810190610247919061130e565b610a6b565b005b610256610a7d565b005b610272600480360381019061026d9190611372565b610a91565b60405161027f91906112f3565b60405180910390f35b610290610aa9565b60405161029d91906113fe565b60405180910390f35b6102c060048036038101906102bb919061130e565b610acf565b005b6102dc60048036038101906102d7919061130e565b610ae1565b005b6102e6610af3565b6040516102f391906112f3565b60405180910390f35b610304610af9565b60405161031191906112f3565b60405180910390f35b610334600480360381019061032f9190611372565b610aff565b6040516103419190611519565b60405180910390f35b610364600480360381019061035f919061130e565b610bbb565b005b61036e610bcd565b60405161037b919061154a565b60405180910390f35b61039e6004803603810190610399919061130e565b610bf6565b005b6103ba60048036038101906103b5919061130e565b610eb5565b005b6103c4611026565b6040516103d191906112f3565b60405180910390f35b6103e261102c565b6040516103ef91906112f3565b60405180910390f35b610412600480360381019061040d9190611372565b611032565b005b6000600960003373ffffffffffffffffffffffffffffffffffffffff1673ffffffffffffffffffffffffffffffffffffffff168152602001908152602001600020805480602002602001604051908101604052809291908181526020016000905b828210156104c55783829060005260206000209060030201604051806060016040529081600082015481526020016001820154815260200160028201548152505081526020019060010190610475565b50505050905060005b81518110156104f3576104e081610eb5565b80806104eb90611594565b9150506104ce565b5050565b600080600960008573ffffffffffffffffffffffffffffffffffffffff1673ffffffffffffffffffffffffffffffffffffffff168152602001908152602001600020838154811061054b5761054a6115dc565b5b9060005260206000209060030201604051806060016040529081600082015481526020016001820154815260200160028201548152505090506000816040015142610596919061160b565b905064496cebb8006002548284600001516105b1919061163f565b6105bb919061163f565b6105c591906116b0565b9250505092915050565b6000600960003373ffffffffffffffffffffffffffffffffffffffff1673ffffffffffffffffffffffffffffffffffffffff1681526020019081526020016000208281548110610622576106216115dc565b5b906000526020600020906003020190506000816001015442610644919061160b565b9050600354811161068a576040517f08c379a00000000000000000000000000000000000000000000000000000000081526004016106819061173e565b60405180910390fd5b600061069633856104f7565b905080600660008282546106aa919061160b565b9250508190555060008360000154116106f8576040517f08c379a00000000000000000000000000000000000000000000000000000000081526004016106ef906117aa565b60405180910390fd5b8260000154600860003373ffffffffffffffffffffffffffffffffffffffff1673ffffffffffffffffffffffffffffffffffffffff168152602001908152602001600020600082825461074b919061160b565b92505081905550600160009054906101000a900473ffffffffffffffffffffffffffffffffffffffff1673ffffffffffffffffffffffffffffffffffffffff1663a9059cbb338386600001546107a191906117ca565b6040518363ffffffff1660e01b81526004016107be9291906117fe565b6020604051808303816000875af11580156107dd573d6000803e3d6000fd5b505050506040513d601f19601f82011682018060405250810190610801919061185f565b610840576040517f08c379a0000000000000000000000000000000000000000000000000000000008152600401610837906118d8565b60405180910390fd5b6000836000018190555050505050565b6108586110b8565b600160009054906101000a900473ffffffffffffffffffffffffffffffffffffffff1673ffffffffffffffffffffffffffffffffffffffff166370a08231306040518263ffffffff1660e01b81526004016108b3919061154a565b602060405180830381865afa1580156108d0573d6000803e3d6000fd5b505050506040513d601f19601f820116820180604052508101906108f4919061190d565b811115610936576040517f08c379a000000000000000000000000000000000000000000000000000000000815260040161092d90611986565b60405180910390fd5b600160009054906101000a900473ffffffffffffffffffffffffffffffffffffffff1673ffffffffffffffffffffffffffffffffffffffff1663a9059cbb33836040518363ffffffff1660e01b81526004016109939291906117fe565b6020604051808303816000875af11580156109b2573d6000803e3d6000fd5b505050506040513d601f19601f820116820180604052508101906109d6919061185f565b610a15576040517f08c379a0000000000000000000000000000000000000000000000000000000008152600401610a0c906118d8565b60405180910390fd5b50565b60045481565b60035481565b60096020528160005260406000208181548110610a4057600080fd5b9060005260206000209060030201600091509150508060000154908060010154908060020154905083565b610a736110b8565b8060058190555050565b610a856110b8565b610a8f600061113f565b565b60086020528060005260406000206000915090505481565b600160009054906101000a900473ffffffffffffffffffffffffffffffffffffffff1681565b610ad76110b8565b8060028190555050565b610ae96110b8565b8060038190555050565b60025481565b60075481565b6060600960008373ffffffffffffffffffffffffffffffffffffffff1673ffffffffffffffffffffffffffffffffffffffff168152602001908152602001600020805480602002602001604051908101604052809291908181526020016000905b82821015610bb05783829060005260206000209060030201604051806060016040529081600082015481526020016001820154815260200160028201548152505081526020019060010190610b60565b505050509050919050565b610bc36110b8565b8060048190555050565b60008060009054906101000a900473ffffffffffffffffffffffffffffffffffffffff16905090565b600454811015610c3b576040517f08c379a0000000000000000000000000000000000000000000000000000000008152600401610c3290611a18565b60405180910390fd5b600554600860003373ffffffffffffffffffffffffffffffffffffffff1673ffffffffffffffffffffffffffffffffffffffff168152602001908152602001600020541115610cbf576040517f08c379a0000000000000000000000000000000000000000000000000000000008152600401610cb690611a84565b60405180910390fd5b80600860003373ffffffffffffffffffffffffffffffffffffffff1673ffffffffffffffffffffffffffffffffffffffff1681526020019081526020016000206000828254610d0e91906117ca565b92505081905550600960003373ffffffffffffffffffffffffffffffffffffffff1673ffffffffffffffffffffffffffffffffffffffff168152602001908152602001600020604051806060016040528083815260200142815260200142815250908060018154018082558091505060019003906000526020600020906003020160009091909190915060008201518160000155602082015181600101556040820151816002015550508060076000828254610dca91906117ca565b92505081905550600160009054906101000a900473ffffffffffffffffffffffffffffffffffffffff1673ffffffffffffffffffffffffffffffffffffffff166323b872dd3330846040518463ffffffff1660e01b8152600401610e3093929190611aa4565b6020604051808303816000875af1158015610e4f573d6000803e3d6000fd5b505050506040513d601f19601f82011682018060405250810190610e73919061185f565b610eb2576040517f08c379a0000000000000000000000000000000000000000000000000000000008152600401610ea9906118d8565b60405180910390fd5b50565b6000610ec133836104f7565b905042600960003373ffffffffffffffffffffffffffffffffffffffff1673ffffffffffffffffffffffffffffffffffffffff1681526020019081526020016000208381548110610f1557610f146115dc565b5b906000526020600020906003020160020181905550600160009054906101000a900473ffffffffffffffffffffffffffffffffffffffff1673ffffffffffffffffffffffffffffffffffffffff1663a9059cbb33836040518363ffffffff1660e01b8152600401610f879291906117fe565b6020604051808303816000875af1158015610fa6573d6000803e3d6000fd5b505050506040513d601f19601f82011682018060405250810190610fca919061185f565b611009576040517f08c379a0000000000000000000000000000000000000000000000000000000008152600401611000906118d8565b60405180910390fd5b806006600082825461101b919061160b565b925050819055505050565b60065481565b60055481565b61103a6110b8565b600073ffffffffffffffffffffffffffffffffffffffff168173ffffffffffffffffffffffffffffffffffffffff16036110ac5760006040517f1e4fbdf70000000000000000000000000000000000000000000000000000000081526004016110a3919061154a565b60405180910390fd5b6110b58161113f565b50565b6110c0611203565b73ffffffffffffffffffffffffffffffffffffffff166110de610bcd565b73ffffffffffffffffffffffffffffffffffffffff161461113d57611101611203565b6040517f118cdaa7000000000000000000000000000000000000000000000000000000008152600401611134919061154a565b60405180910390fd5b565b60008060009054906101000a900473ffffffffffffffffffffffffffffffffffffffff169050816000806101000a81548173ffffffffffffffffffffffffffffffffffffffff021916908373ffffffffffffffffffffffffffffffffffffffff1602179055508173ffffffffffffffffffffffffffffffffffffffff168173ffffffffffffffffffffffffffffffffffffffff167f8be0079c531659141344cd1fd0a4f28419497f9722a3daafe3b4186f6b6457e060405160405180910390a35050565b600033905090565b600080fd5b600073ffffffffffffffffffffffffffffffffffffffff82169050919050565b600061123b82611210565b9050919050565b61124b81611230565b811461125657600080fd5b50565b60008135905061126881611242565b92915050565b6000819050919050565b6112818161126e565b811461128c57600080fd5b50565b60008135905061129e81611278565b92915050565b600080604083850312156112bb576112ba61120b565b5b60006112c985828601611259565b92505060206112da8582860161128f565b9150509250929050565b6112ed8161126e565b82525050565b600060208201905061130860008301846112e4565b92915050565b6000602082840312156113245761132361120b565b5b60006113328482850161128f565b91505092915050565b600060608201905061135060008301866112e4565b61135d60208301856112e4565b61136a60408301846112e4565b949350505050565b6000602082840312156113885761138761120b565b5b600061139684828501611259565b91505092915050565b6000819050919050565b60006113c46113bf6113ba84611210565b61139f565b611210565b9050919050565b60006113d6826113a9565b9050919050565b60006113e8826113cb565b9050919050565b6113f8816113dd565b82525050565b600060208201905061141360008301846113ef565b92915050565b600081519050919050565b600082825260208201905092915050565b6000819050602082019050919050565b61144e8161126e565b82525050565b60608201600082015161146a6000850182611445565b50602082015161147d6020850182611445565b5060408201516114906040850182611445565b50505050565b60006114a28383611454565b60608301905092915050565b6000602082019050919050565b60006114c682611419565b6114d08185611424565b93506114db83611435565b8060005b8381101561150c5781516114f38882611496565b97506114fe836114ae565b9250506001810190506114df565b5085935050505092915050565b6000602082019050818103600083015261153381846114bb565b905092915050565b61154481611230565b82525050565b600060208201905061155f600083018461153b565b92915050565b7f4e487b7100000000000000000000000000000000000000000000000000000000600052601160045260246000fd5b600061159f8261126e565b91507fffffffffffffffffffffffffffffffffffffffffffffffffffffffffffffffff82036115d1576115d0611565565b5b600182019050919050565b7f4e487b7100000000000000000000000000000000000000000000000000000000600052603260045260246000fd5b60006116168261126e565b91506116218361126e565b925082820390508181111561163957611638611565565b5b92915050565b600061164a8261126e565b91506116558361126e565b92508282026116638161126e565b9150828204841483151761167a57611679611565565b5b5092915050565b7f4e487b7100000000000000000000000000000000000000000000000000000000600052601260045260246000fd5b60006116bb8261126e565b91506116c68361126e565b9250826116d6576116d5611681565b5b828204905092915050565b600082825260208201905092915050565b7f4561726c79207769746864726177616c206973206e6f7420616c6c6f77656400600082015250565b6000611728601f836116e1565b9150611733826116f2565b602082019050919050565b600060208201905081810360008301526117578161171b565b9050919050565b7f5374616b6520697320656d707479000000000000000000000000000000000000600082015250565b6000611794600e836116e1565b915061179f8261175e565b602082019050919050565b600060208201905081810360008301526117c381611787565b9050919050565b60006117d58261126e565b91506117e08361126e565b92508282019050808211156117f8576117f7611565565b5b92915050565b6000604082019050611813600083018561153b565b61182060208301846112e4565b9392505050565b60008115159050919050565b61183c81611827565b811461184757600080fd5b50565b60008151905061185981611833565b92915050565b6000602082840312156118755761187461120b565b5b60006118838482850161184a565b91505092915050565b7f546f6b656e207472616e73666572206661696c65640000000000000000000000600082015250565b60006118c26015836116e1565b91506118cd8261188c565b602082019050919050565b600060208201905081810360008301526118f1816118b5565b9050919050565b60008151905061190781611278565b92915050565b6000602082840312156119235761192261120b565b5b6000611931848285016118f8565b91505092915050565b7f496e73756666696369656e7420746f6b656e7300000000000000000000000000600082015250565b60006119706013836116e1565b915061197b8261193a565b602082019050919050565b6000602082019050818103600083015261199f81611963565b9050919050565b7f54686520616d6f756e74206d7573742062652067726561746572207468616e2060008201527f6d696e696d756d00000000000000000000000000000000000000000000000000602082015250565b6000611a026027836116e1565b9150611a0d826119a6565b604082019050919050565b60006020820190508181036000830152611a31816119f5565b9050919050565b7f4d6178207374616b6520616d6f756e7420726561636865640000000000000000600082015250565b6000611a6e6018836116e1565b9150611a7982611a38565b602082019050919050565b60006020820190508181036000830152611a9d81611a61565b9050919050565b6000606082019050611ab9600083018661153b565b611ac6602083018561153b565b611ad360408301846112e4565b94935050505056fea26469706673582212201c4b5c570b4ae17a1087ac2a3fe0b71fdb8df3e5fb24facd10e15a016eaf020a64736f6c63430008140033",
  "linkReferences": {},
  "deployedLinkReferences": {}
}